:020000040800F2
:10000000283C0020750200087F260008391F0008E0
:100010007B260008DF1B00086F310008000000008D
:100020000000000000000000000000007D28000823
:10003000891D00080000000005270008912900081C
:100040008F0200088F0200088F0200088F0200084C
:100050008F0200088F0200088F0200088F0200083C
:100060008F0200088F0200088F0200088F0200082C
:100070008F0200088F0200088F0200088F0200081C
:100080008F0200088F0200088F0200088F0200080C
:100090008F0200088F0200088F0200088F020008FC
:1000A0008F0200086D2A00088F020008F529000859
:1000B0007D2A00088F020008B52A00088F02000878
:1000C0008F0200088F0200088F0200088F020008CC
:1000D0008F020008392D0008C12D00088F0200088A
:1000E0008F0200088F0200088F02000800F002F85B
:1000F00000F0B0F80AA090E8000C82448344AAF112
:100100000107DA4501D100F0A5F8AFF2090EBAE80F
:100110000F0013F0010F18BFFB1A43F0010318473B
:1001200030A6000050A600000A444FF0000C10F862
:10013000013B13F0070408BF10F8014B1D1108BF65
:1001400010F8015B641E05D010F8016B641E01F805
:10015000016BF9D113F0080F1EBF10F8014BAD1C55
:100160000C1B09D16D1E58BF01F801CBFAD505E073
:1001700014F8016B01F8016B6D1EF9D59142D6D3CD
:10018000704700000023002400250026103A28BFF5
:1001900078C1FBD8520728BF30C148BF0B607047F9
:1001A0006E2900F02E84702900F0A981662909F0DB
:1001B000A681652909F0A381672909F0A081612939
:1001C000AFF3008003681B0A28BF41F08001692952
:1001D00000F01A81642900F01781752900F014815C
:1001E0006F2900F02785782900F07581E92900F052
:1001F000C184E42900F0BE84F52900F0BB84EF2916
:1002000000F02485F82900F074810368DB0928BF19
:1002100041F08001632900F03084732900F03584B7
:10022000E32900F09F87F32900F0A487002070479E
:100230001FB501F021F804000020002108F03CF86F
:10024000401C60600020002108F020F8E0601FBD25
:1002500010B510BD00F0E2FF1146FFF7E9FF05F011
:10026000DDF801F0BBF803B4FFF7F2FF03BC03F0C5
:10027000BEFA00000948804709480047FEE7FEE74C
:10028000FEE7FEE7FEE7FEE7FEE7FEE7FEE7FEE746
:1002900004480549054A064B7047000095290008A7
:1002A000ED00000828360020283C002028380020D7
:1002B00028380020704710B54C1084EA530404D548
:1002C0004042C1F1000138BF491E1B4204D55242D1
:1002D000C3F1000338BF5B1E00F0A6FA14F0804F94
:1002E00004D04042C1F1000138BF491E14F0004F54
:1002F00004D05242C3F1000338BF5B1E10BD0000A2
:100300001CB50C46064B7B4469460090204600F025
:1003100092FB04460020694600F0A0FB20461CBD6D
:10032000530700000FB4044910B503AA029800F067
:10033000B1FB10BC5DF814FB2C0000200FB41CB501
:10034000084B06AA7B4469460090059800F073FBB1
:1003500004460020694600F081FB20461CBC5DF885
:1003600014FB00001507000070B50446856900689D
:10037000C10601D5302600E02026C00707D070BD99
:10038000D4E9012130469047206A401C20626D1E4E
:10039000F6D570BD70B5044685690078C00707D1F1
:1003A00070BDD4E9012120209047206A401C2062C2
:1003B0006D1EF6D570BD70B50C460546012A05D0F8
:1003C0002878800600D5EA69002302E0012305E0D1
:1003D0005B1C934202D2E05C0028F9D1A869E618C0
:1003E000C01AA861286A184428622846FFF7BCFF93
:1003F00004E0D5E9012114F8010B9047B442F8D389
:100400002846FFF7C7FF70BD2DE9F04106460024DE
:1004100010687529314616A510D000F087FA00281B
:1004200002DA404213A507E031688A0701D512A518
:1004300002E0490704D511A5012401E000F07FFA8C
:1004400000210A2206F1240709E0B0FBF2FCB0FB10
:10045000F2F302FB1C00303078541846491C002887
:10046000F3D123462A463046BDE8F04100F070BA89
:10047000000000002D0000002B0000002000000004
:10048000F0B40D460188090502D5214C7C4402E0F8
:100490001F4C7C440E34002100F1240608E002F0D9
:1004A0000F071209E75D42EA03721B097754491CE2
:1004B00052EA0307F3D102780023120704D5702D06
:1004C00006D009B1022311342246F0BC00F040BA34
:1004D00001231034F8E770B504460D462146106834
:1004E00000F02DFA024629462046BDE87040002360
:1004F000C6E7D21D22F00703D3E90023C0E7036853
:10050000126843F0200303600823C3610023B7E7A8
:10051000AA9D00002DE9F05F894604464FF0000ACD
:10052000DFF874B1FB44C0F820A02046E16888479A
:10053000002874D0252806D0D4E901219047206AEC
:10054000401C2062F1E700265F462046E1688847AC
:100550002028054607DB312D05D2781910F8200C2C
:1005600008B10643F1E7B00701D526F00406C4F848
:100570001CA00027C4F818A02A2D09D0284603F093
:100580002FF938B304EB8708303DC8F8185019E04C
:1005900059F8041B204604EB87029161E168884703
:1005A000012F054618D1E069002820DA26F0200640
:1005B0001DE0D8F8180000EB800005EB4000303853
:1005C000C8F818002046E1688847054603F008F996
:1005D0000028EED1012F0AD02E2D08D12046E16847
:1005E00088477F1C0546022F46F02006C4DBA06921
:1005F000002803DA404246F00106A061F00701D06E
:1006000026F010066C2D0BD0682D09D04C2D39D05A
:100610006A2D35D0742D35D07A2D33D016E038E0E0
:10062000E1682F4620468847B842054609D16C2F1D
:1006300026D04FF48060E16806432046884705468F
:1006400004E06C2F1AD04FF4807006430DB3A5F16F
:100650004100192802D8203546F400664A4629464A
:10066000204626604E46FFF79BFD80B101280BD047
:10067000F61D26F0070000F1080956E74020E4E7E0
:100680008020D8E70020D6E706F104094DE7284688
:1006900052E7206ABDE8F09F3A9D000030B505465C
:1006A0000B462A4613F8014B12F8010B08B1A04281
:1006B000F8D01CB1002802D06D1CF1E7284630BDEF
:1006C00040EA010310B59B070FD1042A0DD310C8CF
:1006D00008C9121F9C42F8D020BA19BA884201D921
:1006E000012010BD4FF0FF3010BD1AB1D30703D069
:1006F000521C07E0002010BD10F8013B11F8014B1F
:100700001B1B07D110F8013B11F8014B1B1B01D13A
:10071000921EF1D1184610BD10B5431C02E010F82E
:10072000011B71B18107FAD14FF0013202C88C1A56
:100730008C4314EAC211F9D0C01A0A0603D0C01EB5
:1007400010BDC01A10BD0A0401D0801E10BD0902E0
:10075000FCD0401E10BD10B5203AC0F00B80B1E8AF
:100760001850203AA0E81850B1E81850A0E81850E6
:10077000BFF4F5AF5FEA027C24BFB1E81850A0E8EF
:10078000185044BF18C918C0BDE810405FEA827C09
:1007900024BF51F8043B40F8043B08BF7047D20720
:1007A00028BF31F8023B48BF11F8012B28BF20F8C1
:1007B000023B48BF00F8012B704702F0FF0343EAF9
:1007C000032242EA024200F04DBA10B5044610F08E
:1007D000030F08BF11F0030F40F015804FF0013EEA
:1007E000121FC0F20E8051F8043BA3EB0E0C2CEA52
:1007F000030C1CEACE1C08BF40F8043BF0D0A1F16A
:10080000040102F10402521E08DB11F8013B002B27
:1008100000F8013BF7D1114600F022FA204610BD46
:10082000704770477047704753EA020C00F06980C8
:100830002DE9F04B4FF00006002B1FBFB3FA83F5F4
:1008400003FA05F424FA05F65E4012BF1643B2FA25
:1008500082F502FA05F4C5F120051EBF22FA05FC57
:1008600044EA0C04203556EA044C4FEA144418BFFD
:10087000641C4FF000084FF00009904271EB030C2C
:1008800039D3002919BFB1FA81F701FA07F6B0FA96
:1008900080F700FA07F6C7F120071EBF20FA07FC11
:1008A00046EA0C062037B6FBF4FCA7EB0507103F21
:1008B00007F01F0BCBF120060CFA0BFB2CFA06F607
:1008C00044BFB3460026202FA4BF5E464FF0000B66
:1008D0005BEA060C08BF4FF0010B19EB0B09ABFBF1
:1008E000027C48EB0608C01B06FB02CC0BFB03CCCA
:1008F00071EB0C01C1E70B46024641464846BDE894
:10090000F08B13B54FF000004FF00001AFF3008003
:10091000BDE81C40704710B500F0C4F9006810BD78
:1009200010B5044600F0BEF9046010BD09684A0520
:1009300001D540B27047C905FCD500B270470968BF
:100940004A0501D5C0B27047C905FCD580B27047D1
:100950002DE9F0470D4699469246044600F12408D9
:100960000168880604D5E06921F01001216000E0EB
:100970000120A84201DD471B00E00027A1697A1988
:1009800002EB0900081AA0612078C00602D42046B4
:10099000FFF7EAFC002608E0D4E901211AF8060076
:1009A0009047206A401C761C20624E45F4DB20787C
:1009B000C0060AD52046FFF7D7FC06E0D4E901219E
:1009C00030209047206A401C2062381EA7F10107A2
:1009D000F4DC07E0D4E9012118F805009047206A0B
:1009E000401C2062281EA5F10105F3DC2046FFF71C
:1009F000D1FC2078000602D50220BDE8F087012056
:100A0000FBE711680268006A530501D508700AE027
:100A1000D30501D5088006E0130603D5C217C1E946
:100A2000000200E0086001207047000001694A1CD4
:100A300002610878704700B58FB0CDE9013100211F
:100A4000059105497944CDE9031011466846FFF741
:100A500061FD0FB000BD0000E5FFFFFF0A6802F86E
:100A6000010B0A60704710B5436913B1AFF3008002
:100A700001E0FFF7A0FC012010BD127800F1240175
:100A80000A7000224A700122EDE711684FF0FF3230
:100A9000E9E70000074B70B50D467B44FFF7CBFF3D
:100AA0000446284600F06AFB10B14FF0FF3070BDDD
:100AB000204670BD6B4100002DE9FF5F15468A4658
:100AC0000446DFF8AC80F8440027D8E900103E4621
:100AD000CDE9001010E03AF816106A4602A800F0BE
:100AE00051FB411C07D02178890603D5E2693918EA
:100AF00091420DD80744761C2078800602D5E06923
:100B0000B84205DDAE42E6DB3AF816000028E2D135
:100B1000A069C01BA0612046FFF726FCD8E90010A1
:100B2000CDE90010002017E03AF818106A4602A834
:100B300000F028FBB0F1FF3F81460BD000250DF1FE
:100B4000080B05E0D4E901211BF8050090476D1C56
:100B50004D45F7D308F10100B0428046E4DB206A3E
:100B6000384420622046FFF715FCBDE8FF9F0000D7
:100B7000FE9700002DE9F0418046D21D22F00702C9
:100B80000025D2E90002F52915A614D0011E72F144
:100B9000000106DA0023D0EB030063EB020211A68A
:100BA00008E0D8F800108B0701D50FA602E049072E
:100BB00001D50EA601251146002408F1240704E002
:100BC00000F074F830323A55641C50EA0102F7D153
:100BD0002B46324621464046BDE8F041FFF7B8BEFD
:100BE000000000002D0000002B000000200000008D
:100BF00030B4002100F1240408E002F00705D20817
:100C0000303542EA4372DB086554491C52EA030559
:100C1000F3D10468002310A2250708D504F02004AE
:100C20000C4304D0C46901230CA2641EC46130BC0F
:100C3000FFF78EBE10B5044621461068FFF77FFE11
:100C400002462046BDE810400023D1E7D21D22F025
:100C50000701D1E90023CBE70000000030000000CD
:100C60004FF000020429C0F0128010F0030C00F0D5
:100C7000AB82CCF1040CBCF1020F18BF00F8012BC1
:100C8000A8BF20F8022BA1EB0C0100F09DBA5FEA8F
:100C9000C17C24BF00F8012B00F8012B48BF00F8ED
:100CA000012B704700487047C835002030B5B0F1BF
:100CB0000A024FEA900E71F100034EEA817EB0EB1A
:100CC0000E0061EB91014FEA101E4EEA017E10EB1F
:100CD0000E0041EB11114FEA102E4EEA016E10EB9F
:100CE0000E0041EB11214FEA104E4EEA014E10EB7F
:100CF0000E0041EB1141401841F100014FEAD000D4
:100D000040EA41704FEAD10110EB80054FEA8104BF
:100D100044EA907444EB01046D1944EB0404521B43
:100D2000A3414FF0000348BF0A3200D530BD401C3C
:100D300041F1000130BD70472DE9FF4F0C461E46C2
:100D40004FF0FF378BB0D2E90001DDF860800A90E8
:100D50008A46C1F30A5505B93D46002108464FF0C1
:100D60000000BAF1000F00F4400005DA00EB80004B
:100D70004FF4400101EA50004FEA9059B9F1010FD8
:100D800000DDB9460A9850EA4A000ED044F61050E9
:100D9000A5F2FF3545432F14B8F1000F1ED0754260
:100DA000291E1EDDC9F100021CE0B8F1010F4FF051
:100DB000000001D0302103E0F24305E02154401C43
:100DC000B042FBDB30460022002121540B99C1F8D0
:100DD0000880C1E900200FB0BDE8F08FBD1B6D1C7D
:100DE000DEE74A4600DA694206A800F089FA06AB57
:100DF00093E8070003AB83E8070050460A9900F028
:100E000033FB8DE80700A0F500501F3800900398D1
:100E1000002D09DD42F21F014A46084403A9039050
:100E2000684600F092FD08E0A0F500504A461F38E1
:100E300003A90390684600F09CFD8DE807000004BC
:100E4000000C03D04FF0FF30410800E01046B8F12D
:100E5000000F03D00022009215461EE0751E05D437
:100E6000FFF724FF303262556D1EF9D5B3460122DB
:100E7000084302D000227F1C04E02078302801D1F2
:100E800000227F1E002A099786D01DE0112D07DA67
:100E9000FFF70CFF303262556D1C50EA0102F5D1AC
:100EA000084302D00098C8B10EE00021681E05E09A
:100EB000235C625C63542254401E491C8142F7DB70
:100EC000AB46A81B401E0990002004F80B000B98AD
:100ED000099AC0F80880C0E9002B7CE711264FF082
:100EE000000859E72DE9F04F88460446D21D22F04C
:100EF000070191B0D1E90001CDE90A0102F039F909
:100F000002460B98C00F01D02D2007E02068810712
:100F100001D52B2002E0202101EAC000032A09901C
:100F200001D0072A05DB03464146204600F0A8F918
:100F30000BE12078800601D5E06900E00620B8F1D9
:100F4000650F814606D0B8F1660F18D0B8F1670F6B
:100F500070D131E00020B9F1110F009001DB1123B5
:100F600001E009F101030AAA01A90CA8FFF7E4FEB8
:100F7000DDE90C70002609F10105834647E00120F8
:100F80004B4600904FF000470AAA01A90CA8FFF7B2
:100F9000D3FEDDE90DB00C995D46002610B909F1CC
:100FA00001000D18B9EB050003D4C0F1FF3609F1BB
:100FB0000105A5EB09002BE0B9F1010F01DA4FF0B3
:100FC00001090020B9F1110F0090484601DD1123FD
:100FD00000E003460AAA01A90CA8FFF7ADFEDDE96F
:100FE0000C704D4600268346207800070AD4AB4596
:100FF00000DA5D4601A8012D04DD411911F8011C3C
:10100000302907D04F4502DA17F1040F04DA012026
:1010100082460FE06D1EEEE7002F02DCED1B3E4422
:1010200003E0781CA84200DD7D1CB81B00F1010A1A
:101030004FF000472078000703D4AA4501DB4FF0AA
:10104000FF3A0021B7F1004F0DF143088DF843102E
:1010500024D002202B23002F01DA7F422D230A21E6
:10106000021EA0F1010000DC5FB197FBF1FC97FBD1
:10107000F1F201FB1C7C17460CF1300C08F801CD95
:10108000EEE7A8F1010003702188090501D545218B
:1010900000E06521A0F1010800F8011C09980FA9E2
:1010A000A1EB0807FF1D00B10120411901EBEA7017
:1010B000A1693844081A401EA0612078C00602D4F5
:1010C0002046FFF751F9099828B1D4E9012190474A
:1010D000206A401C20622078C00622D52046FFF7F7
:1010E00043F91EE0002E04DBB34502DD01A8805D5C
:1010F00000E03020D4E901219047206A401C2062A2
:10110000761CAAF101005FEA000A0AD100F0B4F8E7
:10111000C0680168405CD4E901219047206A401C06
:101120002062281EA5F10105DCDC07E0D4E90121DD
:1011300018F8010B9047206A401C2062381EA7F166
:101140000107F3DC2046FFF725F9032011B043E641
:1011500010B5436913B1AFF3008001E0FFF7ACFCB9
:10116000012010BD128800F1240182840022C28473
:101170000122EDE711684FF0FF32E9E7007B00F054
:101180008000704770B516460C46054600F06CF8B6
:10119000036893F80101012806D0FF2C0FD8185DD1
:1011A00068B101202C7070BDD3F80701324621468A
:1011B00003F2071303442846BDE8704018474FF078
:1011C000FF3070BD4FF0000200B5134694469646BE
:1011D000203922BFA0E80C50A0E80C50B1F120014A
:1011E000BFF4F7AF090728BFA0E80C5048BF0CC0F8
:1011F0005DF804EB890028BF40F8042B08BF704756
:1012000048BF20F8022B11F0804F18BF00F8012BC7
:101210007047000000487047C83500207546FFF74A
:10122000F9FFAE4605006946534620F007008546A3
:1012300018B020B5FFF72CF8BDE820404FF00006AD
:101240004FF000074FF000084FF0000B21F00701AE
:10125000AC46ACE8C009ACE8C009ACE8C009ACE8F1
:10126000C0098D467047000010B500F005F8001D5C
:1012700010BD00BF4570000000487047E8350020F1
:101280002DE9F0411F46044603260168072A01F4B0
:10129000006004DB08B116A505E016A503E008B15F
:1012A00015A500E015A521F010002060A069C01E62
:1012B000A0610FB1401EA0612046FFF755F84FB165
:1012C000D4E9012138469047206A401C2062C01CA6
:1012D000206206E0206AFAE7D4E9012115F8010B43
:1012E0009047761EF8D22046FFF754F8BDE8F0810B
:1012F0004E414E006E616E00494E4600696E6600BA
:101300002DE9F047814616468AB0334878440DC827
:101310008DE80D0030487844801C03AC0DC884E88B
:101320000D0041F69B300844372190FBF1F290FB11
:10133000F1F5A5F1800501FB12041B3C02D56442C6
:10134000012000E00020DFF890A080460027FA444A
:10135000AAF1BE0A0DE0E00709D03246684607EB65
:1013600047010AEB810100F004FB8DE807006410DF
:101370007F1C002CEFD1184F7F44AC3F18E0E807EA
:1013800014D007EB04100DF1180A90E80E008AE85B
:101390000E00C068F04201D198190890324606A9A3
:1013A00003A800F0E6FA03AB83E807006D10641CA5
:1013B000002DE4D132466946B8F1000F03A802D0EF
:1013C00000F0C3FA01E000F0D4FAC9E90001C9F85D
:1013D00008200AB0BDE8F087FC9100000446AFF396
:1013E00000802046FEF73FFF4FF0013C50F8042BF1
:1013F00051F8043B9A4221D1A2EB0C03934313EA28
:10140000CC1317D150F8042B51F8043B9A4215D154
:10141000A2EB0C03934313EACC130BD150F8042B2B
:1014200051F8043B9A4209D1A2EB0C03934313EA0F
:10143000CC13DBD04FF00000704700BFD01A01BAC8
:10144000B1FA81F101F0180122FA01F0CB40C1F1AB
:101450002001DBB2C0B2C01A2CFA01F3D11A9143B9
:1014600011EAC311E6D170475FEA400C08BF91F062
:10147000000F4FEA8C234FEAC12243EA51514FEA51
:101480001C5018BF00F5F0404FEA300018BF41F083
:1014900000415FEA6C5C00F02980BCF1FF3F08BFAF
:1014A00040F080407047130C06BF12044FF0100C40
:1014B0004FF0000C130E04BF12020CF1080C130FB6
:1014C00004BF12010CF1040C930F04BF92000CF145
:1014D000020CD30F04BF52000CF1010C11464FF067
:1014E0000002A0F11F00A0EB0C00704711F0004FAC
:1014F00008BF704731F000413FF4D5AF0B0C06BF79
:1015000009044FF0100C4FF0000C0B0E04BF090241
:101510000CF1080C0B0F04BF09010CF1040C8B0F2C
:1015200004BF89000CF1020CCB0F04BF49000CF181
:10153000010CCCF12003A0EB0C0022FA03F302FA19
:101540000CF241EA030100F10100704720F07F4CEA
:1015500080EA030023F07F47ACEB070303F57C53DD
:1015600000F0004003F1FF032DE980494FEA154BDD
:1015700009B44FEA144325EA0B4E24EA03480FF25C
:10158000042606EB132749083E785FEA320203FB84
:101590000667C7F5000707FB06F64FEA54374FEA20
:1015A000D64606F1020607FB066CCCF1005C4FEA5A
:1015B0001C472CEA074C07FB06F40CFB06F504EB72
:1015C00015464FEA961634BF00204FF000404FEA10
:1015D000D13706FB07FC4FEA1C4C0CFB0BF7D21B68
:1015E00003FB0CF761EB07010CFB0EF7B0EB0740B8
:1015F00072EB17420CFB08F734BFA2EB0742B2EBC9
:10160000074261EB17414FEA0C444FEA910706FB92
:1016100007FC4FEA1C4C0CFB0BF7B0EBC74072EB1E
:10162000573203FB0CF734BFA2EBC742B2EBC74201
:1016300061EB57310CFB0EF7B0EBC70072EB577242
:101640000CFB08F734BFA2EBC702B2EBC70261EB99
:101650005771039F4FEA816141EA921104EBCC0478
:101660004FEAD1374FEA826206FB07FC42EA90124A
:101670004FEA80604FEA1C4C0CFB0BF7D21B03FBBC
:101680000CF761EB07010CFB0EF7B0EB074072EBB8
:1016900017420CFB08F734BFA2EB0742B2EB07423C
:1016A00061EB17414FEA8C554FEA910704EB9C24FC
:1016B00006FB07FC4FEA1C4C0CFB0BF7B0EBC740DA
:1016C00072EB573203FB0CF734BFA2EBC742B2EB0D
:1016D000C74261EB57310CFB0EF7B0EBC70072EB62
:1016E00057720CFB08F734BFA2EBC702B2EBC7027C
:1016F00061EB577115EB4C254FEA816141EA92117C
:101700004FEA82624FEAD13742EA901206FB07FCA9
:1017100044F100044FEA80604FEA1C4C0CFB0BF7CD
:10172000D21B03FB0CF761EB07010CFB0EF7B0EBD0
:10173000074072EB17420CFB08F734BFA2EB0742DD
:10174000B2EB074261EB174115EB1C154FEA8131F3
:1017500041EA92414FEA823242EA90424FEA8030B7
:101760004FEA0C7644F1000448EA03434EEA0B4882
:101770004FF0000EB2EB080C71EB030724BF62467A
:1017800039464EEB0E0E4FF0000B00185241494106
:101790004BEB0B0BB2EB080C71EB03077BF1000B6F
:1017A00024BF624639464EEB0E0E4FF0000B001878
:1017B000524149414BEB0B0BB2EB080C71EB0307A9
:1017C0007BF1000B24BF624639464EEB0E0E51EA08
:1017D000020718BF46F0010616EB0E7655F100021F
:1017E00054F1000103D5BDE88901BDE80088BDE8DA
:1017F0008901BDE80048B619524141EB0101A3F14E
:101800000103704780807F7E7D7C7B7A7978777654
:1018100076757473727171706F6E6E6D6C6C6B6ACD
:101820006A6968686766666564646363626161606B
:10183000605F5F5E5E5D5D5C5C5B5B5A5A595958E8
:101840005857575656555555545453535252525152
:10185000515050504F4F4F4E4E4D4D4D4C4C4C4BA8
:101860004B4B4A4A4A4949494848484747474746EF
:10187000464645454544444444434343434242422B
:1018800042414141002B26D4770021D01CB54FEABC
:10189000370703B44FF010004FF010014FF0000075
:1018A0000FBCBDE810400BF1010BBBF1010F08BFED
:1018B0005FEA170722BF12F1010211F101014FF097
:1018C000004143F1000300F0004043EA000070478C
:1018D000F9D35708DAE746EA064613F1400F4FEA14
:1018E00016461FDD13F1200FDFBF16430A46002105
:1018F00020335B42C8D0C3F1200746EA064602FA0D
:1019000007F74FEA164646EA0706C3F1200722FA10
:1019100003F201FA07F721FA03F14FF0000342EA5C
:101920000702B1E746EA020646EA06464FEA1646CD
:1019300046EA0106BCBF46EA0646360C4FF00003F5
:101940004FF000024FF000019EE72DE9C04893469A
:1019500030B491E8380007C831EA400C48BF34EA97
:10196000430C03D5FFF7F2FDFFF78CFFF0BCBDE899
:1019700000882DE9C048934630B491E8380007C884
:1019800010F0804F08BF13F0804F03D100F005F82E
:10199000FFF778FFF0BCBDE8008820F07F4780EAC1
:1019A000030023F07F4C07EB0C03A3F57C5300F0FE
:1019B0000040A3F1FE0392F0000F00F0B38095F019
:1019C000000F00F077802DE901494FEA11404FEAFE
:1019D000144621EA004800FB06FC24EA064708FBFF
:1019E00006F607FB08F800FB07F718EB06484CEB78
:1019F000164C4FEA124B18EB07484FEA15464CEBD2
:101A0000174022EA0B4E0BFB06FC25EA06470EFBAD
:101A100006F607FB0EFE0BFB07F71EEB064E4CEB24
:101A2000164C4FF000061EEB074E4CEB174B18EB15
:101A30000B0840F1000018EB0E0B58EB000840F1CA
:101A400000008F1A4FF000013CBFC943661B14BF52
:101A5000B5EB040C00213CBFC943F61B4FEA174409
:101A60004EEA8E0E27EA04454FEA1C4704FB076244
:101A70002CEA074C05FB07F70CFB05F604FB0CFCF6
:101A800016EB074642EB174216EB0C4642EB1C42A4
:101A90001BEB060658EB0202414146EA9E0601D5C1
:101AA000BDE80189B619524141EB0101A3F10103DF
:101AB000BDE801894FEA14454FEA114724EA05467B
:101AC00021EA074C05FB07F406FB07F70CFB06F1C0
:101AD00005FB0CFC11EB074144EB17444FEA12479E
:101AE00011EB0C4144EB1C4422EA074C05FB07F2C6
:101AF00006FB07F70CFB06F605FB0CFC16EB07468E
:101B000042EB174216EB0C4642EB1C456A1854F1A7
:101B1000000148BF7047B619524141EB0101A3F1E2
:101B20000103704795F0000F37D04FEA11424FEA9A
:101B3000144721EA024624EA074C02FB07F106FBA0
:101B400007F70CFB06F402FB0CFC14EB074441EB1B
:101B500017414FEA154714EB0C4441EB1C4125EAB1
:101B6000074C02FB07F506FB07F70CFB06F602FB2A
:101B70000CFC16EB074645EB174516EB0C4645EB00
:101B80001C42121951F1000148BF7047B619524169
:101B900041EB0101A3F1010370474FEA14454FEAFD
:101BA000114724EA054621EA074C05FB07F106FB2D
:101BB00007F70CFB06F24FF0000605FB0CFC12EBDE
:101BC000074241EB174112EB0C4251EB1C4148BF5D
:101BD0007047921841EB0101A3F10103704700BF68
:101BE000FEE721B1026842F00102026004E00268EF
:101BF0004FF6FE731A4002607047000001684FF60E
:101C0000FE72114001600021016041608160C1608D
:101C10004B49884208D14A490839496841F00F01C7
:101C2000474A083A51608AE045491431884208D150
:101C300043490839496841F0F001414A083A516086
:101C40007DE03F492831884208D13D49083949683B
:101C500041F470613A4A083A516070E038493C31C9
:101C6000884208D136490839496841F47041344AFC
:101C7000083A516063E032495031884208D1304916
:101C80000839496841F470212D4A083A516056E0FC
:101C90002B496431884208D129490839496841F4FF
:101CA0007001274A083A516049E025497831884255
:101CB00008D123490839496841F07061204A083A3F
:101CC00051603CE01F49884206D1011F096841F07C
:101CD0000F01021F116032E01A491431884208D105
:101CE0001849091F096841F0F001164A121F1160D6
:101CF00025E014492831884208D11249091F096892
:101D000041F470610F4A121F116018E00D493C3117
:101D1000884208D10B49091F096841F47041094AFA
:101D2000121F11600BE007495031884207D1054965
:101D3000091F096841F47021024A121F116070479F
:101D4000080002400804024010B50022026847F66D
:101D5000F0739A430C6A8B6823430C6923434C69E4
:101D600023438C692343CC6923434C6A23438C6A05
:101D700023431A430260CB6843600B6883604B685F
:101D8000C36010BD4160704770472DE9F0410246C5
:101D900000250026002000230024002791F803C01E
:101DA0000CF00F0591F803C00CF0100CBCF1000F03
:101DB00003D091F802C04CEA050591F800C0BCF1CF
:101DC000000F31D0146800202BE04FF0010C0CFA0A
:101DD00000F3B1F800C00CEA03069E4220D1830054
:101DE0004FF00F0C0CFA03F7BC4305FA03FC4CEA66
:101DF000040491F803C0BCF1280F06D14FF0010C88
:101E00000CFA00FCC2F814C00AE091F803C0BCF15F
:101E1000480F05D14FF0010C0CFA00FCC2F810C0BD
:101E2000401C0828D1D31460B1F800C0BCF1FF0FEA
:101E300034DD546800202EE000F1080C4FF001085A
:101E400008FA0CF3B1F800C00CEA03069E4221D157
:101E500083004FF00F0C0CFA03F7BC4305FA03FCA8
:101E60004CEA040491F803C0BCF1280F05D100F13D
:101E7000080C08FA0CF8C2F8148091F803C0BCF101
:101E8000480F07D100F1080C4FF0010808FA0CF8D0
:101E9000C2F81080401C0828CED35460BDE8F08101
:101EA000F0B50A46002300240021002500F000467A
:101EB000B6F1004F02D11D4EF16901E01B4E716871
:101EC000C0F3034583B200F44016B6F5401F08D1B5
:101ED00021F07061154E766826F07066134F7E60B3
:101EE00012E000F48016B6F5801F06D1032606FA2C
:101EF00005F4A14341F0706106E0460D360103FA96
:101F000006F6B14341F0706122B1460D360103FA85
:101F100006F6314300F00046B6F1004F02D1034E01
:101F2000F16101E0014E7160F0BD00000000014070
:101F3000416170470161704700BFFEE710B50020A6
:101F40000F4908600F48006820F0F0000D49086054
:101F50000846006840F03000086000200A49C1F8D7
:101F6000A401022002F050F8012005490860022077
:101F700002F04AF800200449C1F8A00110BD000099
:101F8000A0812142040C01400080214208B50121BA
:101F9000082000F0E9FB4FF44070ADF8000010207D
:101FA0008DF8030003208DF8020069460448FFF70E
:101FB000ECFE0120034908600349C1F8A40108BDF3
:101FC000000C0140A08121420080214210B5002078
:101FD0000F4908600F48006820F0F0000D490860C4
:101FE0000846006840F03000086001200A49C1F846
:101FF000A401022002F008F801200549086002202F
:1020000002F002F800200449C1F8A00110BD000050
:10201000A0812142040C01400080214270B5054698
:1020200000241748006820F0F000154908600846B1
:10203000006840F080000860002616E0002011498A
:102040000860022001F0E0FF01200F49C1F8A00163
:102050006006040E0B487C38006808B1601CC4B2EE
:10206000012001F0D1FF701CC6B2082EE6DB15B9C5
:10207000FFF7ACFF01E0FFF761FF204670BD0000F5
:10208000040C0140A08121420080214270B5044629
:102090001548006820F0F000134908600846006801
:1020A00040F030000860002010490860002517E06B
:1020B000E0090E49091D08606006040E022001F0C7
:1020C000A3FF01200A49C1F8A001022001F09CFFF2
:1020D000002006490860022001F096FF681CC5B286
:1020E000082DE5DB70BD0000040C0140A0812142F9
:1020F0000080214210B50F48006820F0F0000D4923
:1021000008600846006840F03000086001200A4975
:1021100008600A49C1F8A001042001F075FF002001
:1021200005490860042001F06FFF00200349C1F851
:10213000A00110BD040C0140A48121420080214275
:1021400010B50F48006820F0F0000D4908600846FF
:10215000006840F03000086000200A4908600A4921
:10216000C1F8A401042001F04FFF012005490860D7
:102170000549C1F8A401042001F046FF10BD00008C
:10218000040C0140A08121420080214210B50024AE
:102190001448006820F0F000124908600846006802
:1021A00040F08000086001200F49086001F02CFF1A
:1021B00001200E49C1F8A00101F026FF07E0601CD4
:1021C000C4B2FA2C03DDFFF7BBFF012010BD0648A7
:1021D000803800680028F2D10349091F086000BF59
:1021E000F4E70000040C0140A48121420080214258
:1021F00008B50121192000F0B7FA01211B48FFF7AB
:102200004FFE4FF40050ADF8000010208DF8030091
:1022100003208DF8020069461548FFF7B6FD4FF41C
:1022200000511348FFF786FE0820ADF8000069460C
:102230001048FFF7AAFD1020ADF8000069460D48D0
:10224000FFF7A3FD08210B48FFF772FE1021094894
:10225000FFF76EFE2020ADF8000048208DF8030047
:1022600069460448FFF791FD08BD000000023000F8
:1022700000100140000C01402DE9FC4104460D46D0
:1022800016466B4606223B21682000F020F90746DF
:10229000BFB99DF801009DF8001040EA012000B28E
:1022A00020809DF803009DF8021040EA012000B252
:1022B00028809DF805009DF8041040EA012000B236
:1022C00030803846BDE8FC812DE9FC4104460D46CE
:1022D00016466B4606224321682000F0F8F80746B0
:1022E000BFB99DF801009DF8001040EA012000B23E
:1022F00020809DF803009DF8021040EA012000B202
:1023000028809DF805009DF8041040EA012000B2E5
:1023100030803846BDE8FC812DE9F84F6B4602223B
:102320004121682000F0D3F89DF801009DF80010CD
:1023300040EA01200FFA80FA504606F03CFA804647
:1023400000220B4B06F0B0F806460A4A0A4B05F08D
:10235000FBFF044605F0C6FF83460849584606F0D1
:102360005BFF044606F0BCFE00B2BDE8F88F00003B
:1023700000407540A4703D0AD74342400000C84267
:1023800070B5FFF703FE80216B2000F024F9642074
:1023900001F014FE00216B2000F01DF9032000F075
:1023A000D8F8002000F0CDF8322000F0F7F8002136
:1023B000382000F010F900216A2000F00CF900210B
:1023C000232000F008F98021372000F004F975205F
:1023D00000F060F80546682D0BD101216B2000F05C
:1023E000FAF800216C2000F0F6F8322000F0D6F860
:1023F00001E0012070BD002424E0204B03EB4402E7
:102400001F4B03EB44011F4B03EB4400FFF734FF6A
:102410001C4830F914001C49096808441A4908602E
:10242000174830F914001949096808441749086029
:10243000124830F914001649096808441449086024
:10244000601CC4B2092CD8DB0F480068092190FB3E
:10245000F1F000B20B4908800C480068092190FB9C
:10246000F1F000B20649088009480068092190FB94
:10247000F1F000B2014908800020BBE724030020EE
:1024800010030020FC0200203C000020400000203F
:102490004400002070B50446FFF72CFED020FFF763
:1024A000F5FDFFF773FE2046FFF7F0FDFFF76EFE28
:1024B000FFF720FED120FFF7E9FDFFF767FE0020C0
:1024C000FFF7ACFD0546FFF73BFE284670BD2DE942
:1024D000F04106460F4614461D46FFF70BFE00214D
:1024E00041EA4601C8B2FFF7D1FDFFF74FFE20B128
:1024F000FFF726FE0120BDE8F0813846FFF7C6FD54
:10250000FFF744FEFFF7F6FD012101EB4601C8B2DB
:10251000FFF7BCFDFFF73AFE0DE0012C04D10020CF
:10252000FFF77CFD287003E00120FFF777FD28709E
:10253000601EC4B26D1C002CEFD1FFF701FE00201D
:10254000D9E710B50446E006010E1C2000F043F860
:1025500010BD10B50446E006010E1B2000F03BF84C
:1025600010BD70B504460025BC2C01DB012510E030
:10257000622C01DB02250CE02A2C01DB032508E09C
:10258000142C01DB042504E00A2C01DB052500E006
:10259000062529461A2000F01EF870BD70B50446C5
:1025A000B4F57A7F01DD4FF47A74042C00DA042448
:1025B0004FF47A7090FBF4F0401EC5B22946192002
:1025C00000F009F80546264604EBD671C1F34F002A
:1025D000FFF7C7FF70BD70B505460C46FFF78AFDD3
:1025E000D020FFF753FDFFF7D1FD18B1FFF7A8FD8D
:1025F000012070BD2846FFF749FDFFF7C7FD2046C3
:10260000FFF744FDFFF7C2FD18B1FFF799FD012068
:10261000EFE7FFF795FD0020EBE72DE9F0410546D8
:102620000E4617469846FFF765FD002141EA450131
:10263000C8B2FFF72BFDFFF7A9FD20B1FFF780FD22
:102640000120BDE8F0813046FFF720FDFFF79EFD39
:1026500000240CE018F80400FFF718FDFFF796FDC2
:1026600018B1FFF76DFD0120EBE7601CC4B2BC425E
:10267000F0DBFFF765FD0020E3E700BFFEE77047F2
:1026800070B5002100230F22C47804B3154C2468D0
:1026900004F4E064C4F5E064210AC1F10403CA4013
:1026A000447804FA03F184781440214309010E4C64
:1026B0000678A155047804F01F050124AC40057884
:1026C0006D11AD0005F1E025C5F8004109E0047881
:1026D00004F01F050124AC40044D0678761145F83E
:1026E000264070BD0CED00E000E400E080E100E079
:1026F00002490143024A1160704700000000FA05D8
:102700000CED00E07047000029B1064A526902430F
:10271000044B5A6104E0034A52698243014B5A61F7
:10272000704700000010024029B1064AD2690243F6
:10273000044BDA6104E0034AD2698243014BDA6157
:10274000704700000010024029B1064A1269024396
:10275000044B1A6104E0034A12698243014B1A6177
:10276000704700000010024029B1064A92690243F6
:10277000044B9A6104E0034A92698243014B9A61D7
:10278000704700000010024029B1064AD268024397
:10279000044BDA6004E0034AD2688243014BDA60FA
:1027A000704700000010024030B5002100220024D4
:1027B00000232D4D6D6805F00C0121B1042905D0D1
:1027C000082923D105E0294D056022E0274D056049
:1027D0001FE0254D6D6805F47012234D6D6805F4FA
:1027E0008034022505EB92421CB9214D554305600A
:1027F0000BE01D4D6D6805F400351DB11C4D5543B2
:10280000056002E0194D5543056002E0174D056073
:1028100000BF00BF144D6D6805F0F0010909154DAA
:102820006B5C0568DD4045600F4D6D6805F4E06147
:10283000090A104D6B5C4568DD4085600A4D6D6886
:1028400005F46051C90A0B4D6B5C4568DD40C560FD
:10285000054D6D6805F44041890B074D6B5CC568FB
:10286000B5FBF3F5056130BD0010024000127A009F
:1028700000093D000000002010000020704710B546
:1028800000F002F810BD00000CB50020019000908F
:102890003348006840F480303149086000BF304858
:1028A000006800F4003000900198401C01900098EE
:1028B00018B90198B0F5A06FF1D12948006800F46B
:1028C000003010B10120009001E00020009000983D
:1028D000012843D12348006840F0100021490860D6
:1028E0000846006820F0030008600846006840F0D1
:1028F000020008601A484068194948600846406864
:1029000048600846406840F4806048600846406877
:1029100020F47C1048600846406840F4E8104860A5
:102920000846006840F08070086000BF0C480068EE
:1029300000F000700028F9D00948406820F003003A
:10294000074948600846406840F00200486000BF00
:102950000348406800F00C000828F9D10CBD0000C5
:102960000010024000200240042808D14FF0E0216E
:10297000096941F004014FF0E022116107E04FF0D6
:10298000E021096921F004014FF0E0221161704754
:102990007047000010B51348006840F0010011496D
:1029A000086008464068104908400E4948600846DB
:1029B00000680E4908400B4908600846006820F48A
:1029C000802008600846406820F4FE0048604FF40C
:1029D0001F008860FFF753FF4FF000600449086054
:1029E00010BD0000001002400000FFF8FFFFF6FEDF
:1029F00008ED00E010B510211A4800F0C6F80128D3
:102A00002BD11948007800F0010070B90221154857
:102A100000F0D5F80021134800F0DEF812480068F5
:102A200040F001001049086017E00E4800F0A9F8D6
:102A3000044600210B4800F0C2F80B48006820F063
:102A40000100094908600846006820F47F0008601A
:102A50000846006840EA044008601021014800F080
:102A600081F810BD002C01409C00002010B5012110
:102A7000014800F077F810BD002C014010B54FF070
:102A80008040008A00F0010048B109490869804788
:102A900000204FF0804188844FF47A7088854FF091
:102AA0008040008A20F001004FF08041088210BD74
:102AB0000C01002010B50121084800F066F860B153
:102AC0000748008840F40040054908800121034878
:102AD00000F048F8002000F031F810BD0008004078
:102AE000300200207FB505460C4601210420FFF787
:102AF0001BFEADF80450ADF800400020ADF8060014
:102B0000ADF8020069460C4800F068F80122114651
:102B1000094800F04BF81E208DF80C0001208DF8BC
:102B20000D0002208DF80E0001208DF80F0003A883
:102B3000FFF7A6FD7FBD00000008004010B5044669
:102B400044B10021064800F047F80121044800F094
:102B50000CF803E00021024800F007F810BD000067
:102B600000080040CA430282704721B1028842F047
:102B70000102028004E002884FF6FE731A400280D0
:102B800070470146B1F84000704730B5024600205A
:102B900000230024158A05EA0103958905EA01044A
:102BA00013B10CB1012000E0002030BD1AB18389BF
:102BB0000B43838102E083898B43838170470A46FC
:102BC0000021018C4DF6FF7319404FF6FF7303EAA5
:102BD00002331943018470478184704700220288C0
:102BE0001D4B98420ED01D4B98420BD0B0F1804F38
:102BF00008D01B4B984205D01A4B984202D01A4B72
:102C0000984204D14FF68F731A404B881A43174BE2
:102C1000984207D0164B984204D04FF6FF431A4013
:102C2000CB881A4302808B8883850B8803850A4BE7
:102C300098420BD0094B984208D00E4B984205D0D1
:102C40000D4B984202D00D4B984201D10B7A03866E
:102C50000123838270470000002C014000340140B2
:102C60000004004000080040000C0040001000403C
:102C70000014004000400140004401400048014071
:102C800038B505460C461148C06940F001000F49AF
:102C9000C861880485850485808940F00100890425
:102CA00088810846008840F0010008801C208DF8CB
:102CB000000004208DF8010003208DF8020001209F
:102CC0008DF803006846FFF7DBFC38BD00100240BA
:102CD00070B58CB006460C46154601210846FFF734
:102CE00013FD3046FEF78AFF0194029510200390F1
:102CF0000020049005908020069000200790089006
:102D000009904FF480500A9000200B9001A93046A2
:102D1000FFF71AF80CB070BD70B504460D460021DF
:102D20002046FEF75EFF29462046FFF72BF80121DB
:102D30002046FEF756FF70BD10B540F225511D48E4
:102D400000F051F910B31B4800F008FAC4B21A4859
:102D5000008800F40040C8B91748008800F480409B
:102D600060B10A2C03D000201349088020E01248EB
:102D7000008840F400401049088019E00D2C06D16D
:102D80000D48008840F480400B49088010E00A4854
:102D90000088C0F30D0009490C5407480088401C06
:102DA0000549088008460088C72801DD0020088002
:102DB00010BD000000380140300000203402002027
:102DC00010B540F22551134800F00DF908B3114831
:102DD00000F0C4F9C4B210480088B0F5806F12DA70
:102DE00000210E48FFF7F8FE0B48008810B90120BB
:102DF000FFF7A4FE084801880088401C064A10809E
:102E00000748445405E00448008840F40040024963
:102E1000088010BD0044004030020020000800403F
:102E2000C831002010B586B0044601210420FFF708
:102E30009BFC01214804FFF777FC2D4800F078F84F
:102E40000420ADF8100003208DF8120018208DF832
:102E5000130004A92748FEF798FF0820ADF81000DA
:102E600004208DF8130004A92248FEF78EFF009479
:102E70000020ADF80400ADF80600ADF80800ADF88C
:102E80000C000C20ADF80A006946194800F0FAF869
:102E900001228021164800F041F8174A1449091D03
:102EA0001648FFF715FF0121114800F02BF8012209
:102EB00040F225510E4800F0C0F826208DF814008D
:102EC00002208DF8150003208DF8160001208DF8E2
:102ED000170005A8FFF7D4FB41F61F416320FFF759
:102EE00001FE002006490880FFF728FE06B010BD4D
:102EF0000044004000080140C82D0020800002402E
:102F00003002002021B1828942F40052828104E023
:102F100082894DF6FF731A40828170471AB1838A05
:102F20000B43838202E0838A8B43838270470000D5
:102F300010B504462048844209D101218803FFF7D7
:102F400023FC00214FF48040FFF71EFC32E01B48B9
:102F5000844209D101214804FFF7F6FB00214FF418
:102F60000030FFF7F1FB25E01548844209D101212B
:102F70008804FFF7E9FB00214FF48020FFF7E4FB12
:102F800018E01048844209D10121C804FFF7DCFB96
:102F900000214FF40020FFF7D7FB0BE00A488442E2
:102FA00008D101210805FFF7CFFB00214FF4801065
:102FB000FFF7CAFB10BD000000380140004400408C
:102FC00000480040004C00400050004002460020F5
:102FD000B1F5007F00D100BF13880B400BB1012079
:102FE00000E00020704770B5024600240023002551
:102FF000002040F66A16B14200D100BFC1F342156D
:1030000001F01F03012606FA03F3012D02D1968970
:10301000334006E0022D02D1168A334001E0968A41
:1030200033400C12012606FA04F41688344013B11A
:103030000CB1012000E0002070BDF0B50346002473
:1030400000260025002040F66A17B94200D100BFD3
:103050001846C1F3421401F01F06012707FA06F5CE
:10306000012C01D10C3004E0022C01D1103000E021
:1030700014301AB107682F43076002E00768AF43B6
:103080000760F0BD2DE9F04786B005460E460024E6
:10309000A24600BFA1460027B08900B100BF2F465D
:1030A0002C8A4CF6FF700440F08804432C82AC89D3
:1030B0004EF6F3100440B088318908437189084303
:1030C0000443AC81AC8A4FF6FF400440B08904430E
:1030D000AC8201A8FFF768FB1F48874202D1DDF8E8
:1030E00010A001E0DDF80CA0A88900F4004040B178
:1030F0000AEBCA0000EB0A1031684900B0FBF1F896
:1031000007E00AEBCA0000EB0A1031688900B0FB47
:10311000F1F86420B8FBF0F004012009642101FB00
:103120001089A88900F4004040B1322000EBC900AA
:10313000B0FBF1F000F00700044308E0322000EBA0
:1031400009106421B0FBF1F000F00F0004432C8162
:1031500006B0BDE8F08700000038014001468888CD
:10316000C0F308007047C1F308028280704700BFB7
:10317000FEE7490050EAC12018BF04204A0D18BFDD
:1031800040F0010040F2FF72B2EB515F08BF40F027
:103190000200012808BF0520704700002DE9F74F05
:1031A000144694B00021C4E902111599079121F049
:1031B0000045C9498D4206DC1599C4E9000117B0E4
:1031C0000020BDE8F08FC549DFF814A3A9423CDD1B
:1031D0000799C44E0029C44FC44A1599534619DDB6
:1031E00005F004FD554506D0C14AC24B05F0FEFC72
:1031F000C4E900010AE04FF0D352BE4B05F0F6FCE3
:1032000032463B4605F0F2FCC4E9000117B001204C
:10321000BDE8F08F05F098F8554506D0B44AB54B97
:1032200005F092F8C4E900010AE04FF0D352B14B27
:1032300005F08AF832463B4605F086F8C4E90001FD
:1032400017B04FF0FF30BDE8F08FAB49A942159998
:1032500078DB21F0004183468846A84AA84B05F058
:10326000D5FA0022A74B05F06FF805F075FA099022
:1032700005F0A1FA06460F469C4A534605F0C6FAE9
:1032800043465A4605F0C0FB80468A46984A994B09
:103290003046394605F0BAFA2A0D01250B9242460E
:1032A000534605F0B1FB032DC4E9000139D00B985A
:1032B000C1F30A51401A05EB45111139814230DA48
:1032C0009148C346784400EB0510CDF80CA00C9053
:1032D000D0E900233046394605F098FA02460B46FD
:1032E000049106905846039905F080FC80468A4672
:1032F00002460B465846039905F078FC049B069A53
:1033000005F074FC83460C9803913946D0E90223FA
:10331000304605F07BFA5A46039B05F067FC6D1CAE
:10332000BDE707980028A2BF099817B0BDE8F08F45
:10333000616881F000416160099817B04042BDE8C2
:10334000F08FFFE784461598C1F31301C0F30A50CC
:10335000A0F2F5304FEA601800F01F06C6F1200019
:10336000139000200690079041F4801E05206D46C2
:1033700076B1664A08EB00017A4452F8213002EB3C
:103380008101B3404A68139922FA01F1194305E01B
:103390005F4908EB0002794451F82210A1FB0E2787
:1033A000A1FB0C131A449A4234BF0123002303EB00
:1033B000070A05EB8003D3E901B70F448F4234BFFE
:1033C0000121002193448B4411B1934502D903E0BC
:1033D000934501D2012100E00021C3E901B7514426
:1033E00045F82010011EA0F10100C1DC0298059FE4
:1033F00000F10050800F12900298DDE90356800022
:1034000005F0D9F9834628460D9105F0EBF96FF0E8
:103410001D0206F0A8F8CDE90E01304605F0E2F9EC
:103420006FF03D0206F09FF880468A46384605F068
:10343000D9F96FF05D0206F096F80746424653460A
:10344000119104F081FFDDE90E2304F07DFF5A465F
:103450000D9B04F079FF00250E465A4628460D9B29
:1034600005F0C4FBDDE90E2305F0C0FB42465346E0
:1034700005F0BCFB3A46119B05F0C6FADFF898A0B0
:10348000244A534605F0C2F907468846234A244B8E
:103490003146284605F0BAF93A46434604F054FF4F
:1034A000074688464FF0A84253463146284605F065
:1034B000ADF93A46434604F047FF159A12F0004F23
:1034C00004D0129A81F0004152421292C4E90001E4
:1034D000129817B0BDE8F08FFB21E93F7CD902407C
:1034E000FB21F93F7370032E8A19A33B000040545F
:1034F0003163621A61B4D03DFB21394183C8C96D83
:10350000305FE43F0000E03FD870000054700000DE
:1035100036700000182D4454FB21F93D3326A611C6
:10352000460B113C2DE9FF4D21F0004807460C46A3
:10353000B8F1795F08DA05F00FF9002801BF002023
:10354000324904B0BDE8F08D3A462346104619468C
:1035500005F05CF9054602462D480E460B4606214D
:10356000784400F05DF82A46334605F04FF9DDE96E
:10357000022382468B463846214605F047F9044629
:103580000F4652465B462846314605F03FF9224633
:103590003B4605F02BFB07468A464FF0FF32284694
:1035A000314605F0E0FF1B4A90450ADA3A46534699
:1035B00005F01CFB04B00022BDE8F04D134B05F0F4
:1035C00023BA154A4245A8BFA8F500154FF00004DC
:1035D000B8BF124D22462B4605F008FB064688462A
:1035E00022462B460020094905F000FB04460D4603
:1035F0003A4653463046414605F0F8FA04B02246B2
:103600002B46BDE8F04D05F0FFB900000000F03F8B
:10361000046E00003333D33F0000E93F0000D23F87
:103620002DE9F0414F1E00EBC7010446D1E900012E
:1036300015461E4637F006020DD02A46334605F0E1
:10364000E5F87F1E04EBC703D3E9002304F07CFEFA
:1036500037F00602F1D1022F25D0042F13D0062F08
:1036600018BFBDE8F0812A46334605F0CFF8D4E90B
:103670000A2304F069FE2A46334605F0C7F8D4E968
:10368000082304F061FE2A46334605F0BFF8D4E96A
:10369000062304F059FE2A46334605F0B7F8D4E96C
:1036A000042304F051FE2A46334605F0AFF8D4E96E
:1036B000022304F049FE2A46334605F0A7F8D4E970
:1036C0000023BDE8F04104F03FBE00002DE9FF4DAE
:1036D000054621F0004084B00C46B0F1795F0BDA6A
:1036E0002846FFF746FD042808BF00F071F8284679
:1036F00008B02146BDE8F08D2A460B46104605F07D
:1037000085F806460F462A46234605F07FF8804690
:1037100026488A4632463B4605217844FFF780FF1B
:1037200083461098029160B3214A224B404651468D
:1037300005F06CF8CDE900015A4640465146029B1F
:1037400005F064F882468846DDE906014FF0FF3255
:1037500005F009FF5246434605F048FA32463B461B
:1037600005F054F8DDE9062305F040FADDE9002311
:1037700005F03CFA08B02A462346BDE8F04D05F0B6
:1037800043B90B465A463046394605F03FF8084AD9
:10379000084B04F0D9FD4246534605F037F808B00F
:1037A0002A462346BDE8F04D04F0CEBD4A6D000028
:1037B000495555555555C5BF012205F0D4BE04F0F5
:1037C000C3BD002213461046114604F06DBE000032
:1037D000024A0020110705F0C6BE000001FDFFFFF0
:1037E00030380A2801D20120704700207047014676
:1037F00000BF704710B50120074908600749C1F8AC
:10380000900141F2883000F0D9FB002002490860A5
:103810000249C1F8900110BD8C81214200802142F3
:103820002DE9FE4F06460F460025684601F0FAF9DD
:10383000002442E056F8240057F82410A0EB010AB7
:10384000BAF1000F01DB514601E0CAF10001084660
:1038500005F082FC83464FF08F4105F04BFB80461C
:103860005DF82400002105F007FC16D05DF8241057
:10387000404605F03FFB82464FF07E5105F0CAFD01
:10388000814629F0004A0F48416A504605F090FDF4
:1038900012D20120A04005430EE00A48C16940460B
:1038A00005F086FC05D30748016A404605F080FD17
:1038B00002D20120A0400543641C032CBADB284639
:1038C000BDE8FE8F1C9600082DE9F04D8D4F21F0CC
:1038D000004A86B005460C46BA452ADBAAEB07002B
:1038E00028430AD08848824501DC1AD1CDB106B000
:1038F0002846BDE8F04DFFF75FBF844A844B284659
:1039000004F084FF07460E46824A834B2846214630
:1039100004F07CFF06B03A463346BDE8F04D04F0B3
:1039200013BD0120FCF7FCFF06B0BDE8F04DFFF72A
:1039300048BF7A48824542DABAF1795F0BDA284605
:10394000FFF717FC042808BFFFF742FF284606B020
:103950002146BDE8F08D2A460B46104604F056FF7E
:10396000834602466E480E460B4606217844FFF712
:1039700057FE5A46334604F049FF804669488A4656
:103980005A46334604217844FFF74AFE5A463346E6
:1039900004F03CFF00223B4604F0D6FC02460B46F6
:1039A0004046514604F080FD2A46234604F02EFF8F
:1039B00006B02A462346BDE8F04D04F0C5BC2846B3
:1039C00024F0004100223D463B4605F01DF84FF033
:1039D000FF3205F0C8FD0646024653480F460B4627
:1039E00006217844FFF71CFE32463B4604F00EFFEA
:1039F000CDE900014D4832463B4604217844FFF7AB
:103A00000FFE32463B4604F001FF00222B4604F035
:103A10009BFC834602913046394603F037FA8046D4
:103A200043480D46504517DCDDE900015A46029B2C
:103A300004F03AFD42462B4604F0E8FE42462B468F
:103A400004F082FC012205F08EFD304A304B05F077
:103A5000CDF8304A304B4CE04FF0000A52460B464E
:103A6000404604F071FCCDE9031052462B46104647
:103A7000194604F0CBFE32463B4604F0C5FFDDE9B3
:103A8000033204F011FD06460F46DDE900015A46F7
:103A9000029B04F009FD834600910122304639461D
:103AA00005F061FD194A1A4B04F0AEFF06460F46B9
:103AB00001224046294605F056FD5A46009B04F077
:103AC000A5FE32463B4605F091F806460F46012218
:103AD0005046294605F047FD0E4DDFF858802A462E
:103AE000434604F091FF32463B4604F08DFF2A46E0
:103AF000434604F089FF002CD8BF81F0004106B096
:103B0000BDE8F08D0000F03F0000F07F075C14334B
:103B100026A6913C182D4454FB21F93F0000E03FBC
:103B2000086900001E69000092680000A868000093
:103B30003333EF3FFB21E93F2DE9F84F04460D46B3
:103B400021F0004000917349814211DC72498842A2
:103B500001DC06D12CB120462946BDE8F84FFFF71D
:103B60002BBE6E48002DCCBF6D496E49BDE8F88F65
:103B70006D49814211DD6D498142D8BF4FF0FF365A
:103B80006DDD20462946FFF7F4FA042808BFFFF749
:103B90001FFE20462946BDE8F88F6549654F25F090
:103BA0000045814233DD6449814219DD00263246F9
:103BB0004FF080432046294604F0C6FB80468A46E3
:103BC00001222046294605F0CEFC00223B4605F0A6
:103BD0000DF84246534604F067FC04460D463EE0AD
:103BE00001260022BA463B462046294604F0ACFB9B
:103BF00080460F46002253462046294604F0F6FF31
:103C000042463B4604F050FC04460D4627E04B4933
:103C100081421BDDDFF828A1022600225346204600
:103C2000294604F0F3FD00223B4604F08DFB80465C
:103C30000F46002253462046294604F0D7FF42464D
:103C40003B4604F031FC04460D4608E003262246BC
:103C50002B4600203B4904F027FC04460D46224633
:103C60002B461046194604F0D1FD8B46824602468B
:103C70000B4604F0CBFD07460246334888460B4608
:103C800006217844FFF7CCFC52465B4604F0BEFDAB
:103C900082462E488B463A46434605217844FFF734
:103CA000BFFC3A46434604F0B1FD02460B46002EE7
:103CB000504659460CDA04F047FB22462B4604F0E6
:103CC000A5FD01B022462B46BDE8F04F04F09CBE96
:103CD00004F03AFB22462B4604F098FD1C4A7A4435
:103CE00002EBC603D3E9002304F080FF22462B46F3
:103CF00004F07CFF174A7A4402EBC603D3E90023A1
:103D000004F082FE009A002AB8BF81F00041BDE8AD
:103D1000F88F0000000010440000F07F182D44547C
:103D2000FB21F93FFB21F9BF0000DC3F0000203EF2
:103D30000000F33F0000F03F0000E63F008003403A
:103D40000000F83F0000F0BFB2660000706600009F
:103D50000E660000D66500002DE9F04D9446CCF1CA
:103D6000000423F000464CEA0404524F46EAD4749F
:103D70009A46884621F00042BC4206D8454240EAB5
:103D8000050442EAD474BC4204D9BDE8F04D624651
:103D9000FFF715BDAAF14055A5F17F6555EA0C0462
:103DA0000BD0022404EAAA74434DDFF810E144EA80
:103DB000D87452EA000B04D00CE0BDE8F04DFFF7D8
:103DC000BBBE002C14BF012CBDE8F08D022C30D0FE
:103DD000032C32D056EA0C0B0AD0BE4220D1BA4294
:103DE00009D126F0804622F080423346114617E082
:103DF00000291ADB25E0DFF8C8B0FB44002C04BF23
:103E0000DBE90001BDE8F08D012C02BFDBE9000118
:103E100081F00041BDE8F08D022C0AD0032C0CD0BB
:103E2000BA4212D1B8F1000F0BDA23482549BDE898
:103E3000F08D28462449BDE8F08D28467146BDE83E
:103E4000F08D1D482149BDE8F08D921B12153C2ACA
:103E5000C4BF19481D490EDCBAF1000FBEBF12F1F4
:103E60003C0F0020014606DB624604F01DFB21F0FA
:103E70000041FFF761FE002C08BFBDE8F08D012C6A
:103E800004BF81F00041BDE8F08D114A114B022CB6
:103E900007D004F0ABFE2A46BDE8F04D0A4B04F013
:103EA000A5BE04F0A3FE2A46BDE8F04D064B04F083
:103EB000ABBD00000000F07F182D4454FB2109C069
:103EC0009A650000FB21F9BFFB210940FB21F93F66
:103ED000075C143326A6A13C10B5044601200B490B
:103EE00008600B49C1F8900104EB4401C1EBC41117
:103EF0004FF6FF7202EAC10000F060F800200349AB
:103F000008600349C1F8900110BD00008C81214276
:103F1000008021422DE9F0410446E07800F0C0061F
:103F2000E07800F03F05607800F0010098B1EF10F4
:103F30002846E91705EB5171C910A5EBC101491CD1
:103F400001F0FF080B48006820B10A4841460268AA
:103F50003846904700BF607800F0080030B105484F
:103F6000406818B1B011034A516888470020BDE885
:103F7000F08100003803002010B56FF00400FEF758
:103F8000F3FC0A4800680A49B0FBF1F009490870DF
:103F90000846007800EB4001C1EBC0104FF6FF71FE
:103FA00001EAC0000449088010BD00001400002090
:103FB00000127A00280000202A0000200146114A41
:103FC00012884A434FF0E0235A6100229A611A4650
:103FD000126942F001021A6100BF4FF0E02210693D
:103FE00000F001021AB100F48032002AF5D04FF03F
:103FF000E022126922F001024FF0E0231A61002250
:104000009A6170472A0000200146114A12784A43FB
:104010004FF0E0235A6100229A611A46126942F079
:1040200001021A6100BF4FF0E022106900F00102A6
:104030001AB100F48032002AF5D04FF0E022126964
:1040400022F001024FF0E0231A6100229A617047CA
:104050002800002038B5044664B120208DF8000007
:1040600028208DF8010030208DF8020038208DF8CE
:10407000030004E0A32204216846FCF79EFB6A4685
:10408000042140F69E2002F03DFC02F027F838BDE6
:104090003EB5044602208DF80000CA208DF80100CC
:1040A000E3208DF8020009208DF803006A46042100
:1040B000682002F027FCA3208DF8000004F04000E7
:1040C00048B1C0208DF80100C8208DF80200C22040
:1040D0008DF8030006E0A3208DF801008DF80200A2
:1040E0008DF8030004F4C07048B1C4208DF80400BA
:1040F000CC208DF80500C6208DF8060006E0A32030
:104100008DF804008DF805008DF80600A3208DF8C9
:1041100007008DF808008DF809006A460A2140F66C
:10412000A72002F0EFFB04F0030018B120208DF867
:10413000000002E0D8208DF800006A46012140F618
:10414000B62002F0DFFB04F0200018B1012000F0DF
:10415000ADF802E0002000F0A9F804F4C07008B344
:1041600004F4807060B1B2208DF800008B208DF8CF
:104170000100B6208DF802009B208DF803000BE0B3
:10418000B0208DF8000080208DF80100B4208DF85B
:10419000020090208DF803006A46042140F6A22018
:1041A00002F0B0FB04F0010020B3F8208DF800000D
:1041B0006A4601214FF40B6002F0A4FBFA210720AC
:1041C00000F02CFC072000F0F3FB012000F013FCB2
:1041D000642000F0F3FC4FF4FA7000F002FDC821F7
:1041E000304800F0A3FB282000F0BCFB0A2000F0C0
:1041F000CCFB08E0D8208DF800006A4601214FF47E
:104200000B6002F07FFB04F0020018B1D9208DF89A
:10421000000002E0D8208DF800006A46012140F23B
:104220003D7002F06FFB04F0040018B1012000F0B3
:1042300069F802E0002000F065F804F0100018B101
:104240000120FFF707FF02E00020FFF703FF44F023
:1042500008001549488101F041FF00201249887388
:1042600004F0400018B10846807B801D887304F478
:10427000C07020B10C48807B801D0B49887304F00E
:10428000140020B10848807B10300749887304F07F
:10429000030020B10448807B001D0349887300207F
:1042A0003EBD000009E3CA02380300203EB50446C3
:1042B0006CB10EA1D1E900208968CDE900200291FE
:1042C0006A4609214FF4976002F01CFB3EBD0AA22A
:1042D000D2E900109268CDE9010200916A460921F5
:1042E0004FF4976002F00EFBF0E70000B8AAB38D20
:1042F000B4980D355D000000B8AAAAAAB088C3C55D
:10430000C700000038B5044664B1C0208DF8000035
:10431000C2208DF80100C4208DF80200C6208DF85F
:10432000030004E08B2204216846FCF746FA6A4643
:10433000042140F6982002F0E5FA01F0CFFE38BDE6
:1043400010B5C8234FF48062024940F6F63001F000
:1043500059FD10BD449600082DE9F04F8DB0074679
:10436000884615469946DDE9166B0024002030800A
:104370006B49887B5A4605A901F010FE18B1601EF2
:104380000DB0BDE8F08F6648807A00F01400002878
:1043900067D09DF8140000069DF8151040EA014012
:1043A0009DF8161040EA01209DF817100843286078
:1043B0009DF8180000069DF8191040EA01409DF88C
:1043C0001A1040EA01209DF81B10084368609DF810
:1043D0001C0000069DF81D1040EA01409DF81E10CB
:1043E00040EA01209DF81F100843A8609DF82000B6
:1043F00000069DF8211040EA01409DF8221040EA95
:1044000001209DF823100843E86004F11000C4B2B5
:10441000286800140190686800140290A8680014CD
:104420000390E8680014049001984043029901FB4E
:104430000100039901FB0100049901FB010ABAF193
:10444000706F02DBBAF1885F05DD01F047FE0020E6
:104450003080401E94E7B6F9000040F48070308050
:1044600000BF2F48807A00F0400020B305A9601CEF
:10447000085C095D40EA012000B2A8F8000005A927
:10448000E01C095C05AAA01C105C41EA002000B2F7
:10449000A8F8020005A9601D095C201D105C41EA16
:1044A000002000B2A8F80400A01DC4B2B6F90000B4
:1044B00040F0080030801A48408900F4C07008B30A
:1044C00005A9601C085C095D40EA012000B2388043
:1044D00005A9E01C095C05AAA01C105C41EA0020AB
:1044E00000B2788005A9601D095C201D105C41EABE
:1044F000002000B2B880A01DC4B2B6F9000040F0A0
:10450000700030800648807A00F0030018B105A9D9
:104510000819FFF7FFFC484601F008F900202FE7D3
:104520003803002070B588B0064601A801F0BEFA35
:10453000BDF804000021C90341EA5045C4034448C2
:10454000007A00F0030056F8200005904048007AF9
:1045500000F0040010B10598404205903C48007AF4
:10456000C0F3C10056F8200006903948007A00F0E8
:10457000200010B10698404206903548007AC0F3FA
:10458000811056F8200007903148008900F48070AF
:1045900010B10798404207900598C117A0FB04236B
:1045A00001FB043100FB0510810041EA9270059087
:1045B0000698C117A0FB042301FB043100FB051082
:1045C000810041EA927006900798C117A0FB04236E
:1045D00001FB043100FB0510810041EA9270079055
:1045E0000598000E8DF808000598000C8DF809005C
:1045F0000598000A8DF80A000598C0B28DF80B00E6
:104600000698000E8DF80C000698000C8DF80D0031
:104610000698000A8DF80E000698C0B28DF80F00BB
:104620000798000E8DF810000798000C8DF8110007
:104630000798000A8DF812000798C0B28DF8130091
:1046400002AA0C214FF4257002F05CF908B070BD8D
:104650003803002030B585B0044616A207CA02AB65
:1046600007C3C82C03DD4FF0FF3005B030BDC820B4
:1046700090FBF4F0401E85B2280A8DF80000E8B2E5
:104680008DF801006A46022140F2162002F03AF944
:1046900010B14FF0FF30E8E702AA0C2140F6C1202C
:1046A00002F030F910B14FF0FF30DEE704488481AA
:1046B0000020DAE7FEF2ABC4AAF1DFDFBBAFDFDF39
:1046C000380300201FB504464848007A00F0030074
:1046D00054F8200001904548007A00F0040010B121
:1046E0000198404201904148007AC0F3C10054F85B
:1046F000200002903D48007A00F0200010B102989E
:10470000404202903948007AC0F3811054F82000EA
:1047100003903648008900F4807010B1039840423D
:1047200003903349019880FB0101800F40EA81002A
:1047300001902F49029880FB0110820042EA91709B
:1047400002902B49039880FB0110820042EA91708D
:1047500003900198000E8DF800000198000C8DF870
:1047600001000198000A8DF802000198C0B28DF88E
:1047700003006A4604214FF4747002F0C3F818B1C4
:104780004FF0FF3004B010BD0298000E8DF800000D
:104790000298000C8DF801000298000A8DF80200C2
:1047A0000298C0B28DF803006A4604214FF4757078
:1047B00002F0A8F810B14FF0FF30E3E70398000EC5
:1047C0008DF800000398000C8DF801000398000A92
:1047D0008DF802000398C0B28DF803006A460421E8
:1047E0004FF4767002F08EF8CCE70000380300201A
:1047F00009E3CA0210B586B0044647A000680390DA
:1048000046A00068029046A00068019045A000689C
:10481000009004F0030003A9085C8DF8140003A8BD
:10482000C4F3C101405C8DF8150003A8C4F38111E5
:10483000405C8DF8160004F0030002A9085C8DF8B6
:10484000100002A8C4F3C101405C8DF8110002A859
:10485000C4F38111405C8DF8120005AA032140F2D7
:10486000264002F04FF818B14FF0FF3006B010BDEF
:1048700004AA032140F22A4002F044F810B14FF09C
:10488000FF30F3E7019805900098049004F00400CD
:1048900058B19DF8140040F001008DF814009DF807
:1048A000100040F001008DF8100004F0200058B115
:1048B0009DF8150040F001008DF815009DF81100DD
:1048C00040F001008DF8110004F4807058B19DF89B
:1048D000160040F001008DF816009DF8120040F01F
:1048E00001008DF8120005AA03214FF4886002F040
:1048F00009F810B14FF0FF30B8E704AA032140F2E5
:10490000314001F0FFFF10B14FF0FF30AEE7064835
:1049100004810020AAE700004CCD6C000CC92C00DB
:10492000365676002646660038030020F8B5054660
:104930000E464FF47A7095FBF0F000FB06F4200E63
:104940008DF80000200C8DF80100200A8DF802007F
:10495000E0B28DF803006A4604214FF4AE7001F016
:10496000D1FFF8BD38B50446052094FBF0F084B2C1
:1049700020128DF80000E0B28DF801006A46022195
:104980004FF4AD7001F0BEFF38BD38B504460520C8
:1049900094FBF0F084B220128DF80000E0B28DF8A4
:1049A00001006A4602214FF4AC7001F0ABFF38BD44
:1049B00038B504460020009004F0010020B19DF8B5
:1049C000000040F03000009004F0020020B19DF89B
:1049D000000040F00C00009004F0040020B19DF8AD
:1049E000000040F0030000906A4601214FF4A470DB
:1049F00001F088FF38BD38B50446012C01DA0124E6
:104A000002E0042C00DD0424601EC0B200906A465F
:104A1000012140F24F1001F075FF38BD2DE9FC4730
:104A200006460F4606F0070010B1B7F5C86F03DD64
:104A30004FF0FF30BDE8FC87384604F0A5FB814607
:104A4000594904F057FA8046684601F009F89DF884
:104A50000000022806D0042816D0082826D01028E6
:104A600048D135E04FF08D41404604F0D5FB8146FA
:104A700004F052FB84B24D49404604F0CDFB814620
:104A800004F04AFB85B238E04FF08C41404604F018
:104A9000C3FB814604F040FB84B24549404604F024
:104AA000BBFB814604F038FB85B226E04FF08B411A
:104AB000404604F0B1FB814604F02EFB84B23D4930
:104AC000404604F0A9FB814604F026FB85B214E0C1
:104AD0004FF08A41404604F09FFB814604F01CFBE6
:104AE00084B23549404604F097FB814604F014FB3C
:104AF00085B202E04FF0FF309CE700BF20128DF836
:104B00000400E0B28DF8050028128DF80600E8B226
:104B10008DF8070006F00100A0B101AA02214FF4B0
:104B2000EA7001F0EFFE10B14FF0FF3082E70DF1B7
:104B3000060202214FF4927001F0E4FE10B14FF032
:104B4000FF3077E706F00200A0B101AA02214FF47E
:104B5000EC7001F0D7FE10B14FF0FF306AE70DF1B5
:104B6000060202214FF4947001F0CCFE10B14FF018
:104B7000FF305FE706F00400A0B101AA02214FF464
:104B8000EE7001F0BFFE10B14FF0FF3052E70DF1B3
:104B9000060202214FF4967001F0B4FE10B14FF0FE
:104BA000FF3047E7002045E700004843000040464B
:104BB0000000C045000040450000C04438B5044630
:104BC000052094FBF0F085B228128DF80000E8B2C1
:104BD0008DF801006A4602214FF4EF7001F092FE59
:104BE00038BD38B50446052094FBF0F085B2281294
:104BF0008DF80000E8B28DF801006A4602214FF4FA
:104C0000ED7001F07FFE38BD00BF054A128802F04A
:104C10004002002AF9D0C2B2014B1B1D1A80704716
:104C2000003801407CB5054628494968087801AB41
:104C300004220D21FDF74BFC08B107207CBD9DF837
:104C40000700C0F301109DF8041001F0E00140EAF4
:104C5000E1008DF800009DF80700C0F381009DF889
:104C6000051001F0E00140EAE1008DF801009DF837
:104C7000070000F003009DF8061001F0E00140EA93
:104C8000E1008DF8020000241CE01DF8040018B9B2
:104C9000002045F8240013E00D4845F8240006E004
:104CA00055F824000B4904F0B7FA45F824001DF824
:104CB0000400401EC0B20DF804000028F0D100BF6F
:104CC000601CC4B2032CE0DB0020B7E764000020C6
:104CD0007B14AE3E1D5A843F2DE9F04F87B0054648
:104CE0000C46914601208DF8100000208DF811002F
:104CF000FE4A1268917CFD4A5268107804AB022289
:104D0000FDF78BFC20B14FF0FF3007B0BDE8F08F0E
:104D1000C820FFF753F900208DF81000F34A1268FD
:104D2000D17BF24A5268107804AB0122FDF775FC82
:104D300010B14FF0FF30E8E7EC4A12685179EB4AC6
:104D40005268107804AB0122FDF767FC10B14FF0F8
:104D5000FF30DAE7E54A1268917CE44A526810783D
:104D600004AB0122FDF759FC10B14FF0FF30CCE746
:104D7000DE4A1268D17DDD4A5268107804AB012208
:104D8000FDF74BFC10B14FF0FF30BEE7D74A126879
:104D90001179D64A5268107804AB0122FDF73DFC28
:104DA00010B14FF0FF30B0E70C208DF81000CF4A63
:104DB00012681179CD4A5268107804AB0122FDF7D0
:104DC0002CFC10B14FF0FF309FE70F20FFF7F6F8F3
:104DD000C648806A407A8DF81000C44A12689178FB
:104DE000C24A5268107804AB0122FDF716FC10B1DC
:104DF0004FF0FF3089E7BD48806A007A8DF81000D7
:104E0000BA4A12685178B94A5268107804AB012244
:104E1000FDF703FC10B14FF0FF3076E7B9F1000F5A
:104E200007D0B248806A807A40F0E0008DF8100028
:104E300004E0AE48806A807A8DF81000AB4A1268B0
:104E40009179AA4A5268107804AB0122FDF7E5FB7C
:104E500010B14FF0FF3058E7B9F1000F07D0A34869
:104E6000806AC07A40F0E0008DF8100003E0A048AE
:104E7000C07A8DF810009D4A1268D1799B4A526819
:104E8000107804AB0122FDF7C8FB10B14FF0FF30E2
:104E90003BE7B9F1000F02D0C820FFF78FF84020A0
:104EA0008DF81000914A12681179904A5268107872
:104EB00004AB0122FDF7B1FB10B14FF0FF3024E746
:104EC00078208DF81000894A12685179874A526813
:104ED000107804AB0122FDF7A0FB10B14FF0FF30BA
:104EE00013E783498889FFF769F800208DF81000DF
:104EF0007E4A126851797D4A5268107804AB0122CB
:104F0000FDF78BFB10B14FF0FF30FEE6774A1268D9
:104F1000917A764A5268107804AB0222FDF7D7FAEC
:104F200010B14FF0FF30F0E69DF811009DF8101021
:104F300040EA012B0C209BFBF0F0C6B20020A860D9
:104F400068602860A06060602060824665E0674A13
:104F50001268D17A654A5268107804AB0C22FDF7CA
:104F6000B6FA10B14FF0FF30CFE69DF811009DF872
:104F7000101040EA012000B2ADF808009DF81300BF
:104F80009DF8121040EA012000B2ADF80A009DF829
:104F900015009DF8141040EA012000B2ADF80C0095
:104FA000BDF90810206808442060BDF90A10606847
:104FB00008446060BDF90C10A0680844A0609DF82A
:104FC00017009DF8161040EA012000B2ADF800006D
:104FD0009DF819009DF8181040EA012000B2ADF8C4
:104FE00002009DF81B009DF81A1040EA012000B253
:104FF000ADF80400BDF90010286808442860BDF928
:105000000210686808446860BDF90410A868084484
:10501000A8600AF1010000F0FF0AB24597DB3448AE
:10502000D0F800C02868C117090441EA10410704FC
:10503000624600233846FBF73EF932460023CDE9AD
:105040000201FBF738F928602948D0F800C06868E9
:10505000C117090441EA104107046246002338469B
:10506000FBF729F932460023CDE90201FBF723F9CA
:1050700068601F48D0F800C0A868C117090441EA59
:1050800010410704624600233846FBF714F9324604
:105090000023CDE90201FBF70EF9A8601448D0F80F
:1050A00004C02168C817000440EA11480F04624692
:1050B000002338464146FBF7FEF832460023CDE98F
:1050C0000201FBF7F8F820600948D0F804C06068D6
:1050D000C117090441EA104107046246002338461B
:1050E000FBF7E9F83246002304E0000064000020EA
:1050F0001C960008CDE90201FBF7DDF8606011485D
:10510000D0F804C0A068C117090441EA104107049F
:10511000624600233846FBF7CEF832460023CDE93D
:105120000201FBF7C8F8A060A068002804DDA068B1
:10513000A0F58030A06003E0A06800F58030A0609A
:105140000020E2E51C9600082DE9F843814600277F
:105150002BA02E490860142001F022FC04464FF4D5
:10516000967001F01DFC0546322001F019FC064640
:1051700004B90A2705B90A27244880690090234802
:10518000031D23A102683046FBF7D8F83046FBF731
:10519000C3FA00F102083346424622492846FBF78B
:1051A000CDF82846FBF7B8FA804642461EA12046B5
:1051B000FBF7C4F8642220A124A001F0B7FD28B1B8
:1051C0004FF4967225A126A001F0B0FD64222EA115
:1051D000204601F0ABFD4FF496722CA1284601F059
:1051E000A5FD01F0C9FC204601F0CCFB284601F0EA
:1051F000C9FB3220FEF7E2FE3846BDE8F883000026
:105200005368756950696E67000000001402002041
:105210007B222573223A7B222573223A25647D7DE9
:105220000000000094A6000841542B434950534508
:105230004E443D256400000053544154453A2043F8
:105240004F4E4E454354204F4B00000041542B43DA
:105250004950535441545553000000004F4B000037
:1052600041542B43495053544152543D22544350CE
:10527000222C226170692E6865636C6F7564732ED1
:10528000636F6D222C3830003E00000053454E44C1
:10529000204F4B002DE9FC5F06460F4600253D4997
:1052A0004968087801AB03220D21FDF710F910B110
:1052B0000720BDE8FC9F9DF8040000F01F008DF85A
:1052C00004009DF8050000F01F008DF805009DF812
:1052D000060000F01F008DF80600002456E056F886
:1052E000240057F82410A0EB010BBBF1000F01DBE9
:1052F000594601E0CBF10001084603F02DFF4FF0C5
:105300008F41009003F0F6FD814601A8005D68B36F
:105310002149086803F038FF834659461F4803F0C7
:10532000E9FD804604E01E49404603F075FF8046D3
:1053300001A8005D401EC0B201A908550028F2D1A5
:105340004146484603F0D6FD83464FF07E5104F0B7
:1053500061F882462AF0004B0F488169584604F0F4
:1053600027F812D20120A04005430EE00A48016947
:10537000484603F01DFF05D307484169484604F03D
:1053800017F802D20120A0400543641C032CA6DBC1
:1053900028468EE7640000201C96000800B04C45AB
:1053A00054E3853F10B50446204600F00FF803464D
:1053B000E01C00F00BF843EAC00083B2A01D00F02F
:1053C00005F843EA801083B2184610BD014691F9F2
:1053D0000020002A01DD00201EE091F90020002AB3
:1053E00001DA042018E091F90120002A01DD0120F2
:1053F00012E091F90120002A01DA05200CE091F970
:105400000220002A01DD022006E091F90220002A94
:1054100001DA062000E007207047000086B0012076
:10542000059000BF00BF5FA05F4908600120886150
:10543000FEF7A2FD4FF4165001F0B4FDFCF7D8FEC4
:105440005A4841684820884700F006F94FF4A060A8
:10545000FDF74EF9FCF794FF00BF00F0B3FA002807
:10546000FBD14FF41650FDF7DDFC51A0FAF75AFFBF
:1054700096E0FCF751FF51490860514A51495248A2
:10548000FCF7FAFE514A52495248FCF71DFF524AB6
:105490005249534800F084F90598B0B351494E4839
:1054A000006803F0B9FE814603F01AFE04B24E49CB
:1054B0004B48006803F0B0FE814603F011FE05B2D0
:1054C00049494648006803F0A7FE814603F008FEFC
:1054D00006B24648006803F003FE07B23E48006883
:1054E00003F0FEFD0FFA80F84148CDE90087CDE9D1
:1054F00002650494B0F900100FFA8AF30FFA8BF2E8
:105500002F48B0F9000001F0D8FD01F0B1FA10B158
:105510000120059001E00020059032492F480068E5
:1055200003F07AFE049003F04BFC804601F05EFC31
:10553000064600222F4B03F069F9044603F00CF9EC
:1055400083462A4801682448006803F063FF0490FA
:1055500003F036FC80460022274B03F057F906463D
:105560000022264B02F0A0FF044603F0F5F8824625
:10557000194800681D49086000BF00BF0A20FFF7F6
:10558000E3FD1F480068C0431E49C1F8B4011E2056
:10559000FEF714FD00201C4908601C49C1F8900169
:1055A00067E7000031383800140200200C010020A9
:1055B000496E6974205265616479210050000020B1
:1055C0003800002036000020340000204C0000206D
:1055D0004A000020480000205C0000205800002005
:1055E00054000020000020410000C842600000205C
:1055F00024030020003096400000F03F0070A740D8
:10560000B4012242000022428C81214200802142CA
:1056100070B505460F48007C20B90E4908688047E0
:10562000012070BDB5F5205F11D269090948C06835
:1056300030F81120002406E00020064BDB680E192C
:1056400023F81600641C9442F6DB0020E9E70220F0
:10565000E7E700000002002000B509494FF420727E
:10566000C868002101F0ACF905494FF42052886860
:10567000002101F0A5F901200149087400BD0000D6
:10568000000200202DE9F04106460024A0461A48F9
:10569000007C10B91849086880471EB94FF0FF30E8
:1056A000BDE8F081C6F34F1506F01F0008B1681C75
:1056B00085B240F23F141AE00F48C06830F8140079
:1056C00020B908F101001FFA80F801E04FF000084E
:1056D000A8450BD1002705E00748C068E11920F86C
:1056E00011507F1CAF42F7D36001D9E7641E002C34
:1056F000E2DA4FF0FF30D3E7000200200022002161
:1057000006E00948C06830F8110000B1521C491C7D
:10571000B1F5A07FF5D3642050434FF4A073B0FBE4
:10572000F3F0C0B270470000000200207047000094
:1057300070B50446002624F00104184890F82400AF
:1057400008B1002070BD1548807A10B94FF0FF30C5
:10575000F8E71248057C807A204010490874084612
:10576000007CA04202D04FF0FF3600E0002614B9C2
:105770000A48007D18B1012001F08AF902E00020FA
:1057800001F086F93CB100F0A9FC20B10348057492
:105790004FF0FF30D6E73046D4E700006400002029
:1057A0002DE9F04F99B004460D4616464FF07E574E
:1057B0004FF000084FF000094FF0000A12A813A99B
:1057C00018AB0EAACDE9001014A916A8FEF7C4FD67
:1057D00018B1012019B0BDE8F08FBDF84C0000F4FD
:1057E000807000287ED00E9803F0B6FC83464FF000
:1057F0009D4103F07FFB07460F9803F0ADFC834605
:105800004FF09D4103F076FB8046109803F0A4FC16
:1058100083464FF09D4103F06DFB8146119803F0E4
:105820009BFC83464FF09D4103F064FB8246394662
:105830004FF0804003F0F0FC4946059003F0ECFC8B
:10584000414607904FF0404003F0E6FC514605907A
:1058500003F0E2FC0690079903F0DEFA834603F0BA
:10586000AFFACDE90801FEF72FF84FF06632544B3E
:10587000CDE90A0102F0CAFFCDE90C0102F032FDC8
:10588000206049464FF0804003F0C6FC4946029034
:1058900003F0C2FC414604904FF0404003F0BCFCD2
:1058A0004146029003F0B8FC0390049903F0B2FD66
:1058B00083464FF07E5103F0AFFA059003F080FA73
:1058C000CDE9080139464FF0804003F0A5FC414680
:1058D000039003F0A1FC494604904FF0804003F090
:1058E0009BFC00E068E05146039003F095FC834682
:1058F000049903F091FA059003F062FACDE90601EC
:10590000DDE90823FEF728FA4FF066322C4BCDE98B
:105910000A0102F07BFFCDE90C0102F0E3FC2860F4
:105920005146504603F078FC49460490484603F03F
:1059300073FC41460390404603F06EFC39460190EB
:10594000384603F069FC0090019903F065FA029073
:10595000039903F05FFD8346049903F05BFD059016
:1059600003F02EFACDE908015146384603F054FC05
:1059700049460490404603F04FFC0390049903F01D
:105980004BFA4FF08041059003F046FC834603F04C
:1059900017FACDE90601DDE90823FEF7DDF94FF03E
:1059A0006632074BCDE90A0102F030FFCDE90C0168
:1059B00002F098FC306001E002200BE7002009E7CC
:1059C00066A64C4070B50024FCF7E0FA00F022F91E
:1059D000002840D1782000F02DFFC4B20CB1012086
:1059E00070BD7820FFF7A4FEC4B20CB10220F7E727
:1059F000642000F0D1FEC4B20CB10320F0E7FEF742
:105A00009FFCC4B20CB10420EAE71448FFF7CAFCBB
:105A10000546FEF7EFFEC4B20CB10520E0E740F208
:105A20007310FEF735FBC4B20CB10620D8E7642032
:105A3000FEF710FEC4B20CB10720D1E700F0CDFF95
:105A400004460CB10820CBE7012000F0A1FDC4B250
:105A50000CB10920C4E70020C2E70000900000203C
:105A600001461148407A30B1012807D0022808D0F9
:105A700003280CD108E0022008700BE00420087015
:105A800008E00820087005E01020087002E04FF0E0
:105A9000FF30704700BF0448C07C18B1087840064A
:105AA000000E08700020F4E764000020014613484F
:105AB000407A30B1012808D002280AD0032810D13A
:105AC0000BE04FF4804008800EE041F69C700880A7
:105AD0000AE04FF48050088006E04FF40060088030
