:020000040800F2
:10000000503B002075020008691C0008FD1B000819
:10001000651C0008A71800083B2700080000000026
:10002000000000000000000000000000691E000841
:10003000511A000800000000F11C00087D1F000894
:100040008F0200088F0200088F0200088F0200084C
:100050008F0200088F0200088F0200088F0200083C
:100060008F0200088F0200088F0200088F0200082C
:100070008F0200088F0200088F0200088F0200081C
:100080008F0200088F0200088F0200088F0200080C
:100090008F0200088F0200088F0200088F020008FC
:1000A0008F020008592000088F020008E11F000895
:1000B000692000088F020008A12000088F020008B4
:1000C0008F0200088F0200088F0200088F020008CC
:1000D0008F02000825230008AD2300088F020008C6
:1000E0008F0200088F0200088F02000800F002F85B
:1000F00000F0B0F80AA090E8000C82448344AAF112
:100100000107DA4501D100F0A5F8AFF2090EBAE80F
:100110000F0013F0010F18BFFB1A43F0010318473B
:10012000FC3F00001C4000000A444FF0000C10F897
:10013000013B13F0070408BF10F8014B1D1108BF65
:1001400010F8015B641E05D010F8016B641E01F805
:10015000016BF9D113F0080F1EBF10F8014BAD1C55
:100160000C1B09D16D1E58BF01F801CBFAD505E073
:1001700014F8016B01F8016B6D1EF9D59142D6D3CD
:10018000704700000023002400250026103A28BFF5
:1001900078C1FBD8520728BF30C148BF0B607047F9
:1001A0006E2900F0E182702900F06F81662903F06A
:1001B0007586652903F07286672903F06F866129C9
:1001C000AFF3008003681B0A28BF41F08001692952
:1001D00000F0E080642900F0DD80752900F0DA800D
:1001E0006F2900F0D983782900F03B81E92900F0DC
:1001F0007383E42900F07083F52900F06D83EF2903
:1002000000F0D683F82900F03A810368DB0928BFA3
:1002100041F08001632900F0E282732900F0E78257
:10022000E32900F02B86F32900F030860020704788
:100230001FB500F085FE04000020002103F018FE29
:10024000401C60600020002103F0FCFDE0601FBD49
:1002500010B510BD00F046FE1146FFF7E9FF02F0B1
:10026000AFFB00F01FFF03B4FFF7F2FF03BC02F087
:1002700081FA00000948804709480047FEE7FEE789
:10028000FEE7FEE7FEE7FEE7FEE7FEE7FEE7FEE746
:1002900004480549054A064B70470000811F0008C5
:1002A000ED00000850350020503B00205037002062
:1002B00050370020704700001CB50C46064B7B44AD
:1002C00069460090204600F068FA0446002069461E
:1002D00000F076FA20461CBDFF0400000FB404496C
:1002E00010B503AA029800F087FA10BC5DF814FB61
:1002F0002C00002070B5044685690068C10601D550
:10030000302600E02026C00707D070BDD4E90121C7
:1003100030469047206A401C20626D1EF6D570BDA5
:1003200070B5044685690078C00707D170BDD4E96F
:10033000012120209047206A401C20626D1EF6D5C6
:1003400070BD70B50C460546012A05D02878800698
:1003500000D5EA69002302E0012305E05B1C93421B
:1003600002D2E05C0028F9D1A869E618C01AA86199
:10037000286A184428622846FFF7BCFF04E0D5E944
:10038000012114F8010B9047B442F8D32846FFF737
:10039000C7FF70BD2DE9F04106460024106875299D
:1003A000314616A510D000F074F9002802DA404258
:1003B00013A507E031688A0701D512A502E04907B5
:1003C00004D511A5012401E000F06CF900210A22F6
:1003D00006F1240709E0B0FBF2FCB0FBF2F302FBEC
:1003E0001C00303078541846491C0028F3D12346AD
:1003F0002A463046BDE8F04100F05DB9000000003B
:100400002D0000002B00000020000000F0B40D467D
:100410000188090502D5214C7C4402E01F4C7C4434
:100420000E34002100F1240608E002F00F07120943
:10043000E75D42EA03721B097754491C52EA03073D
:10044000F3D102780023120704D5702D06D009B12C
:10045000022311342246F0BC00F02DB901231034E0
:10046000F8E770B504460D462146106800F01AF909
:10047000024629462046BDE870400023C6E7D21D4B
:1004800022F00703D3E90023C0E70368126843F0B2
:10049000200303600823C3610023B7E7843A000008
:1004A0002DE9F05F894604464FF0000ADFF874B189
:1004B000FB44C0F820A02046E1688847002874D09B
:1004C000252806D0D4E901219047206A401C2062EB
:1004D000F1E700265F462046E16888472028054668
:1004E00007DB312D05D2781910F8200C08B106432E
:1004F000F1E7B00701D526F00406C4F81CA00027D8
:10050000C4F818A02A2D09D0284602F02CF938B3D7
:1005100004EB8708303DC8F8185019E059F8041B5F
:10052000204604EB87029161E1688847012F054668
:1005300018D1E069002820DA26F020061DE0D8F85E
:10054000180000EB800005EB40003038C8F81800B8
:100550002046E1688847054602F005F90028EED1FB
:10056000012F0AD02E2D08D12046E16888477F1C34
:100570000546022F46F02006C4DBA069002803DAF6
:10058000404246F00106A061F00701D026F01006B7
:100590006C2D0BD0682D09D04C2D39D06A2D35D05B
:1005A000742D35D07A2D33D016E038E0E1682F462F
:1005B00020468847B842054609D16C2F26D04FF413
:1005C0008060E168064320468847054604E06C2FBA
:1005D0001AD04FF4807006430DB3A5F141001928DD
:1005E00002D8203546F400664A4629462046266051
:1005F0004E46FFF7D5FD80B101280BD0F61D26F041
:10060000070000F1080956E74020E4E78020D8E71A
:100610000020D6E706F104094DE7284652E7206A94
:10062000BDE8F09F143A000030B505460B462A4657
:1006300013F8014B12F8010B08B1A042F8D01CB11D
:10064000002802D06D1CF1E7284630BD10B5431CD0
:1006500002E010F8011B71B18107FAD14FF00132AD
:1006600002C88C1A8C4314EAC211F9D0C01A0A06C7
:1006700003D0C01E10BDC01A10BD0A0401D0801ED8
:1006800010BD0902FCD0401E10BD70477047704776
:10069000704709684A0501D540B27047C905FCD5C5
:1006A00000B2704709684A0501D5C0B27047C90554
:1006B000FCD580B270472DE9F0470D469946924629
:1006C000044600F124080168880604D5E06921F099
:1006D0001001216000E00120A84201DD471B00E07D
:1006E0000027A1697A1902EB0900081AA061207895
:1006F000C00602D42046FFF7FDFD002608E0D4E93D
:1007000001211AF806009047206A401C761C2062DE
:100710004E45F4DB2078C0060AD52046FFF7EAFDF7
:1007200006E0D4E9012130209047206A401C206275
:10073000381EA7F10107F4DC07E0D4E9012118F81D
:1007400005009047206A401C2062281EA5F1010583
:10075000F3DC2046FFF7E4FD2078000602D50220F6
:10076000BDE8F0870120FBE711680268006A5305C5
:1007700001D508700AE0D30501D5088006E013060C
:1007800003D5C217C1E9000200E0086001207047EC
:1007900001694A1C02610878704700B58FB0CDE945
:1007A00001310021059105497944CDE90310114635
:1007B0006846FFF775FE0FB000BD0000E5FFFFFFC4
:1007C0000A6802F8010B0A60704710B5436913B15B
:1007D000AFF3008001E0FFF7B4FD012010BD1278F7
:1007E00000F124010A7000224A700122EDE711682D
:1007F0004FF0FF32E9E70000074B70B50D467B4430
:10080000FFF7CBFF0446284600F044FB10B14FF041
:10081000FF3070BD204670BDF72000002DE9FF5F5E
:1008200015468A460446DFF8AC80F8440027D8E92C
:1008300000103E46CDE9001010E03AF816106A4666
:1008400002A800F02BFB411C07D02178890603D5B4
:10085000E269391891420DD80744761C2078800649
:1008600002D5E069B84205DDAE42E6DB3AF8160093
:100870000028E2D1A069C01BA0612046FFF73AFD25
:10088000D8E90010CDE90010002017E03AF8181060
:100890006A4602A800F002FBB0F1FF3F81460BD090
:1008A00000250DF1080B05E0D4E901211BF8050036
:1008B00090476D1C4D45F7D308F10100B0428046CA
:1008C000E4DB206A384420622046FFF729FDBDE8BA
:1008D000FF9F0000AE3600002DE9F0418046D21D9A
:1008E00022F007020025D2E90002F52915A614D04E
:1008F000011E72F1000106DA0023D0EB030063EB66
:10090000020211A608E0D8F800108B0701D50FA647
:1009100002E0490701D50EA601251146002408F181
:10092000240704E000F04EF830323A55641C50EAD7
:100930000102F7D12B46324621464046BDE8F04140
:10094000FFF7B9BE000000002D0000002B000000E2
:100950002000000030B4002100F1240408E002F07F
:100960000705D208303542EA4372DB086554491C5A
:1009700052EA0305F3D10468002310A2250708D525
:1009800004F020040C4304D0C46901230CA2641EAB
:10099000C46130BCFFF78FBE10B504462146106815
:1009A000FFF780FE02462046BDE810400023D1E755
:1009B000D21D22F00701D1E90023CBE7000000009F
:1009C0003000000030B5B0F10A024FEA900E71F12C
:1009D00000034EEA817EB0EB0E0061EB91014FEA1D
:1009E000101E4EEA017E10EB0E0041EB11114FEA92
:1009F000102E4EEA016E10EB0E0041EB11214FEA72
:100A0000104E4EEA014E10EB0E0041EB1141401822
:100A100041F100014FEAD00040EA41704FEAD101B4
:100A200010EB80054FEA810444EA907444EB010422
:100A30006D1944EB0404521BA3414FF0000348BF5F
:100A40000A3200D530BD401C41F1000130BD704775
:100A50002DE9FF4F0C461E464FF0FF378BB0D2E911
:100A60000001DDF860800A908A46C1F30A5505B995
:100A70003D46002108464FF00000BAF1000F00F497
:100A8000400005DA00EB80004FF4400101EA50001D
:100A90004FEA9059B9F1010F00DDB9460A9850EAC2
:100AA0004A000ED044F61050A5F2FF3545432F14EE
:100AB000B8F1000F1ED07542291E1EDDC9F10002DB
:100AC0001CE0B8F1010F4FF0000001D0302103E02D
:100AD000F24305E02154401CB042FBDB30460022CB
:100AE000002121540B99C1F80880C1E900200FB002
:100AF000BDE8F08FBD1B6D1CDEE74A4600DA694297
:100B000006A800F061FA06AB93E8070003AB83E8A0
:100B1000070050460A9900F00BFB8DE80700A0F58E
:100B200000501F3800900398002D09DD42F21F018C
:100B30004A46084403A90390684600F06AFD08E0AD
:100B4000A0F500504A461F3803A90390684600F0FC
:100B500074FD8DE807000004000C03D04FF0FF3057
:100B6000410800E01046B8F1000F03D000220092C7
:100B700015461EE0751E05D4FFF724FF303262557E
:100B80006D1EF9D5B3460122084302D000227F1C16
:100B900004E02078302801D100227F1E002A099726
:100BA00086D01DE0112D07DAFFF70CFF30326255B9
:100BB0006D1C50EA0102F5D1084302D00098C8B17B
:100BC0000EE00021681E05E0235C625C6354225441
:100BD000401E491C8142F7DBAB46A81B401E099012
:100BE000002004F80B000B98099AC0F80880C0E9AF
:100BF000002B7CE711264FF0000859E72DE9F04F54
:100C000088460446D21D22F0070191B0D1E90001C7
:100C1000CDE90A0101F093FD02460B98C00F01D007
:100C20002D2007E02068810701D52B2002E020213C
:100C300001EAC000032A099001D0072A05DB034618
:100C40004146204600F080F90BE12078800601D56E
:100C5000E06900E00620B8F1650F814606D0B8F1E2
:100C6000660F18D0B8F1670F70D131E00020B9F1EC
:100C7000110F009001DB112301E009F101030AAA21
:100C800001A90CA8FFF7E4FEDDE90C70002609F1CC
:100C90000105834647E001204B4600904FF0004796
:100CA0000AAA01A90CA8FFF7D3FEDDE90DB00C9943
:100CB0005D46002610B909F101000D18B9EB0500D9
:100CC00003D4C0F1FF3609F10105A5EB09002BE0C3
:100CD000B9F1010F01DA4FF001090020B9F1110F4C
:100CE0000090484601DD112300E003460AAA01A94D
:100CF0000CA8FFF7ADFEDDE90C704D4600268346DB
:100D0000207800070AD4AB4500DA5D4601A8012D22
:100D100004DD411911F8011C302907D04F4502DAD2
:100D200017F1040F04DA012082460FE06D1EEEE792
:100D3000002F02DCED1B3E4403E0781CA84200DDDE
:100D40007D1CB81B00F1010A4FF000472078000716
:100D500003D4AA4501DB4FF0FF3A0021B7F1004F61
:100D60000DF143088DF8431024D002202B23002FCF
:100D700001DA7F422D230A21021EA0F1010000DCCE
:100D80005FB197FBF1FC97FBF1F201FB1C7C17466E
:100D90000CF1300C08F801CDEEE7A8F1010003706A
:100DA0002188090501D5452100E06521A0F1010850
:100DB00000F8011C09980FA9A1EB0807FF1D00B15D
:100DC0000120411901EBEA70A1693844081A401E5C
:100DD000A0612078C00602D42046FFF78BFA09985C
:100DE00028B1D4E901219047206A401C2062207874
:100DF000C00622D52046FFF77DFA1EE0002E04DB58
:100E0000B34502DD01A8805D00E03020D4E9012176
:100E10009047206A401C2062761CAAF101005FEA1C
:100E2000000A0AD100F08CF8C0680168405CD4E97F
:100E300001219047206A401C2062281EA5F101056F
:100E4000DCDC07E0D4E9012118F8010B9047206AA7
:100E5000401C2062381EA7F10107F3DC2046FFF793
:100E60005FFA032011B043E610B5436913B1AFF345
:100E7000008001E0FFF7D2FC012010BD128800F1D4
:100E8000240182840022C2840122EDE711684FF020
:100E9000FF32E9E7007B00F08000704770B516462E
:100EA0000C46054600F044F8036893F80101012858
:100EB00006D0FF2C0FD8185D68B101202C7070BDD2
:100EC000D3F807013246214603F2071303442846AC
:100ED000BDE8704018474FF0FF3070BD00487047C4
:100EE000F03400207546FFF7F9FFAE46050069466D
:100EF000534620F00700854618B020B5FFF7C8F923
:100F0000BDE820404FF000064FF000074FF000080A
:100F10004FF0000B21F00701AC46ACE8C009ACE88B
:100F2000C009ACE8C009ACE8C0098D4670470000B4
:100F300010B500F005F8001D10BD00BF352F0000F2
:100F400000487047103500202DE9F0411F46044647
:100F500003260168072A01F4006004DB08B116A526
:100F600005E016A503E008B115A500E015A521F0E0
:100F700010002060A069C01EA0610FB1401EA061DA
:100F80002046FFF7B7F94FB1D4E901213846904721
:100F9000206A401C2062C01C206206E0206AFAE73A
:100FA000D4E9012115F8010B9047761EF8D22046AE
:100FB000FFF7B6F9BDE8F0814E414E006E616E005C
:100FC000494E4600696E66002DE9F0478146164697
:100FD0008AB0334878440DC88DE80D003048784415
:100FE000801C03AC0DC884E80D0041F69B3008441A
:100FF000372190FBF1F290FBF1F5A5F1800501FBA3
:1010000012041B3C02D56442012000E00020DFF8FE
:1010100090A080460027FA44AAF1BE0A0DE0E0073E
:1010200009D03246684607EB47010AEB810100F020
:1010300004FB8DE8070064107F1C002CEFD1184FD3
:101040007F44AC3F18E0E80714D007EB04100DF123
:10105000180A90E80E008AE80E00C068F04201D13C
:1010600098190890324606A903A800F0E6FA03ABE7
:1010700083E807006D10641C002DE4D132466946F8
:10108000B8F1000F03A802D000F0C3FA01E000F0AD
:10109000D4FAC9E90001C9F808200AB0BDE8F08710
:1010A000882F00000446AFF300802046FFF7DBF8EE
:1010B0004FF0013C50F8042B51F8043B9A4221D1E7
:1010C000A2EB0C03934313EACC1317D150F8042B73
:1010D00051F8043B9A4215D1A2EB0C03934313EA57
:1010E000CC130BD150F8042B51F8043B9A4209D190
:1010F000A2EB0C03934313EACC13DBD04FF00000B8
:10110000704700BFD01A01BAB1FA81F101F018019D
:1011100022FA01F0CB40C1F12001DBB2C0B2C01A0B
:101120002CFA01F3D11A914311EAC311E6D17047A9
:101130005FEA400C08BF91F0000F4FEA8C234FEAA2
:10114000C12243EA51514FEA1C5018BF00F5F0404C
:101150004FEA300018BF41F000415FEA6C5C00F0DC
:101160002980BCF1FF3F08BF40F080407047130C5E
:1011700006BF12044FF0100C4FF0000C130E04BF0A
:1011800012020CF1080C130F04BF12010CF1040C35
:10119000930F04BF92000CF1020CD30F04BF520056
:1011A0000CF1010C11464FF00002A0F11F00A0EB62
:1011B0000C00704711F0004F08BF704731F000413C
:1011C0003FF4D5AF0B0C06BF09044FF0100C4FF0E5
:1011D000000C0B0E04BF09020CF1080C0B0F04BF2E
:1011E00009010CF1040C8B0F04BF89000CF1020CF7
:1011F000CB0F04BF49000CF1010CCCF12003A0EB94
:101200000C0022FA03F302FA0CF241EA030100F1A6
:101210000100704720F07F4C80EA030023F07F47F5
:10122000ACEB070303F57C5300F0004003F1FF0330
:101230002DE980494FEA154B09B44FEA144325EADA
:101240000B4E24EA03480FF2042606EB1327490845
:101250003E785FEA320203FB0667C7F5000707FB2B
:1012600006F64FEA54374FEAD64606F1020607FB68
:10127000066CCCF1005C4FEA1C472CEA074C07FBDC
:1012800006F40CFB06F504EB15464FEA961634BF40
:1012900000204FF000404FEAD13706FB07FC4FEA31
:1012A0001C4C0CFB0BF7D21B03FB0CF761EB07018B
:1012B0000CFB0EF7B0EB074072EB17420CFB08F784
:1012C00034BFA2EB0742B2EB074261EB17414FEA92
:1012D0000C444FEA910706FB07FC4FEA1C4C0CFB41
:1012E0000BF7B0EBC74072EB573203FB0CF734BF80
:1012F000A2EBC742B2EBC74261EB57310CFB0EF7D2
:10130000B0EBC70072EB57720CFB08F734BFA2EBCF
:10131000C702B2EBC70261EB5771039F4FEA8161CD
:1013200041EA921104EBCC044FEAD1374FEA8262D2
:1013300006FB07FC42EA90124FEA80604FEA1C4C21
:101340000CFB0BF7D21B03FB0CF761EB07010CFB4B
:101350000EF7B0EB074072EB17420CFB08F734BFF7
:10136000A2EB0742B2EB074261EB17414FEA8C5503
:101370004FEA910704EB9C2406FB07FC4FEA1C4C48
:101380000CFB0BF7B0EBC74072EB573203FB0CF7CB
:1013900034BFA2EBC742B2EBC74261EB57310CFB43
:1013A0000EF7B0EBC70072EB57720CFB08F734BFB7
:1013B000A2EBC702B2EBC70261EB577115EB4C25EC
:1013C0004FEA816141EA92114FEA82624FEAD137D6
:1013D00042EA901206FB07FC44F100044FEA8060E9
:1013E0004FEA1C4C0CFB0BF7D21B03FB0CF761EB19
:1013F00007010CFB0EF7B0EB074072EB17420CFB3A
:1014000008F734BFA2EB0742B2EB074261EB17418A
:1014100015EB1C154FEA813141EA92414FEA8232C5
:1014200042EA90424FEA80304FEA0C7644F10004E1
:1014300048EA03434EEA0B484FF0000EB2EB080CAB
:1014400071EB030724BF624639464EEB0E0E4FF098
:10145000000B0018524149414BEB0B0BB2EB080C4F
:1014600071EB03077BF1000B24BF624639464EEB5C
:101470000E0E4FF0000B0018524149414BEB0B0B85
:10148000B2EB080C71EB03077BF1000B24BF624643
:1014900039464EEB0E0E51EA020718BF46F0010620
:1014A00016EB0E7655F1000254F1000103D5BDE8AC
:1014B0008901BDE80088BDE88901BDE80048B6198A
:1014C000524141EB0101A3F10103704780807F7E0F
:1014D0007D7C7B7A797877767675747372717170AA
:1014E0006F6E6E6D6C6C6B6A6A696868676666655C
:1014F0006464636362616160605F5F5E5E5D5D5CEA
:101500005C5B5B5A5A59595858575756565555555A
:101510005454535352525251515050504F4F4F4EBA
:101520004E4D4D4D4C4C4C4B4B4B4A4A4A49494908
:10153000484848474747474646464545454444444A
:10154000444343434342424242414141002B26D45B
:10155000770021D01CB54FEA370703B44FF01000D5
:101560004FF010014FF000000FBCBDE810400BF130
:10157000010BBBF1010F08BF5FEA170722BF12F191
:10158000010211F101014FF0004143F1000300F0AD
:10159000004043EA00007047F9D35708DAE746EA0B
:1015A000064613F1400F4FEA16461FDD13F1200FD8
:1015B000DFBF16430A46002120335B42C8D0C3F187
:1015C000200746EA064602FA07F74FEA164646EAB9
:1015D0000706C3F1200722FA03F201FA07F721FAFE
:1015E00003F14FF0000342EA0702B1E746EA0206C0
:1015F00046EA06464FEA164646EA0106BCBF46EAF8
:101600000646360C4FF000034FF000024FF0000189
:101610009EE72DE9C048934630B491E8380007C8EA
:1016200031EA400C48BF34EA430C03D5FFF7F2FD22
:10163000FFF78CFFF0BCBDE800882DE9C048934659
:1016400030B491E8380007C810F0804F08BF13F09D
:10165000804F03D100F005F8FFF778FFF0BCBDE83C
:10166000008820F07F4780EA030023F07F4C07EBDF
:101670000C03A3F57C5300F00040A3F1FE0392F0AD
:10168000000F00F0B38095F0000F00F077802DE997
:1016900001494FEA11404FEA144621EA004800FB95
:1016A00006FC24EA064708FB06F607FB08F800FBE1
:1016B00007F718EB06484CEB164C4FEA124B18EBA9
:1016C00007484FEA15464CEB174022EA0B4E0BFB3E
:1016D00006FC25EA06470EFB06F607FB0EFE0BFB93
:1016E00007F71EEB064E4CEB164C4FF000061EEBB8
:1016F000074E4CEB174B18EB0B0840F1000018EBB2
:101700000E0B58EB000840F100008F1A4FF000015B
:101710003CBFC943661B14BFB5EB040C00213CBFA2
:10172000C943F61B4FEA17444EEA8E0E27EA0445DA
:101730004FEA1C4704FB07622CEA074C05FB07F73E
:101740000CFB05F604FB0CFC16EB074642EB1742BC
:1017500016EB0C4642EB1C421BEB060658EB020252
:10176000414146EA9E0601D5BDE80189B6195241BC
:1017700041EB0101A3F10103BDE801894FEA1445E2
:101780004FEA114724EA054621EA074C05FB07F416
:1017900006FB07F70CFB06F105FB0CFC11EB074100
:1017A00044EB17444FEA124711EB0C4144EB1C4445
:1017B00022EA074C05FB07F206FB07F70CFB06F6CF
:1017C00005FB0CFC16EB074642EB174216EB0C46EA
:1017D00042EB1C456A1854F1000148BF7047B61926
:1017E000524141EB0101A3F10103704795F0000F55
:1017F00037D04FEA11424FEA144721EA024624EA61
:10180000074C02FB07F106FB07F70CFB06F402FB93
:101810000CFC14EB074441EB17414FEA154714EB5E
:101820000C4441EB1C4125EA074C02FB07F506FB83
:1018300007F70CFB06F602FB0CFC16EB074645EB24
:10184000174516EB0C4645EB1C42121951F10001ED
:1018500048BF7047B619524141EB0101A3F10103A2
:1018600070474FEA14454FEA114724EA054621EA3A
:10187000074C05FB07F106FB07F70CFB06F24FF0E0
:10188000000605FB0CFC12EB074241EB174112EB83
:101890000C4251EB1C4148BF7047921841EB0101CB
:1018A000A3F10103704700BFFEE721B1026842F0D7
:1018B0000102026004E002684FF6FE731A40026003
:1018C0007047000001684FF6FE7211400160002170
:1018D000016041608160C1604B49884208D14A493A
:1018E0000839496841F00F01474A083A51608AE0D7
:1018F00045491431884208D143490839496841F0C3
:10190000F001414A083A51607DE03F492831884260
:1019100008D13D490839496841F470613A4A083AAA
:10192000516070E038493C31884208D13649083965
:10193000496841F47041344A083A516063E03249E1
:101940005031884208D130490839496841F4702142
:101950002D4A083A516056E02B496431884208D13B
:1019600029490839496841F47001274A083A516009
:1019700049E025497831884208D123490839496826
:1019800041F07061204A083A51603CE01F498842AA
:1019900006D1011F096841F00F01021F116032E0FA
:1019A0001A491431884208D11849091F096841F0C1
:1019B000F001164A121F116025E0144928318842AF
:1019C00008D11249091F096841F470610F4A121FBA
:1019D000116018E00D493C31884208D10B49091FBC
:1019E000096841F47041094A121F11600BE0074970
:1019F0005031884207D10549091F096841F4702117
:101A0000024A121F11607047080002400804024099
:101A100010B50022026847F6F0739A430C6A8B688F
:101A200023430C6923434C6923438C692343CC69CA
:101A300023434C6A23438C6A23431A430260CB68D6
:101A400043600B6883604B68C36010BD41607047A2
:101A500070472DE9F04102460025002600200023B2
:101A60000024002791F803C00CF00F0591F803C083
:101A70000CF0100CBCF1000F03D091F802C04CEA3E
:101A8000050591F800C0BCF1000F31D014680020AA
:101A90002BE04FF0010C0CFA00F3B1F800C00CEA97
:101AA00003069E4220D183004FF00F0C0CFA03F77F
:101AB000BC4305FA03FC4CEA040491F803C0BCF1F2
:101AC000280F06D14FF0010C0CFA00FCC2F814C02C
:101AD0000AE091F803C0BCF1480F05D14FF0010CAA
:101AE0000CFA00FCC2F810C0401C0828D1D31460C6
:101AF000B1F800C0BCF1FF0F34DD546800202EE0C7
:101B000000F1080C4FF0010808FA0CF3B1F800C01E
:101B10000CEA03069E4221D183004FF00F0C0CFA11
:101B200003F7BC4305FA03FC4CEA040491F803C034
:101B3000BCF1280F05D100F1080C08FA0CF8C2F826
:101B4000148091F803C0BCF1480F07D100F1080CD4
:101B50004FF0010808FA0CF8C2F81080401C082861
:101B6000CED35460BDE8F081F0B50A4600230024CE
:101B70000021002500F00046B6F1004F02D11D4EB5
:101B8000F16901E01B4E7168C0F3034583B200F4B4
:101B90004016B6F5401F08D121F07061154E7668E9
:101BA00026F07066134F7E6012E000F48016B6F5E2
:101BB000801F06D1032606FA05F4A14341F07061A7
:101BC00006E0460D360103FA06F6B14341F07061B6
:101BD00022B1460D360103FA06F6314300F0004605
:101BE000B6F1004F02D1034EF16101E0014E716088
:101BF000F0BD0000000001400161704700BFFEE73A
:101C000008B50121192000F0A5F801211248FFF7BD
:101C1000ABFF4FF40050ADF8000010208DF803002A
:101C200003208DF8020069460C48FFF712FF4FF4BD
:101C300000510A48FFF7E0FF0820ADF800006946B0
:101C40000748FFF706FF1020ADF80000694604487A
:101C5000FFF7FFFE08BD0000000230000010014049
:101C6000000C014000BFFEE77047000070B5002186
:101C700000230F22C47804B3154C246804F4E064F4
:101C8000C4F5E064210AC1F10403CA40447804FAAF
:101C900003F184781440214309010E4C0678A155C4
:101CA000047804F01F050124AC4005786D11AD00E7
:101CB00005F1E025C5F8004109E0047804F01F05AE
:101CC0000124AC40044D0678761145F8264070BDDD
:101CD0000CED00E000E400E080E100E00249014397
:101CE000024A1160704700000000FA050CED00E0A8
:101CF0007047000029B1064A52690243044B5A61F9
:101D000004E0034A52698243014B5A617047000064
:101D10000010024029B1064AD2690243044BDA613D
:101D200004E0034AD2698243014BDA617047000044
:101D30000010024029B1064A12690243044B1A619D
:101D400004E0034A12698243014B1A6170470000A4
:101D50000010024029B1064A92690243044B9A617D
:101D600004E0034A92698243014B9A617047000084
:101D70000010024029B1064AD2680243044BDA60DF
:101D800004E0034AD2688243014BDA6070470000E6
:101D90000010024030B500210022002400232D4D08
:101DA0006D6805F00C0121B1042905D0082923D163
:101DB00005E0294D056022E0274D05601FE0254D17
:101DC0006D6805F47012234D6D6805F480340225AA
:101DD00005EB92421CB9214D554305600BE01D4DAA
:101DE0006D6805F400351DB11C4D5543056002E0DA
:101DF000194D5543056002E0174D056000BF00BF57
:101E0000144D6D6805F0F0010909154D6B5C05680E
:101E1000DD4045600F4D6D6805F4E061090A104D25
:101E20006B5C4568DD4085600A4D6D6805F4605166
:101E3000C90A0B4D6B5C4568DD40C560054D6D689A
:101E400005F44041890B074D6B5CC568B5FBF3F5A4
:101E5000056130BD0010024000127A0000093D000B
:101E60000000002010000020704710B500F002F8BC
:101E700010BD00000CB500200190009033480068B0
:101E800040F480303149086000BF3048006800F4F9
:101E9000003000900198401C0190009818B90198FA
:101EA000B0F5A06FF1D12948006800F4003010B1FE
:101EB0000120009001E0002000900098012843D10B
:101EC0002348006840F01000214908600846006877
:101ED00020F0030008600846006840F00200086037
:101EE0001A484068194948600846406848600846F2
:101EF000406840F4806048600846406820F47C10E8
:101F000048600846406840F4E810486008460068A9
:101F100040F08070086000BF0C48006800F000705E
:101F20000028F9D00948406820F0030007494860BC
:101F30000846406840F00200486000BF034840681F
:101F400000F00C000828F9D10CBD00000010024080
:101F500000200240042808D14FF0E021096941F037
:101F600004014FF0E022116107E04FF0E021096920
:101F700021F004014FF0E02211617047704700002A
:101F800010B51348006840F0010011490860084688
:101F90004068104908400E494860084600680E49EC
:101FA00008400B4908600846006820F4802008605B
:101FB0000846406820F4FE0048604FF41F00886027
:101FC000FFF753FF4FF000600449086010BD0000A8
:101FD000001002400000FFF8FFFFF6FE08ED00E0F1
:101FE00010B510211A4800F0C6F801282BD1194865
:101FF000007800F0010070B90221154800F0D5F812
:102000000021134800F0DEF81248006840F001009B
:102010001049086017E00E4800F0A9F804460021B6
:102020000B4800F0C2F80B48006820F00100094995
:1020300008600846006820F47F00086008460068D1
:1020400040EA044008601021014800F081F810BD0A
:10205000002C01403400002010B50121014800F09F
:1020600077F810BD002C014010B54FF08040008A79
:1020700000F0010048B109490869804700204FF08D
:10208000804188844FF47A7088854FF08040008AC0
:1020900020F001004FF08041088210BD9C0000201C
:1020A00010B50121084800F066F860B107480088C3
:1020B00040F40040054908800121034800F048F839
:1020C000002000F031F810BD00080040A4010020FD
:1020D0007FB505460C4601210420FFF71BFEADF835
:1020E0000450ADF800400020ADF80600ADF8020045
:1020F00069460C4800F068F801221146094800F0D2
:102100004BF81E208DF80C0001208DF80D000220E8
:102110008DF80E0001208DF80F0003A8FFF7A6FD33
:102120007FBD00000008004010B5044644B1002106
:10213000064800F047F80121044800F00CF803E0DD
:102140000021024800F007F810BD00000008004020
:10215000CA430282704721B1028842F00102028024
:1021600004E002884FF6FE731A4002807047014671
:10217000B1F84000704730B502460020002300242B
:10218000158A05EA0103958905EA010413B10CB12A
:10219000012000E0002030BD1AB183890B43838108
:1021A00002E083898B43838170470A460021018CBA
:1021B0004DF6FF7319404FF6FF7303EA02331943DC
:1021C0000184704781847047002202881D4B984229
:1021D0000ED01D4B98420BD0B0F1804F08D01B4B56
:1021E000984205D01A4B984202D01A4B984204D11B
:1021F0004FF68F731A404B881A43174B984207D0FB
:10220000164B984204D04FF6FF431A40CB881A432E
:1022100002808B8883850B8803850A4B98420BD0FC
:10222000094B984208D00E4B984205D00D4B98426E
:1022300002D00D4B984201D10B7A03860123838291
:1022400070470000002C01400034014000040040B1
:1022500000080040000C0040001000400014004046
:1022600000400140004401400048014038B50546A7
:102270000C461148C06940F001000F49C86188044C
:1022800085850485808940F001008904888108469D
:10229000008840F0010008801C208DF80000032019
:1022A0008DF801008DF8020001208DF803006846CA
:1022B000FFF7DCFC38BD00000010024070B58CB0A8
:1022C00006460C46154601210846FFF713FD304629
:1022D000FFF7F8FA01940295102003900020049073
:1022E00005908020069000200790089009904FF4F8
:1022F00080500A9000200B9001A93046FFF788FB20
:102300000CB070BD70B504460D4600212046FFF7A5
:10231000CCFA29462046FFF799FB01212046FFF71A
:10232000C4FA70BD10B540F225511D4800F044F9C3
:1023300010B31B4800F0FCF9C4B21A48008800F43E
:102340000040C8B91748008800F4804060B10A2CEA
:1023500003D000201349088020E01248008840F490
:1023600000401049088019E00D2C06D10D48008866
:1023700040F480400B49088010E00A480088C0F310
:102380000D0009490C5407480088401C0549088085
:1023900008460088C72801DD0020088010BD000025
:1023A0000038014030000020A801002010B540F2A4
:1023B0002551134800F000F908B3114800F0B8F9AE
:1023C000C4B210480088B0F5806F12DA00210E48C0
:1023D000FFF7F8FE0B48008810B90120FFF7A4FEB4
:1023E000084801880088401C064A10800748445469
:1023F00005E00448008840F400400249088010BD10
:1024000000440040A401002000080040F0300020FB
:1024100010B586B0044601210420FFF79BFC012182
:102420004804FFF777FC2D4800F078F80420ADF859
:10243000100003208DF8120018208DF8130004A955
:102440002748FFF706FB0820ADF8100004208DF8A0
:10245000130004A92248FFF7FCFA00940020ADF80D
:102460000400ADF80600ADF80800ADF80C000C2033
:10247000ADF80A006946194800F0EEF80122802103
:10248000164800F041F8174A1449091D1648FFF78D
:1024900015FF0121114800F02BF8012240F22551CF
:1024A0000E4800F0B3F826208DF8140002208DF8B5
:1024B000150003208DF8160001208DF8170005A8DF
:1024C000FFF7D4FB41F61F416320FFF701FE002018
:1024D00006490880FFF728FE06B010BD0044004002
:1024E00000080140F02C002080000240A4010020E0
:1024F00021B1828942F40052828104E082894DF642
:10250000FF731A40828170471AB1838A0B4383821A
:1025100002E0838A8B4383827047000010B5044633
:102520002048844209D101218803FFF723FC0021C0
:102530004FF48040FFF71EFC32E01B48844209D173
:1025400001214804FFF7F6FB00214FF40030FFF7AC
:10255000F1FB25E01548844209D101218804FFF7E9
:10256000E9FB00214FF48020FFF7E4FB18E010485E
:10257000844209D10121C804FFF7DCFB00214FF49C
:102580000020FFF7D7FB0BE00A48844208D1012165
:102590000805FFF7CFFB00214FF48010FFF7CAFBBF
:1025A00010BD0000003801400044004000480040D9
:1025B000004C00400050004070B50246002400234B
:1025C0000025002040F66A16B14200D100BFC1F3D9
:1025D000421501F01F03012606FA03F3012D02D173
:1025E0009689334006E0022D02D1168A334001E07D
:1025F000968A33400C12012606FA04F416883440F9
:1026000013B10CB1012000E0002070BDF0B503460D
:10261000002400260025002040F66A17B94200D1A8
:1026200000BF1846C1F3421401F01F06012707FA44
:1026300006F5012C01D10C3004E0022C01D1103040
:1026400000E014301AB107682F43076002E0076802
:10265000AF430760F0BD00002DE9F04786B00546A6
:102660000E460024A24600BFA1460027B08900B153
:1026700000BF2F462C8A4CF6FF700440F0880443BC
:102680002C82AC894EF6F3100440B088318908439F
:10269000718908430443AC81AC8A4FF6FF40044083
:1026A000B0890443AC8201A8FFF774FB1F4887423E
:1026B00002D1DDF810A001E0DDF80CA0A88900F43B
:1026C000004040B10AEBCA0000EB0A103168490033
:1026D000B0FBF1F807E00AEBCA0000EB0A10316822
:1026E0008900B0FBF1F86420B8FBF0F00401200988
:1026F000642101FB1089A88900F4004040B1322018
:1027000000EBC900B0FBF1F000F00700044308E063
:10271000322000EB09106421B0FBF1F000F00F0053
:1027200004432C8106B0BDE8F0870000003801406A
:1027300001468888C0F30800704700BFFEE74900E3
:1027400050EAC12018BF04204A0D18BF40F0010014
:1027500040F2FF72B2EB515F08BF40F00200012867
:1027600008BF0520704730380A2801D20120704781
:1027700000207047014600BF704700000EB518A248
:1027800007CA8DE807004FF4FA6218A118A000F0FC
:1027900015FA08B101200EBDC82214A117A000F03F
:1027A0000DFA08B10220F6E7694617A000F062FAB8
:1027B00040F6B83000F054F81648008800F40040A5
:1027C00010B1002000F038FA642208A112A000F035
:1027D000F5F9642205A110A000F0F0F900BFDAE7D6
:1027E0003138373032363235353334004F4B000014
:1027F00041542B434C49503D3100000041542B4380
:102800004F4C503D3100000041544425733B0D0AAC
:1028100000000000A40100204154480010B56FF0F2
:102820000400FFF797FB0A4800680A49B0FBF1F083
:10283000094908700846007800EB4001C1EBC01060
:102840004FF6FF7101EAC0000449088010BD000086
:102850001400002000127A00280000202A00002026
:102860000146114A12884A434FF0E0235A61002280
:102870009A611A46126942F001021A6100BF4FF0D4
:10288000E022106900F001021AB100F48032002A3F
:10289000F5D04FF0E022126922F001024FF0E02360
:1028A0001A6100229A6170472A0000200146114AED
:1028B00012784A434FF0E0235A6100229A611A4687
:1028C000126942F001021A6100BF4FF0E022106964
:1028D00000F001021AB100F48032002AF5D04FF066
:1028E000E022126922F001024FF0E0231A61002277
:1028F0009A6170472800002000BF054A128802F044
:102900004002002AF9D0C2B2014B1B1D1A80704749
:102910000038014010B50446642210A110A000F058
:102920004DF964220DA111A000F048F964220BA119
:1029300010A000F043F9642208A111A000F03EF9B4
:10294000642219A119A000F039F91C4800F092F98D
:10295000642202A102A000F031F910BD4F4B00002B
:1029600041542B43495053485554000041542B4384
:102970005354540041542B43494943520000000032
:1029800041542B43495053544152543D22544350D7
:10299000222C226170692E6865636C6F7564732EDA
:1029A000636F6D222C3830003E00000041542B43F1
:1029B000495053454E443D323233000080400008B8
:1029C000FFF72CFF4FF4E13000F074F9FFF718F92E
:1029D0000D4841684820884700F040F84FF4A06057
:1029E000FFF77CF94FF41650FFF712FD0BE0FFF7ED
:1029F00091FF06480068C0430549C1F8B4014FF48F
:102A00009670FFF72DFFF2E79C000020B4012242F0
:102A10000000224270B505460F48007C20B90E49DF
:102A200008688047012070BDB5F5205F11D26909A3
:102A30000948C06830F81120002406E00020064B49
:102A4000DB680E1923F81600641C9442F6DB0020A4
:102A5000E9E70220E7E700009001002000B50949FE
:102A60004FF42072C868002100F080F805494FF447
:102A700020528868002100F079F80120014908748B
:102A800000BD0000900100202DE9F0410646002421
:102A9000A0461A48007C10B91849086880471EB93A
:102AA0004FF0FF30BDE8F081C6F34F1506F01F0070
:102AB00008B1681C85B240F23F141AE00F48C068A4
:102AC00030F8140020B908F101001FFA80F801E085
:102AD0004FF00008A8450BD1002705E00748C06863
:102AE000E11920F811507F1CAF42F7D36001D9E7FC
:102AF000641E002CE2DA4FF0FF30D3E79001002093
:102B00000022002106E00948C06830F8110000B139
:102B1000521C491CB1F5A07FF5D3642050434FF4FB
:102B2000A073B0FBF3F0C0B270470000900100202A
:102B300070B5044604B970BD03488068251A28465C
:102B4000FFF768FF00BFF6E79001002070B505466B
:102B50002846FFF799FF0446601C08B9002070BDA5
:102B6000014880682044FAE79001002030B5034610
:102B700001E003F8011B1400A2F10102F9D130BDFC
:102B8000014608687047000070B5044600250948F2
:102B9000008800F4004058B1002006490988C1F3BC
:102BA0000E01054A505421461046FDF73DFD0546ED
:102BB000284670BDA4010020F03000202DE9F0412E
:102BC00004460E4615460027002016490880FF2CB3
:102BD00007D800BF144800680028FBD113490C80B7
:102BE00003E0214612A000F045F8C6B1BDB10FE0E8
:102BF0000A20FFF735FE0B48008800F4004038B18A
:102C00003046FFF7C1FF00B106E00020054908800B
:102C1000681E80B20500EBD100BF05B90127384618
:102C2000BDE8F081A401002084000240044400407B
:102C300025730D0A0000000010B504460A480088FC
:102C400000F4004070B1002007490988C1F30E016B
:102C5000064A5054114606A0FDF740FB14B100206F
:102C60000149088010BD0000A4010020F0300020C0
:102C7000257300000FB438B505A800900B48009AE2
:102C80000499FDF719FB0020009000BF0848006878
:102C90000028FBD10548FDF7D9FC84B22146044841
:102CA000001FFFF72FFB38BC5DF814FBF02C002051
:102CB0008400024010B586B00446012144F20400AD
:102CC000FFF748F84FF40070ADF8140003208DF8BA
:102CD000160018208DF8170005A91C48FEF7B9FE4C
:102CE0004FF48060ADF8140004208DF8170005A99A
:102CF0001648FEF7AEFE25208DF8000003208DF863
:102D000001008DF8020001208DF803006846FEF7EF
:102D1000ADFF01940020ADF80800ADF80A00ADF851
:102D20000C00ADF810000C20ADF80E0001A9084809
:102D3000FFF792FC012240F225510548FFF766FC9F
:102D400001210348FFF7D4FB06B010BD0008014085
:102D50000038014030B595B0054613AB12AA09A959
:102D6000284600F03BFA044614B1204615B030BDA9
:102D70000020149026E0224909689DF8502001EBBC
:102D8000C20113AB11AA486801A900F027FA044652
:102D90000CB12046EAE709A901A800F0B7FC60B928
:102DA0009DF844009DF84810884201DD0220DDE7CF
:102DB0009DF85000124988750AE09DF85000401CAB
:102DC000C0B214900E48007D9DF850108842D2DCAD
:102DD00000BF0B48007D9DF85010884201D10420AF
:102DE000C4E714A9284600F0D9FA04460CB12046DD
:102DF000BCE79DF85000024948750020B6E7000086
:102E00009C0000202DE9F0419AB000269C48847D6A
:102E1000007DA04202DC1AB0BDE8F0819849096843
:102E200001EBC40106AB07AA486808A900F0D6F96F
:102E300008A994A0FDF752FA002544E09048008BC1
:102E40000121A9400840D8B1222190A0FDF746FAFF
:102E5000284600F029FB8A492431471839468CA0BE
:102E6000FDF73CFA222189A0FDF738FA284600F048
:102E70001BFB83492431084410A941F8250018E0C0
:102E8000284600F011FB7E492431085810A941F86A
:102E900025007B48C07D30B910A850F825107DA0D2
:102EA000FDF71CFA05E010A850F825107AA0FDF7F0
:102EB00015FA9DF81C00401EA84202D078A0FDF72C
:102EC0000DFA681CC5B29DF81C008542B6DB75A0E2
:102ED000FDF704FA00F038FB6948407D0B280DD25D
:102EE000DFE800F0060D151E27323F4E5F728700A7
:102EF0006349096851F834008047064690E0604A0B
:102F0000126852F8341010988847064688E05C4BE7
:102F10001B6853F83420DDE91001904706467FE036
:102F2000574F3F6857F8343010A807C898470646EF
:102F300076E0DFF84CC1DCF800C05CF8347010A813
:102F40000FC8B84706466BE01498DFF834C100900C
:102F5000DCF800C05CF8347010A80FC8B84706460B
:102F60005EE0DDE91401DFF818C1CDE90001DCF80D
:102F700000C05CF8347010A80FC8B84706464FE090
:102F8000DDE914121698DFF8F8C0CDE900120290BE
:102F9000DCF800C05CF8347010A80FC8B8470646CB
:102FA0003EE0DDE91423DDE91610DFF8D4C0CDE9F9
:102FB0000023CDE90210DCF800C05CF8347010A8E2
:102FC0000FC8B84706462BE0DDE916321899159868
:102FD000CDE90232049101901498DFF8A4C000906A
:102FE000DCF800C05CF8347010A80FC8B84706467B
:102FF00016E0DDE91623DDE91810CDE90223CDE95D
:103000000410DDE91401DFF878C0CDE90001DCF837
:1030100000C05CF8347010A80FC8B847064600BF5F
:1030200000BF00F051FA9DF8180001280CD1144897
:10303000C07D20B931461CA0FDF750F907E03146AC
:103040001BA0FDF74BF902E018A0FDF747F90C486B
:1030500090F8EC0088B10A48D0F8F0000A21B0FBE3
:10306000F1F201FB12070648D0F8F000B0FBF1F8CE
:103070003A46414611A0FDF731F900BFCBE600000A
:103080009C0000200D0A2573280000002563000025
:1030900025730000256C750030582558000000008D
:1030A0002C000000290000003D256C753B0D0A0036
:1030B0003D305825583B0D0A0000000046756E63F0
:1030C00074696F6E2052756E2054696D653A25647F
:1030D0002E2531646D730D0A00000000F0B5034623
:1030E0001546002000220026002455E01F782C2FD2
:1030F00001D104B901221F78292F01D01F780FB9FF
:1031000004B94AE0002E34D11F78302F02DB1F783B
:10311000392F11DD1F78612F02DB1F78662F0BDD41
:103120001F78412F02DB1F78462F05DD1F78582FAF
:1031300002D01F78782F0CD102B12EE01F78612FBA
:1031400003DB1F78203F0F7001E01F780F70491CD0
:103150001FE01F78222F04D102B11EE001260124B6
:1031600017E01F78202F14D01F782C2F11D0FF26A6
:1031700013E01F78222F00D1002402B10DE044B1EA
:103180001F785C2F02D15B1C471CF8B21F780F70B0
:10319000491C471CF8B25B1CA8E700BF00270F7052
:1031A0002E70F0BD10B50446002010700BE02078A2
:1031B0000870641C491C1078401C107010789842EC
:1031C00001DB012010BD2078202802D020780028C3
:1031D000EDD10020087000BFF4E700002DE9FF4F9B
:1031E00085B0804689460027002004900390012086
:1031F00002904FF0000B002544461DE02078202867
:1032000016D005F07F00052812DA0DB945F08005CB
:1032100005F07F00042803D120782A2800D00EE092
:10322000207805F07F010DF80100681CC5B202E0AE
:10323000852D00D103E0641C20780028DED100BF7A
:103240008DB1002005F07F010DF8010051A1684605
:1032500000F05CFA18B900210898017002E0012121
:103260000898017000254FF0000A444614E0641CE1
:103270000AF1010000F0FF0A2078202802D020780F
:103280002A2809D1204600F0D1F90646282E03D07D
:103290002A2E01D0CDF810A02078282802D020783E
:1032A0000028E4D14446049810B10498401C04441A
:1032B0004FF0000A002654E0207810B94FF0010AC0
:1032C00050E02078282803D116B9781CC7B213E043
:1032D0002078292808D13EB917B1781EC7B201E07D
:1032E0004FF0010A47B93DE02078222804D10EB9F9
:1032F000012000E00020064647B9207820282FD082
:10330000207889F8000009F1010929E020782C28AB
:1033100004D101200290681CC5B214E02078202856
:1033200011D0207828280ED04DB9BBF1050F06DA50
:1033300020780DF80B000BF1010000F0FF0B029854
:10334000401CC0B20290012F0AD10298022807D176
:103350000298401CC0B202900398401CC0B2039077
:10336000641CA9E700BF0398012809D100200DF8CB
:103370000B0008A1684600F0C9F908B900200390C5
:10338000079903980870002089F80000504609B09A
:10339000BDE8F08F766F6964000000002DE9F0430E
:1033A000B5B005460F460024002604E000213D4844
:1033B0008155701CC6B20A2EF8DB06E06D1C287819
:1033C00018B9012035B0BDE8F08328782828F5D158
:1033D0006D1C61E034AA69462846FFF77FFE064669
:1033E00035449DF8D00020B1012827D0FF284CD1CA
:1033F00049E09DF8000000B333A9684600F021F9C8
:1034000006460EB10220DDE7204600F04DF82549C2
:103410000A31339A0A50A1F12400008B0121A14006
:10342000884320491A39088304211E480155601C2D
:10343000C4B20A2C01DD0320C4E726E0684600F090
:1034400081F9401C00F0FF08204600F02DF81549D6
:103450000A3100EB01094946684600F068F9114855
:103460001A38018B0120A040014388B20D491A3956
:1034700008830C4800F80480601CC4B20A2C01DDEB
:1034800003209FE701E002209CE700BF287829285D
:1034900001D0287800B900E09CE700BF3C70002014
:1034A00090E70000B600002002460020002105E061
:1034B000044B5B5C0344D8B24B1CD9B29142F7DB9E
:1034C00070470000B60000204FF08040008A00F0F6
:1034D000010040B10B48D0F8F0004FF6FF710844EE
:1034E0000849C1F8F0000748D0F8F0004FF08041DB
:1034F000898C08440349C1F8F0000846D0F8F00070
:10350000704700009C00002010B5044604EBC40086
:1035100000EB04100122C2EB800081B24FF47A70FC
:10352000FEF7A4FE01200149C87510BD9C000020D3
:1035300010B50246012000E050430B00A1F1010448
:10354000E1B2F9D110BD00004FF08040008A20F0B8
:1035500001004FF0804108824FF6FF7088850020FF
:1035600088840249C1F8F000704700009C000020E8
:1035700070B51D48008800F40040002833D01A4878
:103580000578002019494855194881681748884727
:1035900004461CB91649C868804721E0134800F06A
:1035A000DDF80546012D00D02C46CCB1012C06D00B
:1035B000022C08D0032C0AD0042C10D10BE00DA053
:1035C000FCF78CFE0BE00EA0FCF788FE07E00FA0D6
:1035D000FCF784FE03E010A0FCF780FE00BF00BFF4
:1035E00000200149088070BD30000020A8010020A3
:1035F0009C000020BAAFCAFDB4EDCEF3210D0A0045
:10360000B2CECAFDB4EDCEF3210D0A00B2CECAFD92
:10361000CCABB6E0210D0A00CEB4D5D2B5BDC6A55F
:10362000C5E4B5C4BAAFCAFD210D0A000146491C64
:1036300000E0491C0878202801D10029F9D1087838
:1036400070472DE9F04307460E4600254FF00A0863
:103650003C46002030601FE02078392802DC2078CA
:1036600030280ADA2078462802DC2078412804DA5B
:103670002078582809D1012D07D12078412801DB75
:103680004FF01008681CC5B205E0207800B904E0CE
:103690000120BDE8F083641CDEE700BF3C46B8F1C2
:1036A000100F0FD1032D01DA0220F2E72078302825
:1036B00006D16078582803D1A41CA81EC5B204E026
:1036C0000320E6E70DB90420E3E71BE00DB1681E17
:1036D000C5B22078392806DC2078302803DB207832
:1036E000A0F1300902E02078A0F1370929464046D0
:1036F000FFF71EFF316809FB00103060641C207862
:1037000000B900E0E2E700BF0020C2E702460AE09D
:1037100010780B78984201D001207047107800B9DA
:1037200002E0521C491CF3E700BF0020F5E706E069
:1037300002780A70027802B902E0401C491CF7E7DF
:1037400000BF70470146002005E00A7802B903E097
:10375000421CD0B2491CF8E700BF704710B58CB0CE
:1037600004461E230BAA03A92046FFF71BFD009069
:10377000009810B101200CB010BD9DF82C0004443D
:1037800000200B900EE040489DF82C2050F82210AD
:1037900003A8FFF7BBFF00B908E09DF82C00401C10
:1037A000C0B20B909DF82C000728ECD300BF9DF809
:1037B0002C00072863D2DFE800F004053C5E656456
:1037C000630000BF31A0FCF789FD31A0FCF786FD46
:1037D0003FA0FCF783FD4EA0FCF780FD5CA0FCF74A
:1037E0007DFD6BA0FCF77AFD79A0FCF777FD86A044
:1037F000FCF774FD8BA0FCF771FD90A0FCF76EFD4B
:1038000094A0FCF76BFD99A0FCF768FD9EA0FCF767
:1038100065FDA4A0FCF762FDB0A0FCF75FFDBDA0B4
:10382000FCF75CFDC8A0FCF759FDD4A0FCF756FDE1
:103830009AE216A0FCF752FDE0A0FCF74FFD002035
:103840000B900EE0ED4800689DF82C2000EBC200C4
:103850004168EBA0FCF742FD9DF82C00401CC0B273
:103860000B90E648007D9DF82C108842EADC07A00A
:10387000FCF734FD78E205A0FCF730FDC4E171E20D
:1038800045E219E2ECE10000380000200D0A0000DA
:103890002D2D2D2D2D2D2D2D2D2D2D2D2D2D2D2D58
:1038A0002D2D2D2D2D2D2D2D55534D41525420565E
:1038B000332E312D2D2D2D2D2D2D2D2D2D2D2D2D2D
:1038C0002D2D2D2D2D2D2D2D2D2D2D200D0A0000D2
:1038D0002020202055534D415254CAC7D3C9414CD2
:1038E00049454E54454BBFAAB7A2B5C4D2BBB8F6A2
:1038F000C1E9C7C9B5C4B4AEBFDAB5F7CAD4BBA570
:10390000BDBBD7E9BCFE2CCDA8B9FD200D0A000037
:10391000CBFC2CC4E3BFC9D2D4CDA8B9FDB4AEBF93
:10392000DAD6FACAD6B5F7D3C3B3CCD0F2C0EFC358
:10393000E6B5C4C8CEBACEBAAFCAFD2CB2A2D6B4D0
:10394000D0D02ED2F2B4CB2CC4E3BFC90D0A0000F4
:10395000D2D4CBE6D2E2B8FCB8C4BAAFCAFDB5C483
:10396000CAE4C8EBB2CECAFD28D6A7B3D6CAFDD7E3
:10397000D62831302F3136BDF8D6C629A1A2D7D6E8
:10398000B7FBB4AEA1A2BAAFCAFDC8EB0D0A0000E6
:10399000BFDAB5D8D6B7B5C8D7F7CEAAB2CECAFD6A
:1039A000292CB5A5B8F6BAAFCAFDD7EEB6E0D6A7B2
:1039B000B3D63130B8F6CAE4C8EBB2CECAFD2CB2E9
:1039C000A2D6A7B3D6BAAFCAFDB7B5200D0A00007C
:1039D000BBD8D6B5CFD4CABE2ED0C2D4F6B2CECACA
:1039E000FDCFD4CABEBDF8D6C6C9E8D6C3B9A6C4F1
:1039F000DC2CD0C2D4F6BDF8D6C6D7AABBBBB9A6BC
:103A0000C4DC2E0D0A000000BCBCCAF5D6A7B3D694
:103A10003A7777772E6F70656E6564762E636F6D7B
:103A20000D0A000055534D415254D3D037B8F6CF4C
:103A3000B5CDB3C3FCC1EE3A0D0A00003F3A2020D9
:103A400020202020BBF1C8A1B0EFD6FAD0C5CFA26C
:103A50000D0A000068656C703A202020BBF1C8A1F7
:103A6000B0EFD6FAD0C5CFA20D0A00006C6973740E
:103A70003A202020BFC9D3C3B5C4BAAFCAFDC1D054
:103A8000B1ED0D0A0A00000069643A2020202020D0
:103A9000BFC9D3C3BAAFCAFDB5C44944C1D0B1EDA3
:103AA0000D0A0A006865783A20202020B2CECAFDAF
:103AB0003136BDF8D6C6CFD4CABE2CBAF3B8FABFD9
:103AC000D5B8F12BCAFDD7D6BCB4D6B4D0D0BDF88A
:103AD000D6C6D7AABBBB0D0A0A0000006465633ACC
:103AE00020202020B2CECAFD3130BDF8D6C6CFD4BA
:103AF000CABE2CBAF3B8FABFD5B8F12BCAFDD7D6D7
:103B0000BCB4D6B4D0D0BDF8D6C6D7AABBBB0D0ABC
:103B10000A00000072756E74696D653A312CBFAA97
:103B2000C6F4BAAFCAFDD4CBD0D0BCC6CAB13B3004
:103B30002CB9D8B1D5BAAFCAFDD4CBD0D0BCC6CA87
:103B4000B13B0D0A0A000000C7EBB0B4D5D5B3CC29
:103B5000D0F2B1E0D0B4B8F1CABDCAE4C8EBBAAF94
:103B6000CAFDC3FBBCB0B2CECAFDB2A2D2D4BBD890
:103B7000B3B5BCFCBDE1CAF82E0D0A002D2D2D2DCC
:103B80002D2D2D2D2D2D2D2D2D2D2D2D2D2D2D2D65
:103B90002D2D2D2D2D2D414C49454E54454B2D2D70
:103BA0002D2D2D2D2D2D2D2D2D2D2D2D2D2D2D2D45
:103BB0002D2D2D2D2D2D2D200D0A00002D2D2D2DDF
:103BC0002D2D2D2D2D2D2D2D2D2D2D2D2D2D2D2D25
:103BD0002D2D2D2D2DBAAFCAFDC7E5B5A52D2D2D47
:103BE0002D2D2D2D2D2D2D2D2D2D2D2D2D2D2D2D05
:103BF0002D2D2D2D2D2D2D2D200D0A009C0000206A
:103C000025730D0A0000000059A0FCF767FB002097
:103C10000B901AE0664909689DF82C2001EBC2015F
:103C200001AB02AA486803A9FFF7D8FA6048006808
:103C30009DF82C1050F8312003A95EA0FCF74EFB34
:103C40009DF82C00401CC0B20B905948007D9DF897
:103C50002C108842DEDCAFF2CC30FCF73FFB83E077
:103C6000AFF2D830FCF73AFB0BAA03A92046FFF7C6
:103C700035FA9DF82C00C8B9694603A8FFF7E1FCA6
:103C80000B909DF82C0020B94FA00099FCF726FB63
:103C90000EE09DF82C00042801D002206BE54DA019
:103CA000FCF71CFB01204249C87501E0022062E5D7
:103CB00047A0FCF713FB57E045A0FCF70FFB0BAA4E
:103CC00003A92046FFF70AFA9DF82C00C8B96946F7
:103CD00003A8FFF7B6FC0B909DF82C0020B942A07A
:103CE0000099FCF7FBFA0EE09DF82C00042801D0A7
:103CF000022040E53FA0FCF7F1FA00202C49C875EE
:103D000001E0022037E532A0FCF7E8FA2CE030A011
:103D1000FCF7E4FA0BAA03A92046FFF7DFF99DF8A8
:103D20002C00C8B9694603A8FFF78BFC0B909DF8DF
:103D30002C0078B91E49009881F8EC00084690F8EC
:103D4000EC0018B130A0FCF7C9FA07E035A0FCF789
:103D5000C5FA03E002200EE502200CE51CA0FCF7EA
:103D6000BDFA01E0012006E500BF002003E50000E8
:103D70002D2D2D2D2D2D2D2D2D2D2D2D2D2D2D2D73
:103D80002D2D2D2D2D2D2D2D2DBAAFCAFD204944C1
:103D9000202D2D2D2D2D2D2D2D2D2D2D2D2D2D2D60
:103DA0002D2D2D2D2D2D2D2D2D2D2D2D200D0A00C0
:103DB0009C00002025732069642069733A0D0A3045
:103DC00058253038580D0A004845583A305825587B
:103DD0000D0A00003136BDF8D6C6B2CECAFDCFD42A
:103DE000CABE210D0A0000004445433A256C750DFA
:103DF0000A0000003130BDF8D6C6B2CECAFDCFD41D
:103E0000CABE210D0A00000052756E2054696D650E
:103E10002043616C63756C6174696F6E204F4E0D49
:103E20000A00000052756E2054696D652043616C74
:103E300063756C6174696F6E204F46460D0A000011
:103E40000160704710B500290AD00878002807D013
:103E500005487844FDF72CF9002801D0002010BD5A
:103E60000248784410BD0000EA020000E2020000AF
:103E700010B500290AD00878002807D005487844F2
:103E8000FDF716F9002801D0002010BD0248784443
:103E900010BD0000DA020000D2020000FCF7AEBE46
:103EA0003031323334353637383941424344454670
:103EB000403058003031323334353637383961626A
:103EC000636465664030780004000008000000006C
:103ED00000000002000100001000000000000000CF
:103EE0000000000002400000000000A000000000F0
:103EF00005400000000000C8000000000C40000069
:103F00000000409C00000000194000000020BCBEE2
:103F10000000000034400000BFC91B8E00000004F8
:103F2000B5400000504BCFD06607E2CF0100000043
:103F30006C4100003E8251AADFEEA7340100000070
:103F4000D9420000DCB5A0E23A301F97FFFFFFFF27
:103F5000B4450000FD25A0C8E9A3C14FFFFFFFFF46
:103F6000FF3F00000000008000000000FF3F000055
:103F700000000080000000003F0000006465630056
:103F80006964000072756E74696D650068656C70B7
:103F9000000000006C697374000000006865780020
:103FA000766F6964206D796672656528766F6964DD
:103FB000202A707472293B2020000000766F69640B
:103FC0002077726974655F6164647228753332208A
:103FD000616464722C7533322076616C29000000B4
:103FE00075333220726561645F6164647228753371
:103FF0003220616464722900766F69642064656CA4
:1040000061795F6D7328753136206E6D73290000FC
:10401000766F69642064656C61795F7573287533A8
:1040200032206E757329000075382067707273280E
:1040300075382064617461293B0000007538206D7B
:10404000656D5F7065727573656428766F69642944
:104050003B00000075382063616C6C28766F6964E2
:10406000293B0000766F6964202A6D796D616C6C64
:104070006F63287533322073697A65293B0000002D
:10408000557365722D4167656E743A2046696464A4
:104090006C65720D0A096170692D6B65793A20585B
:1040A00067443D4B376F3D45684B724162695744E9
:1040B00067723436327A317051553D0D0A09486FB6
:1040C00073743A206170692E6865636C6F756473F0
:1040D0002E636F6D0D0A436F6E74656E742D4C65A3
:1040E0006E6774683A2034360D0A090D0A7B227413
:1040F000656D7065726174757265223A7B2232302B
:1041000031352D30332D325430323A33313A313269
:10411000223A32322E357D7D0000000068420008D0
:1041200000000020A801000028010008FC4200084F
:10413000A8010020A8390000840100081C0000002C
:1041400043000000F8FFFFFF0C0000000E0000001D
:104150000F0000002E0000001001000043000000CE
:10416000F8FFFFFF00404040404040404040414198
:10417000414141404040404040404040404040403C
:1041800040404040400502020202020202020202D6
:1041900002020202022020202020202020202002D3
:1041A0000202020202029090909090901010101063
:1041B00010101010101010101010101010101010FF
:1041C0000202020202028888888888880808080893
:1041D000080808080808080808080808080808085F
:1041E0000202020240000000000000000000000087
:1041F00000000000000000000000000000000000BF
:1042000000000000000000000000000000000000AE
:10421000000000000000000000000000000000009E
:10422000000000000000000000000000000000008E
:10423000000000000000000000000000000000007E
:10424000000000000000000000000000000000006E
:10425000000000000000000000000000000000005E
:104260000000000000000000412D010203040410C2
:1042700009060708090204060884A24A046918010D
:104280001013783F1B088C041A94041A80041A9C9B
:10429000041A7C041A840413812B1B08E0081341C0
:1042A0003E1B08BC081361281B08F8081AAD081348
:1042B00010401B0831201AA0101A4D081A64101A59
:1042C00001081A3C08137D271B0854081315291BE5
:1042D0000828082254142009351408552D140805FF
:1042E0002E1B08710C198902DC01135D2A140801C8
:0C42F0002B140870021420702A82200099
:04000005080000ED02
:00000001FF
