:020000040800F2
:10000000103C0020E9010008EF130008A90C0008CB
:10001000EB1300086B0900089F1E00080000000099
:10002000000000000000000000000000ED150008C6
:10003000F90A000800000000751400080117000804
:10004000030200080302000803020008030200087C
:10005000030200080302000803020008030200086C
:10006000030200080302000803020008030200085C
:10007000030200080302000803020008030200084C
:10008000030200080302000803020008030200083C
:10009000030200080302000803020008030200082C
:1000A00003020008DD1700080302000865170008B6
:1000B000ED170008030200082518000803020008D5
:1000C00003020008030200080302000803020008FC
:1000D00003020008891A0008111B00080302000827
:1000E00003020008030200080302000800F002F8FF
:1000F00000F06BF80AA090E8000C82448344AAF157
:100100000107DA4501D100F060F8AFF2090EBAE854
:100110000F0013F0010F18BFFB1A43F0010318473B
:10012000308B0000508B00000A444FF0000C10F898
:10013000013B13F0070408BF10F8014B1D1108BF65
:1001400010F8015B641E05D010F8016B641E01F805
:10015000016BF9D113F0080F1EBF10F8014BAD1C55
:100160000C1B09D16D1E58BF01F801CBFAD505E073
:1001700014F8016B01F8016B6D1EF9D59142D6D3CD
:10018000704700000023002400250026103A28BFF5
:1001900078C1FBD8520728BF30C148BF0B607047F9
:1001A000642900F0C380752900F0C080782900F030
:1001B0002481632900F03A83732900F03F830020F3
:1001C00070471FB51FBD10B510BD00F0A3FB114651
:1001D000FFF7F7FF03F0F6FE00F0C1FB03B4FFF7F3
:1001E000F2FF03BC02F09BF9094880470948004729
:1001F000FEE7FEE7FEE7FEE7FEE7FEE7FEE7FEE7D7
:10020000FEE7FEE704480549054A064B7047000033
:1002100005170008ED00000810360020103C0020F3
:100220001038002010380020704710B54C1084EAB8
:10023000530404D54042C1F1000138BF491E1B429E
:1002400004D55242C3F1000338BF5B1E00F0F0F941
:1002500014F0804F04D04042C1F1000138BF491E64
:1002600014F0004F04D05242C3F1000338BF5B1EAC
:1002700010BD00000FB4044910B503AA029800F0A5
:10028000E1FA10BC5DF814FB2C00002070B50446A8
:1002900085690068C10601D5302600E02026C00728
:1002A00007D070BDD4E9012130469047206A401C38
:1002B00020626D1EF6D570BD70B504468569007864
:1002C000C00707D170BDD4E9012120209047206AE2
:1002D000401C20626D1EF6D570BD70B50C460546FB
:1002E000012A05D02878800600D5EA69002302E0BB
:1002F000012305E05B1C934202D2E05C0028F9D1A7
:10030000A869E618C01AA861286A18442862284615
:10031000FFF7BCFF04E0D5E9012114F8010B904779
:10032000B442F8D32846FFF7C7FF70BD2DE9F0416E
:100330000646002410687529314616A510D0AFF383
:100340000080002802DA404213A507E031688A07DE
:1003500001D512A502E0490704D511A5012401E049
:10036000AFF3008000210A2206F1240709E0B0FB68
:10037000F2FCB0FBF2F302FB1C003030785418465C
:10038000491C0028F3D123462A463046BDE8F041F7
:1003900000F0D0B9000000002D0000002B0000008C
:1003A00020000000F0B40D460188090502D5214C5B
:1003B0007C4402E01F4C7C440E34002100F12406F2
:1003C00008E002F00F071209E75D42EA03721B0919
:1003D0007754491C52EA0307F3D10278002312072D
:1003E00004D5702D06D009B1022311342246F0BC89
:1003F00000F0A0B901231034F8E770B504460D46AB
:1004000021461068AFF30080024629462046BDE829
:1004100070400023C6E7D21D22F00703D3E9002372
:10042000C0E70368126843F0200303600823C36138
:100430000023B7E7EE8400002DE9F05F894604460B
:100440004FF0000ADFF874B1FB44C0F820A020464A
:10045000E1688847002874D0252806D0D4E9012116
:100460009047206A401C2062F1E700265F46204644
:10047000E16888472028054607DB312D05D2781929
:1004800010F8200C08B10643F1E7B00701D526F0BB
:100490000406C4F81CA00027C4F818A02A2D09D00F
:1004A000284602F035F838B304EB8708303DC8F829
:1004B000185019E059F8041B204604EB870291619B
:1004C000E1688847012F054618D1E069002820DA45
:1004D00026F020061DE0D8F8180000EB800005EBA0
:1004E00040003038C8F818002046E16888470546C3
:1004F00002F00EF80028EED1012F0AD02E2D08D1DF
:100500002046E16888477F1C0546022F46F02006FA
:10051000C4DBA069002803DA404246F00106A0616E
:10052000F00701D026F010066C2D0BD0682D09D0F5
:100530004C2D39D06A2D35D0742D35D07A2D33D04D
:1005400016E038E0E1682F4620468847B842054665
:1005500009D16C2F26D04FF48060E1680643204615
:100560008847054604E06C2F1AD04FF4807006438C
:100570000DB3A5F14100192802D8203546F40066D4
:100580004A462946204626604E46FFF709FE80B1BE
:1005900001280BD0F61D26F0070000F1080956E7E8
:1005A0004020E4E78020D8E70020D6E706F10409E0
:1005B0004DE7284652E7206ABDE8F09F7E840000A0
:1005C00040EA010310B59B070FD1042A0DD310C8D0
:1005D00008C9121F9C42F8D020BA19BA884201D922
:1005E000012010BD4FF0FF3010BD1AB1D30703D06A
:1005F000521C07E0002010BD10F8013B11F8014B20
:100600001B1B07D110F8013B11F8014B1B1B01D13B
:10061000921EF1D1184610BD02F0FF0343EA0322F7
:1006200042EA024200F022B97047704770477047B3
:1006300053EA020C00F069802DE9F04B4FF0000600
:10064000002B1FBFB3FA83F503FA05F424FA05F66D
:100650005E4012BF1643B2FA82F502FA05F4C5F104
:1006600020051EBF22FA05FC44EA0C04203556EA98
:10067000044C4FEA144418BF641C4FF000084FF0BC
:100680000009904271EB030C39D3002919BFB1FA6C
:1006900081F701FA07F6B0FA80F700FA07F6C7F11A
:1006A00020071EBF20FA07FC46EA0C062037B6FBDF
:1006B000F4FCA7EB0507103F07F01F0BCBF120065A
:1006C0000CFA0BFB2CFA06F644BFB3460026202F8B
:1006D000A4BF5E464FF0000B5BEA060C08BF4FF06C
:1006E000010B19EB0B09ABFB027C48EB0608C01BA6
:1006F00006FB02CC0BFB03CC71EB0C01C1E70B46F4
:10070000024641464846BDE8F08B13B54FF0000065
:100710004FF00001AFF30080BDE81C40704710B5FA
:1007200000F0C4F8006810BD10B5044600F0BEF833
:10073000046010BD2DE9F0470D46994692460446E7
:1007400000F124080168880604D5E06921F0100151
:10075000216000E00120A84201DD471B00E00027E6
:10076000A1697A1902EB0900081AA0612078C00675
:1007700002D42046FFF78AFD002608E0D4E90121D3
:100780001AF806009047206A401C761C20624E45ED
:10079000F4DB2078C0060AD52046FFF777FD06E097
:1007A000D4E9012130209047206A401C2062381E85
:1007B000A7F10107F4DC07E0D4E9012118F80500EE
:1007C0009047206A401C2062281EA5F10105F3DC39
:1007D0002046FFF771FD2078000602D50220BDE813
:1007E000F0870120FBE7000001694A1C02610878DC
:1007F000704700B58FB0CDE9013100210591054961
:100800007944CDE9031011466846FFF715FE0FB095
:1008100000BD0000E5FFFFFF10B5436913B1AFF362
:10082000008001E0FFF759FD012010BD127800F1B2
:1008300024010A7000224A700122EDE711684FF08E
:10084000FF32E9E7074B70B50D467B44FFF7D1FF58
:100850000446284600F02EF810B14FF0FF3070BD6E
:10086000204670BDAF3000004FF000020429C0F0F8
:10087000128010F0030C00F02380CCF1040CBCF1CA
:10088000020F18BF00F8012BA8BF20F8022BA1EB24
:100890000C0100F015B85FEAC17C24BF00F8012B01
:1008A00000F8012B48BF00F8012B70470048704743
:1008B000B0350020007B00F0800070474FF0000250
:1008C00000B5134694469646203922BFA0E80C5046
:1008D000A0E80C50B1F12001BFF4F7AF090728BF21
:1008E000A0E80C5048BF0CC05DF804EB890028BF9D
:1008F00040F8042B08BF704748BF20F8022B11F0C6
:10090000804F18BF00F8012B704700000048704767
:10091000B03500207546FFF7F9FFAE460500694681
:10092000534620F00700854618B020B5FFF76AFC53
:10093000BDE820404FF000064FF000074FF00008E0
:100940004FF0000B21F00701AC46ACE8C009ACE861
:10095000C009ACE8C009ACE8C0098D467047044640
:10096000AFF300802046FFF739FC00BFFEE7000030
:1009700001684FF6FE721140016000210160416084
:100980008160C1604B49884208D14A4908394968A9
:1009900041F00F01474A083A51608AE04549143155
:1009A000884208D143490839496841F0F001414A79
:1009B000083A51607DE03F492831884208D13D49DD
:1009C0000839496841F470613A4A083A516070E068
:1009D00038493C31884208D136490839496841F4E0
:1009E0007041344A083A516063E0324950318842DC
:1009F00008D130490839496841F470212D4A083A34
:100A0000516056E02B496431884208D129490839A0
:100A1000496841F47001274A083A516049E0254984
:100A20007831884208D123490839496841F070611A
:100A3000204A083A51603CE01F49884206D1011F14
:100A4000096841F00F01021F116032E01A491431A8
:100A5000884208D11849091F096841F0F001164A77
:100A6000121F116025E014492831884208D112492B
:100A7000091F096841F470610F4A121F116018E0E4
:100A80000D493C31884208D10B49091F096841F4DE
:100A90007041094A121F11600BE00749503188422A
:100AA00007D10549091F096841F47021024A121F44
:100AB00011607047080002400804024010B500228F
:100AC000026847F6F0739A430C6A8B6823430C69FB
:100AD00023434C6923438C692343CC6923434C6AE9
:100AE00023438C6A23431A430260CB6843600B683C
:100AF00083604B68C36010BD70472DE9F04102462A
:100B000000250026002000230024002791F803C0C0
:100B10000CF00F0591F803C00CF0100CBCF1000FA5
:100B200003D091F802C04CEA050591F800C0BCF171
:100B3000000F31D0146800202BE04FF0010C0CFAAC
:100B400000F3B1F800C00CEA03069E4220D18300F6
:100B50004FF00F0C0CFA03F7BC4305FA03FC4CEA08
:100B6000040491F803C0BCF1280F06D14FF0010C2A
:100B70000CFA00FCC2F814C00AE091F803C0BCF102
:100B8000480F05D14FF0010C0CFA00FCC2F810C060
:100B9000401C0828D1D31460B1F800C0BCF1FF0F8D
:100BA00034DD546800202EE000F1080C4FF00108FD
:100BB00008FA0CF3B1F800C00CEA03069E4221D1FA
:100BC00083004FF00F0C0CFA03F7BC4305FA03FC4B
:100BD0004CEA040491F803C0BCF1280F05D100F1E0
:100BE000080C08FA0CF8C2F8148091F803C0BCF1A4
:100BF000480F07D100F1080C4FF0010808FA0CF873
:100C0000C2F81080401C0828CED35460BDE8F081A3
:100C1000F0B50A46002300240021002500F000461C
:100C2000B6F1004F02D11D4EF16901E01B4E716813
:100C3000C0F3034583B200F44016B6F5401F08D157
:100C400021F07061154E766826F07066134F7E6055
:100C500012E000F48016B6F5801F06D1032606FACE
:100C600005F4A14341F0706106E0460D360103FA38
:100C700006F6B14341F0706122B1460D360103FA28
:100C800006F6314300F00046B6F1004F02D1034EA4
:100C9000F16101E0014E7160F0BD00000000014013
:100CA000416170470161704700BFFEE710B5002049
:100CB0000F4908600F48006820F0F0000D490860F7
:100CC0000846006840F03000086000200A49C1F87A
:100CD000A401022002F012F8012005490860022058
:100CE00002F00CF800200449C1F8A00110BD00007A
:100CF000A0812142040C01400080214208B501215D
:100D0000082000F0E9FB4FF44070ADF8000010201F
:100D10008DF8030003208DF8020069460448FFF7B0
:100D2000ECFE0120034908600349C1F8A40108BD95
:100D3000000C0140A08121420080214210B500201A
:100D40000F4908600F48006820F0F0000D49086066
:100D50000846006840F03000086001200A49C1F8E8
:100D6000A401022001F0CAFF012005490860022009
:100D700001F0C4FF00200449C1F8A00110BD00002B
:100D8000A0812142040C01400080214270B505463B
:100D900000241748006820F0F00015490860084654
:100DA000006840F080000860002616E0002011492D
:100DB0000860022001F0A2FF01200F49C1F8A00144
:100DC0006006040E0B487C38006808B1601CC4B291
:100DD000012001F093FF701CC6B2082EE6DB15B9A6
:100DE000FFF7ACFF01E0FFF761FF204670BD000098
:100DF000040C0140A08121420080214270B50446CC
:100E00001548006820F0F0001349086008460068A3
:100E100040F030000860002010490860002517E00D
:100E2000E0090E49091D08606006040E022001F069
:100E300065FF01200A49C1F8A001022001F05EFF10
:100E4000002006490860022001F058FF681CC5B266
:100E5000082DE5DB70BD0000040C0140A08121429B
:100E60000080214210B50F48006820F0F0000D49C5
:100E700008600846006840F03000086001200A4918
:100E800008600A49C1F8A001042001F037FF0020E2
:100E900005490860042001F031FF00200349C1F832
:100EA000A00110BD040C0140A48121420080214218
:100EB00010B50F48006820F0F0000D4908600846A2
:100EC000006840F03000086000200A4908600A49C4
:100ED000C1F8A401042001F011FF012005490860B8
:100EE0000549C1F8A401042001F008FF10BD00006D
:100EF000040C0140A08121420080214210B5002451
:100F00001448006820F0F0001249086008460068A4
:100F100040F08000086001200F49086001F0EEFEFB
:100F200001200E49C1F8A00101F0E8FE07E0601CB5
:100F3000C4B2FA2C03DDFFF7BBFF012010BD064849
:100F4000803800680028F2D10349091F086000BFFB
:100F5000F4E70000040C0140A481214200802142FA
:100F600008B50121192000F0B7FA01211B48FFF74D
:100F70004FFE4FF40050ADF8000010208DF8030034
:100F800003208DF8020069461548FFF7B6FD4FF4BF
:100F900000511348FFF786FE0820ADF800006946AF
:100FA0001048FFF7AAFD1020ADF8000069460D4873
:100FB000FFF7A3FD08210B48FFF772FE1021094837
:100FC000FFF76EFE2020ADF8000048208DF80300EA
:100FD00069460448FFF791FD08BD0000000230009B
:100FE00000100140000C01402DE9FC4104460D4673
:100FF00016466B4606223B21682000F020F9074682
:10100000BFB99DF801009DF8001040EA012000B230
:1010100020809DF803009DF8021040EA012000B2F4
:1010200028809DF805009DF8041040EA012000B2D8
:1010300030803846BDE8FC812DE9FC4104460D4670
:1010400016466B4606224321682000F0F8F8074652
:10105000BFB99DF801009DF8001040EA012000B2E0
:1010600020809DF803009DF8021040EA012000B2A4
:1010700028809DF805009DF8041040EA012000B288
:1010800030803846BDE8FC812DE9F84F6B460222DE
:101090004121682000F0D3F89DF801009DF8001070
:1010A00040EA01200FFA80FA504605F0BAFE804669
:1010B00000220B4B05F02EFD06460A4A0A4B05F0AE
:1010C00079FC044605F044FC83460849584606F07E
:1010D000D9FB044606F03AFB00B2BDE8F88F0000E9
:1010E00000407540A4703D0AD74342400000C8420A
:1010F00070B5FFF703FE80216B2000F024F9642017
:1011000001F0D6FD00216B2000F01DF9032000F056
:10111000D8F8002000F0CDF8322000F0F7F80021D8
:10112000382000F010F900216A2000F00CF90021AD
:10113000232000F008F98021372000F004F9752001
:1011400000F060F80546682D0BD101216B2000F0FE
:10115000FAF800216C2000F0F6F8322000F0D6F802
:1011600001E0012070BD002424E0204B03EB440289
:101170001F4B03EB44011F4B03EB4400FFF734FF0D
:101180001C4830F914001C49096808441A490860D1
:10119000174830F9140019490968084417490860CC
:1011A000124830F9140016490968084414490860C7
:1011B000601CC4B2092CD8DB0F480068092190FBE1
:1011C000F1F000B20B4908800C480068092190FB3F
:1011D000F1F000B20649088009480068092190FB37
:1011E000F1F000B2014908800020BBE700030020B5
:1011F000EC020020D80200203C000020400000202B
:101200004400002070B50446FFF72CFED020FFF705
:10121000F5FDFFF773FE2046FFF7F0FDFFF76EFECA
:10122000FFF720FED120FFF7E9FDFFF767FE002062
:10123000FFF7ACFD0546FFF73BFE284670BD2DE9E4
:10124000F04106460F4614461D46FFF70BFE0021EF
:1012500041EA4601C8B2FFF7D1FDFFF74FFE20B1CA
:10126000FFF726FE0120BDE8F0813846FFF7C6FDF6
:10127000FFF744FEFFF7F6FD012101EB4601C8B27E
:10128000FFF7BCFDFFF73AFE0DE0012C04D1002072
:10129000FFF77CFD287003E00120FFF777FD287041
:1012A000601EC4B26D1C002CEFD1FFF701FE0020C0
:1012B000D9E710B50446E006010E1C2000F043F803
:1012C00010BD10B50446E006010E1B2000F03BF8EF
:1012D00010BD70B504460025BC2C01DB012510E0D3
:1012E000622C01DB02250CE02A2C01DB032508E03F
:1012F000142C01DB042504E00A2C01DB052500E0A9
:10130000062529461A2000F01EF870BD70B5044667
:10131000B4F57A7F01DD4FF47A74042C00DA0424EA
:101320004FF47A7090FBF4F0401EC5B229461920A4
:1013300000F009F80546264604EBD671C1F34F00CC
:10134000FFF7C7FF70BD70B505460C46FFF78AFD75
:10135000D020FFF753FDFFF7D1FD18B1FFF7A8FD2F
:10136000012070BD2846FFF749FDFFF7C7FD204665
:10137000FFF744FDFFF7C2FD18B1FFF799FD01200B
:10138000EFE7FFF795FD0020EBE72DE9F04105467B
:101390000E4617469846FFF765FD002141EA4501D4
:1013A000C8B2FFF72BFDFFF7A9FD20B1FFF780FDC5
:1013B0000120BDE8F0813046FFF720FDFFF79EFDDC
:1013C00000240CE018F80400FFF718FDFFF796FD65
:1013D00018B1FFF76DFD0120EBE7601CC4B2BC4201
:1013E000F0DBFFF765FD0020E3E700BFFEE7704795
:1013F00070B5002100230F22C47804B3154C246873
:1014000004F4E064C4F5E064210AC1F10403CA40B5
:10141000447804FA03F184781440214309010E4C06
:101420000678A155047804F01F050124AC40057826
:101430006D11AD0005F1E025C5F8004109E0047823
:1014400004F01F050124AC40044D0678761145F8E0
:10145000264070BD0CED00E000E400E080E100E01B
:1014600002490143024A1160704700000000FA057A
:101470000CED00E07047000029B1064A52690243B2
:10148000044B5A6104E0034A52698243014B5A619A
:10149000704700000010024029B1064AD269024399
:1014A000044BDA6104E0034AD2698243014BDA61FA
:1014B000704700000010024029B1064A1269024339
:1014C000044B1A6104E0034A12698243014B1A611A
:1014D000704700000010024029B1064A9269024399
:1014E000044B9A6104E0034A92698243014B9A617A
:1014F000704700000010024029B1064AD26802433A
:10150000044BDA6004E0034AD2688243014BDA609C
:10151000704700000010024030B500210022002476
:1015200000232D4D6D6805F00C0121B1042905D073
:10153000082923D105E0294D056022E0274D0560EB
:101540001FE0254D6D6805F47012234D6D6805F49C
:101550008034022505EB92421CB9214D55430560AC
:101560000BE01D4D6D6805F400351DB11C4D554354
:10157000056002E0194D5543056002E0174D056016
:1015800000BF00BF144D6D6805F0F0010909154D4D
:101590006B5C0568DD4045600F4D6D6805F4E061EA
:1015A000090A104D6B5C4568DD4085600A4D6D6829
:1015B00005F46051C90A0B4D6B5C4568DD40C560A0
:1015C000054D6D6805F44041890B074D6B5CC5689E
:1015D000B5FBF3F5056130BD0010024000127A0042
:1015E00000093D000000002010000020704710B5E9
:1015F00000F002F810BD00000CB500200190009032
:101600003348006840F480303149086000BF3048FA
:10161000006800F4003000900198401C0190009890
:1016200018B90198B0F5A06FF1D12948006800F40D
:10163000003010B10120009001E0002000900098DF
:10164000012843D12348006840F010002149086078
:101650000846006820F0030008600846006840F073
:10166000020008601A484068194948600846406806
:1016700048600846406840F480604860084640681A
:1016800020F47C1048600846406840F4E810486048
:101690000846006840F08070086000BF0C48006891
:1016A00000F000700028F9D00948406820F00300DD
:1016B000074948600846406840F00200486000BFA3
:1016C0000348406800F00C000828F9D10CBD000068
:1016D0000010024000200240042808D14FF0E02111
:1016E000096941F004014FF0E022116107E04FF079
:1016F000E021096921F004014FF0E02211617047F7
:101700007047000010B51348006840F0010011490F
:10171000086008464068104908400E49486008467D
:1017200000680E4908400B4908600846006820F42C
:10173000802008600846406820F4FE0048604FF4AE
:101740001F008860FFF753FF4FF0006004490860F6
:1017500010BD0000001002400000FFF8FFFFF6FE81
:1017600008ED00E010B510211A4800F0C6F8012875
:101770002BD11948007800F0010070B902211548FA
:1017800000F0D5F80021134800F0DEF81248006898
:1017900040F001001049086017E00E4800F0A9F879
:1017A000044600210B4800F0C2F80B48006820F006
:1017B0000100094908600846006820F47F000860BD
:1017C0000846006840EA044008601021014800F023
:1017D00081F810BD002C01409C00002010B50121B3
:1017E000014800F077F810BD002C014010B54FF013
:1017F0008040008A00F0010048B10949086980472B
:1018000000204FF0804188844FF47A7088854FF033
:101810008040008A20F001004FF08041088210BD16
:101820000401002010B50121084800F066F860B1FD
:101830000748008840F4004005490880012103481A
:1018400000F048F8002000F031F810BD000800401A
:101850000C0200207FB505460C4601210420FFF74D
:101860001BFEADF80450ADF800400020ADF80600B6
:10187000ADF8020069460C4800F068F801221146F4
:10188000094800F04BF81E208DF80C0001208DF85F
:101890000D0002208DF80E0001208DF80F0003A826
:1018A000FFF7A6FD7FBD00000008004010B504460C
:1018B00044B10021064800F047F80121044800F037
:1018C0000CF803E00021024800F007F810BD00000A
:1018D00000080040CA430282704721B1028842F0EA
:1018E0000102028004E002884FF6FE731A40028073
:1018F00070470146B1F84000704730B502460020FD
:1019000000230024158A05EA0103958905EA0104EC
:1019100013B10CB1012000E0002030BD1AB1838961
:101920000B43838102E083898B43838170470A469E
:101930000021018C4DF6FF7319404FF6FF7303EA47
:101940000233194301847047818470470022028862
:101950001D4B98420ED01D4B98420BD0B0F1804FDA
:1019600008D01B4B984205D01A4B984202D01A4B14
:10197000984204D14FF68F731A404B881A43174B85
:10198000984207D0164B984204D04FF6FF431A40B6
:10199000CB881A4302808B8883850B8803850A4B8A
:1019A00098420BD0094B984208D00E4B984205D074
:1019B0000D4B984202D00D4B984201D10B7A038611
:1019C0000123838270470000002C01400034014055
:1019D0000004004000080040000C004000100040DF
:1019E0000014004000400140004401400048014014
:1019F00038B505460C461148C06940F001000F4952
:101A0000C861880485850485808940F001008904C7
:101A100088810846008840F0010008801C208DF86D
:101A2000000004208DF8010003208DF80200012041
:101A30008DF803006846FFF7DBFC38BD001002405C
:101A400070B58CB006460C46154601210846FFF7D6
:101A500013FD3046FEF78CFF019402951020039091
:101A600000200490059080200690002007900890A8
:101A700009904FF480500A9000200B9001A9304645
:101A8000FFF71CF80CB070BD10B540F225511D4891
:101A900000F044F910B31B4800F0FCF9C4B21A4836
:101AA000008800F40040C8B91748008800F480405E
:101AB00060B10A2C03D000201349088020E01248AE
:101AC000008840F400401049088019E00D2C06D130
:101AD0000D48008840F480400B49088010E00A4817
:101AE0000088C0F30D0009490C5407480088401CC9
:101AF0000549088008460088C72801DD00200880C5
:101B000010BD00000038014030000020100200200D
:101B100010B540F22551134800F000F908B3114800
:101B200000F0B8F9C4B210480088B0F5806F12DA3E
:101B300000210E48FFF708FF0B48008810B901206C
:101B4000FFF7B4FE084801880088401C064A108050
:101B50000748445405E00448008840F40040024926
:101B6000088010BD004400400C0200200008004026
:101B7000B031002010B586B0044601210420FFF7E3
:101B8000ABFC01214804FFF787FC2D4800F078F8F2
:101B90000420ADF8100003208DF8120018208DF8F5
:101BA000130004A92748FEF7A8FF0820ADF810008D
:101BB00004208DF8130004A92248FEF79EFF00942C
:101BC0000020ADF80400ADF80600ADF80800ADF84F
:101BD0000C000C20ADF80A006946194800F0EEF838
:101BE00001228021164800F041F8174A1449091DC6
:101BF0001648FFF725FF0121114800F02BF80122BC
:101C000040F225510E4800F0B3F826208DF814005C
:101C100002208DF8150003208DF8160001208DF8A4
:101C2000170005A8FFF7E4FB41F61F416320FFF70B
:101C300011FE002006490880FFF738FE06B010BDEF
:101C40000044004000080140B02D00208000024008
:101C50000C02002021B1828942F40052828104E00A
:101C600082894DF6FF731A40828170471AB1838AC8
:101C70000B43838202E0838A8B4383827047000098
:101C800010B504462048844209D101218803FFF79A
:101C900033FC00214FF48040FFF72EFC32E01B485C
:101CA000844209D101214804FFF706FC00214FF4CA
:101CB0000030FFF701FC25E01548844209D10121DD
:101CC0008804FFF7F9FB00214FF48020FFF7F4FBB5
:101CD00018E01048844209D10121C804FFF7ECFB49
:101CE00000214FF40020FFF7E7FB0BE00A48844295
:101CF00008D101210805FFF7DFFB00214FF4801018
:101D0000FFF7DAFB10BD000000380140004400403E
:101D100000480040004C00400050004070B50246B2
:101D2000002400230025002040F66A16B14200D1AD
:101D300000BFC1F3421501F01F03012606FA03F3A9
:101D4000012D02D19689334006E0022D02D1168A78
:101D5000334001E0968A33400C12012606FA04F45F
:101D60001688344013B10CB1012000E0002070BD92
:101D7000F0B50346002400260025002040F66A172F
:101D8000B94200D100BF1846C1F3421401F01F064A
:101D9000012707FA06F5012C01D10C3004E0022CD2
:101DA00001D1103000E014301AB107682F430760EA
:101DB00002E00768AF430760F0BD00002DE9F0477F
:101DC00086B005460E460024A24600BFA146002765
:101DD000B08900B100BF2F462C8A4CF6FF7004403A
:101DE000F08804432C82AC894EF6F3100440B0888E
:101DF00031890843718908430443AC81AC8A4FF6AA
:101E0000FF400440B0890443AC8201A8FFF784FB83
:101E10001F48874202D1DDF810A001E0DDF80CA0D8
:101E2000A88900F4004040B10AEBCA0000EB0A1098
:101E300031684900B0FBF1F807E00AEBCA0000EB9B
:101E40000A1031688900B0FBF1F86420B8FBF0F0AB
:101E500004012009642101FB1089A88900F40040D5
:101E600040B1322000EBC900B0FBF1F000F00700F8
:101E7000044308E0322000EB09106421B0FBF1F0CC
:101E800000F00F0004432C8106B0BDE8F08700008D
:101E90000038014001468888C0F30800704700BF41
:101EA000FEE7490050EAC12018BF04204A0D18BFC0
:101EB00040F0010040F2FF72B2EB515F08BF40F00A
:101EC0000200012808BF0520704700002DE9F74FE8
:101ED000144694B00021C4E902111599079121F02C
:101EE0000045C9498D4206DC1599C4E9000117B0C7
:101EF0000020BDE8F08FC549DFF814A3A9423CDDFE
:101F00000799C44E0029C44FC44A1599534619DD98
:101F100005F0A2F9554506D0C14AC24B05F09CF91F
:101F2000C4E900010AE04FF0D352BE4B05F094F92A
:101F300032463B4605F090F9C4E9000117B0012094
:101F4000BDE8F08F04F036FD554506D0B44AB54BD8
:101F500004F030FDC4E900010AE04FF0D352B14B68
:101F600004F028FD32463B4604F024FDC4E900019C
:101F700017B04FF0FF30BDE8F08FAB49A94215997B
:101F800078DB21F0004183468846A84AA84B04F03C
:101F900073FF0022A74B04F00DFD04F013FF09901E
:101FA00004F03FFF06460F469C4A534604F064FF88
:101FB00043465A4605F05EF880468A46984A994B51
:101FC0003046394604F058FF2A0D01250B9242464F
:101FD000534605F04FF8032DC4E9000139D00B98A2
:101FE000C1F30A51401A05EB45111139814230DA2B
:101FF0009148C346784400EB0510CDF80CA00C9036
:10200000D0E900233046394604F036FF02460B463D
:10201000049106905846039905F01EF980468A46B9
:1020200002460B465846039905F016F9049B069A9A
:1020300005F012F983460C9803913946D0E9022342
:10204000304604F019FF5A46039B05F005F96D1C54
:10205000BDE707980028A2BF099817B0BDE8F08F28
:10206000616881F000416160099817B04042BDE8A5
:10207000F08FFFE784461598C1F31301C0F30A50AF
:10208000A0F2F5304FEA601800F01F06C6F12000FC
:10209000139000200690079041F4801E05206D46A5
:1020A00076B1664A08EB00017A4452F8213002EB1F
:1020B0008101B3404A68139922FA01F1194305E0FE
:1020C0005F4908EB0002794451F82210A1FB0E276A
:1020D000A1FB0C131A449A4234BF0123002303EBE3
:1020E000070A05EB8003D3E901B70F448F4234BFE1
:1020F0000121002193448B4411B1934502D903E09F
:10210000934501D2012100E00021C3E901B7514408
:1021100045F82010011EA0F10100C1DC0298059FC6
:1021200000F10050800F12900298DDE90356800004
:1021300004F077FE834628460D9104F089FE6FF087
:102140001D0205F044FDCDE90E01304604F080FE8D
:102150006FF03D0205F03BFD80468A46384604F0AC
:1021600077FE6FF05D0205F032FD074642465346AA
:10217000119104F01FFCDDE90E2304F01BFC5A460C
:102180000D9B04F017FC00250E465A4628460D9B71
:1021900005F062F8DDE90E2305F05EF8424653468D
:1021A00005F05AF83A46119B04F064FFDFF898A056
:1021B000244A534604F060FE07468846234A244BCF
:1021C0003146284604F058FE3A46434604F0F2FBF6
:1021D000074688464FF0A84253463146284604F049
:1021E0004BFE3A46434604F0E5FB159A12F0004FC9
:1021F00004D0129A81F0004152421292C4E90001C7
:10220000129817B0BDE8F08FFB21E93F7CD902405E
:10221000FB21F93F7370032E8A19A33B0000405441
:102220003163621A61B4D03DFB21394183C8C96D65
:10223000305FE43F0000E03F086A0000846900006E
:1022400066690000182D4454FB21F93D3326A61180
:10225000460B113C2DE9FF4D21F0004807460C4686
:10226000B8F1795F08DA04F0ADFD002801BF002065
:10227000324904B0BDE8F08D3A462346104619466F
:1022800004F0FAFD054602462D480E460B4606218F
:10229000784400F05DF82A46334604F0EDFDDDE9B0
:1022A000022382468B463846214604F0E5FD04466B
:1022B0000F4652465B462846314604F0DDFD224675
:1022C0003B4604F0C9FF07468A464FF0FF322846D6
:1022D000314605F07CFC1B4A90450ADA3A465346E3
:1022E00004F0BAFF04B00022BDE8F04D134B04F037
:1022F000C1BE154A4245A8BFA8F500154FF000041D
:10230000B8BF124D22462B4604F0A6FF064688466B
:1023100022462B460020094904F09EFF04460D4644
:102320003A4653463046414604F096FF04B02246F2
:102330002B46BDE8F04D04F09DBE00000000F03FCC
:10234000346700003333D33F0000E93F0000D23F41
:102350002DE9F0414F1E00EBC7010446D1E9000111
:1023600015461E4637F006020DD02A46334604F0C5
:1023700083FD7F1E04EBC703D3E9002304F01AFB9F
:1023800037F00602F1D1022F25D0042F13D0062FEB
:1023900018BFBDE8F0812A46334604F06DFDD4E94C
:1023A0000A2304F007FB2A46334604F065FDD4E90E
:1023B000082304F0FFFA2A46334604F05DFDD4E911
:1023C000062304F0F7FA2A46334604F055FDD4E913
:1023D000042304F0EFFA2A46334604F04DFDD4E915
:1023E000022304F0E7FA2A46334604F045FDD4E917
:1023F0000023BDE8F04104F0DDBA00002DE9FF4DF7
:10240000054621F0004084B00C46B0F1795F0BDA4C
:102410002846FFF746FD042808BF00F071F828465B
:1024200008B02146BDE8F08D2A460B46104604F060
:1024300023FD06460F462A46234604F01DFD80462E
:1024400026488A4632463B4605217844FFF780FFFE
:1024500083461098029160B3214A224B4046514670
:1024600004F00AFDCDE900015A4640465146029B60
:1024700004F002FD82468846DDE906014FF0FF3296
:1024800005F0A5FB5246434604F0E6FE32463B46C5
:1024900004F0F2FCDDE9062304F0DEFEDDE90023B2
:1024A00004F0DAFE08B02A462346BDE8F04D04F0F9
:1024B000E1BD0B465A463046394604F0DDFC084A79
:1024C000084B04F077FA4246534604F0D5FC08B0B6
:1024D0002A462346BDE8F04D04F06CBA7A66000047
:1024E000495555555555C5BF012205F070BB04F03F
:1024F00061BA002213461046114604F00BBB0000DF
:10250000024A0020110705F062BB000001FDFFFF39
:1025100030380A2801D20120704700207047014658
:1025200000BF704710B50120074908600749C1F88E
:10253000900141F2883000F0BBFB002002490860A6
:102540000249C1F8900110BD8C81214200802142D6
:102550002DE9FE4F06460F460025684601F0DCF9DE
:10256000002442E056F8240057F82410A0EB010A9A
:10257000BAF1000F01DB514601E0CAF10001084643
:1025800005F020F983464FF08F4104F0E9FF8046C3
:102590005DF82400002105F0A5F816D05DF82410A0
:1025A000404604F0DDFF82464FF07E5105F068FAA8
:1025B000814629F0004A0F48416A504605F02EFA3C
:1025C00012D20120A04005430EE00A48C1694046EE
:1025D00005F024F905D30748016A404605F01EFAC4
:1025E00002D20120A0400543641C032CBADB28461C
:1025F000BDE8FE8F847C00082DE9F04D8D4F21F061
:10260000004A86B005460C46BA452ADBAAEB07000D
:1026100028430AD08848824501DC1AD1CDB106B0E2
:102620002846BDE8F04DFFF75FBF844A844B28463B
:1026300004F022FC07460E46824A834B2846214678
:1026400004F01AFC06B03A463346BDE8F04D04F0FB
:10265000B1B90120FEF768F806B0BDE8F04DFFF70C
:1026600048BF7A48824542DABAF1795F0BDA2846E8
:10267000FFF717FC042808BFFFF742FF284606B003
:102680002146BDE8F08D2A460B46104604F0F4FBC7
:10269000834602466E480E460B4606217844FFF7F5
:1026A00057FE5A46334604F0E7FB804669488A469F
:1026B0005A46334604217844FFF74AFE5A463346C9
:1026C00004F0DAFB00223B4604F074F902460B46A4
:1026D0004046514604F01EFA2A46234604F0CCFB3D
:1026E00006B02A462346BDE8F04D04F063B92846FB
:1026F00024F0004100223D463B4604F0BBFC4FF075
:10270000FF3205F064FA0646024653480F460B4670
:1027100006217844FFF71CFE32463B4604F0ACFB32
:10272000CDE900014D4832463B4604217844FFF78D
:102730000FFE32463B4604F09FFB00222B4604F07E
:1027400039F9834602913046394602F0CDFF804682
:1027500043480D46504517DCDDE900015A46029B0F
:1027600004F0D8F942462B4604F086FB42462B463D
:1027700004F020F9012205F02AFA304A304B04F027
:102780006BFD304A304B4CE04FF0000A52460B468E
:10279000404604F00FF9CDE9031052462B4610468F
:1027A000194604F069FB32463B4604F063FCDDE960
:1027B000033204F0AFF906460F46DDE900015A4640
:1027C000029B04F0A7F98346009101223046394666
:1027D00005F0FDF9194A1A4B04F04CFC06460F4669
:1027E00001224046294605F0F2F95A46009B04F0C2
:1027F00043FB32463B4604F02FFD06460F460122BE
:102800005046294605F0E3F90E4DDFF858802A4678
:10281000434604F02FFC32463B4604F02BFC2A468C
:10282000434604F027FC002CD8BF81F0004106B0DD
:10283000BDE8F08D0000F03F0000F07F075C14332E
:1028400026A6913C182D4454FB21F93F0000E03F9F
:102850004062000056620000CA610000E0610000B2
:102860003333EF3FFB21E93F2DE9F84F04460D4696
:1028700021F0004000917349814211DC7249884285
:1028800001DC06D12CB120462946BDE8F84FFFF700
:102890002BBE6E48002DCCBF6D496E49BDE8F88F48
:1028A0006D49814211DD6D498142D8BF4FF0FF363D
:1028B0006DDD20462946FFF7F4FA042808BFFFF72C
:1028C0001FFE20462946BDE8F88F6549654F25F073
:1028D0000045814233DD6449814219DD00263246DC
:1028E0004FF080432046294604F064F880468A462B
:1028F00001222046294605F06AF900223B4604F0F1
:10290000ABFC4246534604F005F904460D463EE052
:1029100001260022BA463B462046294604F04AF8E2
:1029200080460F46002253462046294604F094FC78
:1029300042463B4604F0EEF804460D4627E04B497C
:1029400081421BDDDFF828A10226002253462046E3
:10295000294604F091FA00223B4604F02BF8804609
:102960000F46002253462046294604F075FC424695
:102970003B4604F0CFF804460D4608E00326224605
:102980002B4600203B4904F0C5F804460D4622467C
:102990002B461046194604F06FFA8B4682460246D3
:1029A0000B4604F069FA07460246334888460B4650
:1029B00006217844FFF7CCFC52465B4604F05CFAF3
:1029C00082462E488B463A46434605217844FFF717
:1029D000BFFC3A46434604F04FFA02460B46002E2F
:1029E000504659460CDA03F0E5FF22462B4604F028
:1029F00043FA01B022462B46BDE8F04F04F03ABB43
:102A000003F0D8FF22462B4604F036FA1C4A7A44DB
:102A100002EBC603D3E9002304F01EFC22462B463A
:102A200004F01AFC174A7A4402EBC603D3E90023E8
:102A300004F020FB009A002AB8BF81F00041BDE8F5
:102A4000F88F0000000010440000F07F182D44545F
:102A5000FB21F93FFB21F9BF0000DC3F0000203ED5
:102A60000000F33F0000F03F0000E63F008003401D
:102A70000000F83F0000F0BFE25F0000A05F000030
:102A80003E5F0000065F00002DE9F04D9446CCF15A
:102A9000000423F000464CEA0404524F46EAD47482
:102AA0009A46884621F00042BC4206D8454240EA98
:102AB000050442EAD474BC4204D9BDE8F04D624634
:102AC000FFF715BDAAF14055A5F17F6555EA0C0445
:102AD0000BD0022404EAAA74434DDFF810E144EA63
:102AE000D87452EA000B04D00CE0BDE8F04DFFF7BB
:102AF000BBBE002C14BF012CBDE8F08D022C30D0E1
:102B0000032C32D056EA0C0B0AD0BE4220D1BA4276
:102B100009D126F0804622F080423346114617E064
:102B200000291ADB25E0DFF8C8B0FB44002C04BF05
:102B3000DBE90001BDE8F08D012C02BFDBE90001FB
:102B400081F00041BDE8F08D022C0AD0032C0CD09E
:102B5000BA4212D1B8F1000F0BDA23482549BDE87B
:102B6000F08D28462449BDE8F08D28467146BDE821
:102B7000F08D1D482149BDE8F08D921B12153C2AAD
:102B8000C4BF19481D490EDCBAF1000FBEBF12F1D7
:102B90003C0F0020014606DB624603F0BBFF21F03C
:102BA0000041FFF761FE002C08BFBDE8F08D012C4D
:102BB00004BF81F00041BDE8F08D114A114B022C99
:102BC00007D004F049FB2A46BDE8F04D0A4B04F05B
:102BD00043BB04F041FB2A46BDE8F04D064B04F030
:102BE00049BA00000000F07F182D4454FB2109C0B1
:102BF000CA5E0000FB21F9BFFB210940FB21F93F20
:102C0000075C143326A6A13C2DE9F0410446E07888
:102C100000F0C006E07800F03F05607800F00100A9
:102C200098B1EF102846E91705EB5171C910A5EBD3
:102C3000C101491C01F0FF080B48006820B10A4897
:102C4000414602683846904700BF607800F00800AF
:102C500030B10548406818B1B011034A516888473F
:102C60000020BDE8F08100001403002010B56FF0D3
:102C70000400FEF731FD0A4800680A49B0FBF1F094
:102C8000094908700846007800EB4001C1EBC0100C
:102C90004FF6FF7101EAC0000449088010BD000032
:102CA0001400002000127A00280000202A000020D2
:102CB0000146114A12884A434FF0E0235A6100222C
:102CC0009A611A46126942F001021A6100BF4FF080
:102CD000E022106900F001021AB100F48032002AEB
:102CE000F5D04FF0E022126922F001024FF0E0230C
:102CF0001A6100229A6170472A0000200146114A99
:102D000012784A434FF0E0235A6100229A611A4632
:102D1000126942F001021A6100BF4FF0E02210690F
:102D200000F001021AB100F48032002AF5D04FF011
:102D3000E022126922F001024FF0E0231A61002222
:102D40009A6170472800002038B5044664B12020FD
:102D50008DF8000028208DF8010030208DF8020049
:102D600038208DF8030004E0A32204216846FDF713
:102D700053FC6A46042140F69E2002F057FB01F006
:102D800041FF38BD3EB5044602208DF80000CA2040
:102D90008DF80100E3208DF8020009208DF8030072
:102DA0006A460421682002F041FBA3208DF8000050
:102DB00004F0400048B1C0208DF80100C8208DF813
:102DC0000200C2208DF8030006E0A3208DF8010068
:102DD0008DF802008DF8030004F4C07048B1C420DF
:102DE0008DF80400CC208DF80500C6208DF8060073
:102DF00006E0A3208DF804008DF805008DF806008C
:102E0000A3208DF807008DF808008DF809006A46A8
:102E10000A2140F6A72002F009FB04F0030018B1D4
:102E200020208DF8000002E0D8208DF800006A46CE
:102E3000012140F6B62002F0F9FA04F0200018B1A2
:102E4000012000F0ADF802E0002000F0A9F804F441
:102E5000C07008B304F4807060B1B2208DF8000037
:102E60008B208DF80100B6208DF802009B208DF894
:102E700003000BE0B0208DF8000080208DF80100E9
:102E8000B4208DF8020090208DF803006A460421DA
:102E900040F6A22002F0CAFA04F0010020B3F820A4
:102EA0008DF800006A4601214FF40B6002F0BEFA73
:102EB000FA21072000F02CFC072000F0F3FB012092
:102EC00000F013FC642000F0F3FC4FF4FA7000F003
:102ED00002FDC821304800F0A3FB282000F0BCFB15
:102EE0000A2000F0CCFB08E0D8208DF800006A46EC
:102EF00001214FF40B6002F099FA04F0020018B1BE
:102F0000D9208DF8000002E0D8208DF800006A4634
:102F1000012140F23D7002F089FA04F0040018B17A
:102F2000012000F069F802E0002000F065F804F0EC
:102F3000100018B10120FFF707FF02E00020FFF7A3
:102F400003FF44F008001549488101F05BFE0020B2
:102F50001249887304F0400018B10846807B801D38
:102F6000887304F4C07020B10C48807B801D0B492D
:102F7000887304F0140020B10848807B10300749A2
:102F8000887304F0030020B10448807B001D0349CE
:102F9000887300203EBD000009E3CA02140300202C
:102FA0003EB504466CB10EA1D1E900208968CDE997
:102FB000002002916A4609214FF4976002F036FA28
:102FC0003EBD0AA2D2E900109268CDE9010200914B
:102FD0006A4609214FF4976002F028FAF0E70000F2
:102FE000B8AAB38DB4980D355D000000B8AAAAAA9E
:102FF000B088C3C5C700000038B5044664B1C0201E
:103000008DF80000C2208DF80100C4208DF8020068
:10301000C6208DF8030004E08B2204216846FDF7EA
:10302000FBFA6A46042140F6982002F0FFF901F00D
:10303000E9FD38BD10B5C8234FF48062024940F65F
:10304000F63001F073FC10BDAC7C00082DE9F04FA8
:103050008DB00746884615469946DDE9166B002473
:10306000002030806B49887B5A4605A901F02AFD73
:1030700018B1601E0DB0BDE8F08F6648807A00F090
:103080001400002867D09DF8140000069DF8151064
:1030900040EA01409DF8161040EA01209DF8171003
:1030A000084328609DF8180000069DF8191040EAB2
:1030B00001409DF81A1040EA01209DF81B100843BA
:1030C00068609DF81C0000069DF81D1040EA014054
:1030D0009DF81E1040EA01209DF81F100843A860CB
:1030E0009DF8200000069DF8211040EA01409DF85F
:1030F000221040EA01209DF823100843E86004F103
:103100001000C4B22868001401906868001402908E
:10311000A86800140390E8680014049001984043E4
:10312000029901FB0100039901FB0100049901FBD5
:10313000010ABAF1706F02DBBAF1885F05DD01F0B8
:1031400061FD00203080401E94E7B6F9000040F495
:103150008070308000BF2F48807A00F0400020B39C
:1031600005A9601C085C095D40EA012000B2A8F8CE
:10317000000005A9E01C095C05AAA01C105C41EA3E
:10318000002000B2A8F8020005A9601D095C201DFE
:10319000105C41EA002000B2A8F80400A01DC4B2EF
:1031A000B6F9000040F0080030801A48408900F469
:1031B000C07008B305A9601C085C095D40EA0120E5
:1031C00000B2388005A9E01C095C05AAA01C105CAF
:1031D00041EA002000B2788005A9601D095C201D2D
:1031E000105C41EA002000B2B880A01DC4B2B6F95C
:1031F000000040F0700030800648807A00F0030044
:1032000018B105A90819FFF7FFFC484601F022F89C
:1032100000202FE71403002070B588B0064601A8EF
:1032200001F0D8F9BDF804000021C90341EA504576
:10323000C4034448007A00F0030056F820000590CB
:103240004048007A00F0040010B105984042059013
:103250003C48007AC0F3C10056F820000690394877
:10326000007A00F0200010B10698404206903548E0
:10327000007AC0F3811056F8200007903148008989
:1032800000F4807010B10798404207900598C1176C
:10329000A0FB042301FB043100FB0510810041EA7F
:1032A000927005900698C117A0FB042301FB04311E
:1032B00000FB0510810041EA927006900798C11743
:1032C000A0FB042301FB043100FB0510810041EA4F
:1032D000927007900598000E8DF808000598000C74
:1032E0008DF809000598000A8DF80A000598C0B20B
:1032F0008DF80B000698000E8DF80C000698000C57
:103300008DF80D000698000A8DF80E000698C0B2E0
:103310008DF80F000798000E8DF810000798000C2C
:103320008DF811000798000A8DF812000798C0B2B6
:103330008DF8130002AA0C214FF4257002F076F8E4
:1033400008B070BD1403002030B585B0044616A245
:1033500007CA02AB07C3C82C03DD4FF0FF3005B02E
:1033600030BDC82090FBF4F0401E85B2280A8DF8CD
:103370000000E8B28DF801006A46022140F21620F2
:1033800002F054F810B14FF0FF30E8E702AA0C2128
:1033900040F6C12002F04AF810B14FF0FF30DEE7EE
:1033A000044884810020DAE7FEF2ABC4AAF1DFDF33
:1033B000BBAFDFDF140300201FB504464848007A86
:1033C00000F0030054F8200001904548007A00F016
:1033D000040010B10198404201904148007AC0F3C6
:1033E000C10054F8200002903D48007A00F020000F
:1033F00010B10298404202903948007AC0F381101F
:1034000054F8200003903648008900F4807010B111
:103410000398404203903349019880FB0101800FDB
:1034200040EA810001902F49029880FB0110820040
:1034300042EA917002902B49039880FB01108200B0
:1034400042EA917003900198000E8DF800000198F7
:10345000000C8DF801000198000A8DF80200019817
:10346000C0B28DF803006A4604214FF4747001F075
:10347000DDFF18B14FF0FF3004B010BD0298000E10
:103480008DF800000298000C8DF801000298000AE7
:103490008DF802000298C0B28DF803006A4604213C
:1034A0004FF4757001F0C2FF10B14FF0FF30E3E749
:1034B0000398000E8DF800000398000C8DF80100B1
:1034C0000398000A8DF802000398C0B28DF803003B
:1034D0006A4604214FF4767001F0A8FFCCE70000A3
:1034E0001403002009E3CA0210B586B0044647A0C1
:1034F0000068039046A00068029046A00068019012
:1035000045A00068009004F0030003A9085C8DF852
:10351000140003A8C4F3C101405C8DF8150003A892
:10352000C4F38111405C8DF8160004F0030002A979
:10353000085C8DF8100002A8C4F3C101405C8DF84E
:10354000110002A8C4F38111405C8DF8120005AA95
:10355000032140F2264001F069FF18B14FF0FF301F
:1035600006B010BD04AA032140F22A4001F05EFF1C
:1035700010B14FF0FF30F3E70198059000980490E8
:1035800004F0040058B19DF8140040F001008DF8DB
:1035900014009DF8100040F001008DF8100004F0B8
:1035A000200058B19DF8150040F001008DF815007D
:1035B0009DF8110040F001008DF8110004F48070B6
:1035C00058B19DF8160040F001008DF816009DF8E6
:1035D000120040F001008DF8120005AA03214FF4FB
:1035E000886001F023FF10B14FF0FF30B8E704AA64
:1035F000032140F2314001F019FF10B14FF0FF30CC
:10360000AEE7064804810020AAE700004CCD6C001C
:103610000CC92C003656760026466600140300209E
:10362000F8B505460E464FF47A7095FBF0F000FBB6
:1036300006F4200E8DF80000200C8DF80100200A01
:103640008DF80200E0B28DF803006A4604214FF4C1
:10365000AE7001F0EBFEF8BD38B50446052094FBD2
:10366000F0F084B220128DF80000E0B28DF8010075
:103670006A4602214FF4AD7001F0D8FE38BD38B56E
:103680000446052094FBF0F084B220128DF800006F
:10369000E0B28DF801006A4602214FF4AC7001F0EF
:1036A000C5FE38BD38B504460020009004F0010086
:1036B00020B19DF8000040F03000009004F00200BE
:1036C00020B19DF8000040F00C00009004F00400D0
:1036D00020B19DF8000040F0030000906A460121EF
:1036E0004FF4A47001F0A2FE38BD38B50446012C99
:1036F00001DA012402E0042C00DD0424601EC0B2C3
:1037000000906A46012140F24F1001F08FFE38BD53
:103710002DE9FC4706460F4606F0070010B1B7F545
:10372000C86F03DD4FF0FF30BDE8FC87384604F07A
:1037300061F88146594903F013FF8046684600F05E
:1037400023FF9DF80000022806D0042816D0082880
:1037500026D0102848D135E04FF08D41404604F086
:1037600091F8814604F00EF884B24D49404604F0C9
:1037700089F8814604F006F885B238E04FF08C41B4
:10378000404604F07FF8814603F0FCFF84B24549CF
:10379000404604F077F8814603F0F4FF85B226E056
:1037A0004FF08B41404604F06DF8814603F0EAFF8C
:1037B00084B23D49404604F065F8814603F0E2FFDB
:1037C00085B214E04FF08A41404604F05BF8814630
:1037D00003F0D8FF84B23549404604F053F88146DF
:1037E00003F0D0FF85B202E04FF0FF309CE700BF4E
:1037F00020128DF80400E0B28DF8050028128DF833
:103800000600E8B28DF8070006F00100A0B101AA99
:1038100002214FF4EA7001F009FE10B14FF0FF30C1
:1038200082E70DF1060202214FF4927001F0FEFDD5
:1038300010B14FF0FF3077E706F00200A0B101AA07
:1038400002214FF4EC7001F0F1FD10B14FF0FF30A8
:103850006AE70DF1060202214FF4947001F0E6FDD3
:1038600010B14FF0FF305FE706F00400A0B101AAED
:1038700002214FF4EE7001F0D9FD10B14FF0FF308E
:1038800052E70DF1060202214FF4967001F0CEFDD1
:1038900010B14FF0FF3047E7002045E700004843F4
:1038A000000040460000C045000040450000C04404
:1038B00038B50446052094FBF0F085B228128DF847
:1038C0000000E8B28DF801006A4602214FF4EF7063
:1038D00001F0ACFD38BD38B50446052094FBF0F08E
:1038E00085B228128DF80000E8B28DF801006A4612
:1038F00002214FF4ED7001F099FD38BD00BF054A7B
:10390000128802F04002002AF9D0C2B2014B1B1DFE
:103910001A807047003801407CB50546284949683F
:10392000087801AB04220D21FDF789FC08B10720BE
:103930007CBD9DF80700C0F301109DF8041001F054
:10394000E00140EAE1008DF800009DF80700C0F3B7
:1039500081009DF8051001F0E00140EAE1008DF8DA
:1039600001009DF8070000F003009DF8061001F02B
:10397000E00140EAE1008DF8020000241CE01DF89F
:10398000040018B9002045F8240013E00D4845F85C
:10399000240006E055F824000B4903F073FF45F8B6
:1039A00024001DF80400401EC0B20DF804000028D9
:1039B000F0D100BF601CC4B2032CE0DB0020B7E7ED
:1039C000640000207B14AE3E1D5A843F2DE9F04F69
:1039D00087B005460C46914601208DF81000002066
:1039E0008DF81100FE4A1268917CFD4A52681078E9
:1039F00004AB0222FDF7C9FC20B14FF0FF3007B045
:103A0000BDE8F08FC820FFF753F900208DF81000B3
:103A1000F34A1268D17BF24A5268107804AB012253
:103A2000FDF7B3FC10B14FF0FF30E8E7EC4A126845
:103A30005179EB4A5268107804AB0122FDF7A5FCDE
:103A400010B14FF0FF30DAE7E54A1268917CE44AA2
:103A50005268107804AB0122FDF797FC10B14FF0CB
:103A6000FF30CCE7DE4A1268D17DDD4A526810781B
:103A700004AB0122FDF789FC10B14FF0FF30BEE727
:103A8000D74A12681179D64A5268107804AB0122DD
:103A9000FDF77BFC10B14FF0FF30B0E70C208DF844
:103AA0001000CF4A12681179CD4A5268107804ABE1
:103AB0000122FDF76AFC10B14FF0FF309FE70F20A5
:103AC000FFF7F6F8C648806A407A8DF81000C44ABD
:103AD00012689178C24A5268107804AB0122FDF74F
:103AE00054FC10B14FF0FF3089E7BD48806A007A7E
:103AF0008DF81000BA4A12685178B94A52681078A5
:103B000004AB0122FDF741FC10B14FF0FF3076E726
:103B1000B9F1000F07D0B248806A807A40F0E00027
:103B20008DF8100004E0AE48806A807A8DF81000AD
:103B3000AB4A12689179AA4A5268107804AB012204
:103B4000FDF723FC10B14FF0FF3058E7B9F1000F3B
:103B500007D0A348806AC07A40F0E0008DF81000DA
:103B600003E0A048C07A8DF810009D4A1268D17910
:103B70009B4A5268107804AB0122FDF706FC10B195
:103B80004FF0FF303BE7B9F1000F02D0C820FFF73C
:103B90008FF840208DF81000914A12681179904AF0
:103BA0005268107804AB0122FDF7EFFB10B14FF023
:103BB000FF3024E778208DF81000894A1268517987
:103BC000874A5268107804AB0122FDF7DEFB10B182
:103BD0004FF0FF3013E783498889FFF769F8002029
:103BE0008DF810007E4A126851797D4A526810782B
:103BF00004AB0122FDF7C9FB10B14FF0FF30FEE628
:103C0000774A1268917A764A5268107804AB022299
:103C1000FDF715FB10B14FF0FF30F0E69DF81100F5
:103C20009DF8101040EA012B0C209BFBF0F0C6B26F
:103C30000020A86068602860A06060602060824604
:103C400065E0674A1268D17A654A5268107804AB19
:103C50000C22FDF7F4FA10B14FF0FF30CFE69DF8DB
:103C600011009DF8101040EA012000B2ADF80800E4
:103C70009DF813009DF8121040EA012000B2ADF843
:103C80000A009DF815009DF8141040EA012000B2CA
:103C9000ADF80C00BDF90810206808442060BDF99B
:103CA0000A10606808446060BDF90C10A068084400
:103CB000A0609DF817009DF8161040EA012000B2A0
:103CC000ADF800009DF819009DF8181040EA012099
:103CD00000B2ADF802009DF81B009DF81A1040EAF2
:103CE000012000B2ADF80400BDF9001028680844B6
:103CF0002860BDF90210686808446860BDF90410C6
:103D0000A8680844A8600AF1010000F0FF0AB24563
:103D100097DB3448D0F800C02868C117090441EA8D
:103D200010410704624600233846FCF77EFA32460B
:103D30000023CDE90201FCF778FA28602948D0F881
:103D400000C06868C117090441EA104107046246CF
:103D500000233846FCF769FA32460023CDE9020118
:103D6000FCF763FA68601F48D0F800C0A868C11764
:103D7000090441EA10410704624600233846FCF773
:103D800054FA32460023CDE90201FCF74EFAA8604E
:103D90001448D0F804C02168C817000440EA11484C
:103DA0000F046246002338464146FCF73EFA32468D
:103DB0000023CDE90201FCF738FA20600948D0F869
:103DC00004C06068C117090441EA10410704624653
:103DD00000233846FCF729FA3246002304E00000AD
:103DE00064000020847C0008CDE90201FCF71DFA84
:103DF00060601148D0F804C0A068C117090441EA06
:103E000010410704624600233846FCF70EFA32469A
:103E10000023CDE90201FCF708FAA060A0680028A1
:103E200004DDA068A0F58030A06003E0A06800F584
:103E30008030A0600020E2E5847C00082DE9FC5F72
:103E400006460F4600253D494968087801AB032224
:103E50000D21FDF7F4F910B10720BDE8FC9F9DF896
:103E6000040000F01F008DF804009DF8050000F02C
:103E70001F008DF805009DF8060000F01F008DF86A
:103E80000600002456E056F8240057F82410A0EB52
:103E9000010BBBF1000F01DB594601E0CBF1000142
:103EA000084603F08FFC4FF08F41009003F058FB61
:103EB000814601A8005D68B32149086803F09AFCB7
:103EC000834659461F4803F04BFB804604E01E49D9
:103ED000404603F0D7FC804601A8005D401EC0B2FA
:103EE00001A908550028F2D14146484603F038FBA5
:103EF00083464FF07E5103F0C3FD82462AF0004B0B
:103F00000F488169584603F089FD12D20120A04074
:103F100005430EE00A480169484603F07FFC05D3DB
:103F200007484169484603F079FD02D20120A040CC
:103F30000543641C032CA6DB28468EE764000020A2
:103F4000847C000800B04C4554E3853F10B504461E
:103F5000204600F00FF80346E01C00F00BF843EA9F
:103F6000C00083B2A01D00F005F843EA801083B2C0
:103F7000184610BD014691F90020002A01DD0020FD
:103F80001EE091F90020002A01DA042018E091F9DE
:103F90000120002A01DD012012E091F90120002A10
:103FA00001DA05200CE091F90220002A01DD02204F
:103FB00006E091F90220002A01DA062000E007203D
:103FC0007047000000BF00BF002441A041490860C5
:103FD00041A0486001208860FEF748FE4FF416506B
:103FE00001F0EEFBFCF7BCFF002040490860012017
:103FF0003F49C1F890010020C1F890013D48416857
:104000004820884700F0BCF84FF4A060FDF728FA7C
:10401000FDF76EF800BF00F069FA0028FBD14FF4FD
:104020001650FDF7A7FD52E0FDF72EF83249086063
:10403000324A33493348FCF7D7FF334A33493448CF
:10404000FCF7FAFF334A3449344800F03DF901F0F7
:10405000A3FA00B100E000BF31492F48006803F027
:1040600011FC074603F0E2F9054601F0EDFA2C4990
:10407000204603F007FC074603F0D8F9054601F097
:10408000E3FA204603F0D2F90546264A264B02F011
:1040900091FC074602F05CFC0446244801681D4878
:1040A000006803F0EDFC05461A4800681F490860E7
:1040B0001F480068C0431F49C1F8B4011E20FEF725
:1040C000F7FD0020094908600949C1F89001ABE7F4
:1040D00031383800A42D0020323031352D30332DC9
:1040E00030325430323A33313A3132008C8121420D
:1040F00000802142040100205000002038000020F0
:1041000036000020340000204C0000204A0000202F
:10411000480000205C0000205800002054000020CF
:10412000000020419A9999999999A93F600000202F
:10413000B40122420000224270B505460F48007CBF
:1041400020B90E4908688047012070BDB5F5205F91
:1041500011D269090948C06830F81120002406E02E
:104160000020064BDB680E1923F81600641C9442ED
:10417000F6DB0020E9E70220E7E70000F801002075
:1041800000B509494FF42072C868002101F0ACF96C
:1041900005494FF420528868002101F0A5F901205B
:1041A0000149087400BD0000F80100202DE9F0412C
:1041B00006460024A0461A48007C10B91849086831
:1041C00080471EB94FF0FF30BDE8F081C6F34F15B0
:1041D00006F01F0008B1681C85B240F23F141AE0D7
:1041E0000F48C06830F8140020B908F101001FFA28
:1041F00080F801E04FF00008A8450BD1002705E04A
:104200000748C068E11920F811507F1CAF42F7D36E
:104210006001D9E7641E002CE2DA4FF0FF30D3E7EB
:10422000F80100200022002106E00948C06830F8AB
:10423000110000B1521C491CB1F5A07FF5D36420D8
:1042400050434FF4A073B0FBF3F0C0B270470000CE
:10425000F80100207047000070B50446002624F0E5
:104260000104184890F8240008B1002070BD1548DA
:10427000807A10B94FF0FF30F8E71248057C807A59
:104280002040104908740846007CA04202D04FF03C
:10429000FF3600E0002614B90A48007D18B101205D
:1042A00001F08AF902E0002001F086F93CB100F04B
:1042B000A9FC20B1034805744FF0FF30D6E7304623
:1042C000D4E70000640000202DE9F04F99B00446C7
:1042D0000D4616464FF07E574FF000084FF000098C
:1042E0004FF0000A12A813A918AB0EAACDE90010CE
:1042F00014A916A8FEF7AAFE18B1012019B0BDE84E
:10430000F08FBDF84C0000F4807000287ED00E982D
:1043100003F058FA83464FF09D4103F021F9074618
:104320000F9803F04FFA83464FF09D4103F018F9C0
:104330008046109803F046FA83464FF09D4103F003
:104340000FF98146119803F03DFA83464FF09D41E5
:1043500003F006F9824639464FF0804003F092FAA6
:104360004946059003F08EFA414607904FF04040D1
:1043700003F088FA5146059003F084FA06900799F5
:1043800003F080F8834603F051F8CDE90801FEF709
:1043900033F94FF06632544BCDE90A0102F06CFD5F
:1043A000CDE90C0102F0D4FA206049464FF080407C
:1043B00003F068FA4946029003F064FA414604901B
:1043C0004FF0404003F05EFA4146029003F05AFA83
:1043D0000390049903F054FB83464FF07E5103F0A1
:1043E00051F8059003F022F8CDE9080139464FF065
:1043F000804003F047FA4146039003F043FA4946F0
:1044000004904FF0804003F03DFA00E068E0514630
:10441000039003F037FA8346049903F033F80590CC
:1044200003F004F8CDE90601DDE90823FEF72CFBD3
:104430004FF066322C4BCDE90A0102F01DFDCDE9AB
:104440000C0102F085FA28605146504603F01AFA32
:1044500049460490484603F015FA41460390404609
:1044600003F010FA39460190384603F00BFA009039
:10447000019903F007F80290039903F001FB8346CA
:10448000049903F0FDFA059002F0D0FFCDE9080190
:104490005146384603F0F6F949460490404603F089
:1044A000F1F90390049902F0EDFF4FF0804105907F
:1044B00003F0E8F9834602F0B9FFCDE90601DDE932
:1044C0000823FEF7E1FA4FF06632074BCDE90A0107
:1044D00002F0D2FCCDE90C0102F03AFA306001E0C2
:1044E00002200BE7002009E766A64C4070B50024C7
:1044F000FCF704FC00F022F9002840D1782000F0FD
:104500002DFFC4B20CB1012070BD7820FFF7A4FECE
:10451000C4B20CB10220F7E7642000F0D1FEC4B2AF
:104520000CB10320F0E7FEF785FDC4B20CB1042006
:10453000EAE71448FFF70AFD0546FEF7D5FFC4B2C7
:104540000CB10520E0E740F27310FEF71BFCC4B28B
:104550000CB10620D8E76420FEF7F6FEC4B20CB119
:104560000720D1E700F0CDFF04460CB10820CBE7CF
:10457000012000F0A1FDC4B20CB10920C4E7002065
:10458000C2E700009000002001461148407A30B197
:10459000012807D0022808D003280CD108E0022007
:1045A00008700BE00420087008E00820087005E09F
:1045B0001020087002E04FF0FF30704700BF044841
:1045C000C07C18B108784006000E08700020F4E79F
:1045D0006400002001461348407A30B1012808D019
:1045E00002280AD0032810D10BE04FF48040088045
:1045F0000EE041F69C7008800AE04FF4805008807D
:1046000006E04FF40060088002E04FF0FF30704792
:1046100000BF0448C07C10B108884010088000200A
:10462000F5E700006400002001460248007C0870A5
:10463000002070476400002001460F48007A30B126
:10464000012807D0022809D003280FD10AE0FA2058
:1046500008800EE04FF4FA7008800AE04FF47A7098
:10466000088006E04FF4FA60088002E0002008802D
:1046700000BF00BF002070476400002001460E48C4
:10468000007A30B1012807D0022808D003280CD1C5
:1046900008E00A4808600BE00948086008E009489B
:1046A000086005E00848086002E04FF0FF307047FE
:1046B00000BF0020FBE7000064000020000003436F
:1046C00000008342333303423333834101461248AF
:1046D000C07A082817D2DFE800F01704070A0D1087
:1046E0001318BC20088013E06220088010E02A2004
:1046F00008800DE0142008800AE00A20088007E006
:104700000520088004E000BF00BF0020088000BF33
:1047100000BF0020704700006400002001460648EA
:1047200090F8240010B14FF0FF3070470248C08964
:1047300008800020F9E70000640000201CB58020FC
:104740008DF80000654A1268917C644A52681078BE
:104750006B460122FCF719FE10B14FF0FF301CBD73
:104760006420FEF7A5FA00208DF800005B4A12686D
:10477000917C5A4A526810786B460122FCF705FE7C
:1047800010B14FF0FF30EAE7544A1268917D534A66
:10479000526810786B460622FCF751FD10B14FF0BD
:1047A000FF30DCE79DF80500C007400F9DF80310BF
:1047B00001F0010140EA41009DF8011001F0010102
:1047C00040EA010494B1012C03D101214348C17492
:1047D00031E0022C03D100214048C1742BE0214676
:1047E0003FA0FBF747FD4FF0FF30B8E73B4A1268A8
:1047F000D1783A4A526810786B460122FCF71FFDC7
:1048000010B14FF0FF30AAE79DF8000000F00F0450
:104810002CB93D48FBF72EFD4FF0FF309FE7042CED
:1048200006D13AA0FBF726FD01212C48C17402E015
:1048300000212A48C174FF2128488172FF2027499E
:104840000872FF2125484172C1724FF6FF71C18184
:10485000FF21017481740121017380F8221000216D
:1048600080F8231041750175163001604160816048
:10487000163880F8241080F82510C1844FF4FA60AF
:1048800000F062FC10B14FF0FF3068E7022000F04A
:104890002BFB10B14FF0FF3061E72A2000F0CEFC77
:1048A00010B14FF0FF305AE7322000F009FD10B18F
:1048B0004FF0FF3053E70020FFF7CEFC10B14FF070
:1048C000FF304CE7002000F051FB10B14FF0FF30FB
:1048D00045E7002000F042FD002040E76400002092
:1048E000556E737570706F7274656420736F667443
:1048F000776172652070726F64756374207265767B
:104900002025642E0A000000F08A000848616C66C9
:104910002073656E73697469766974792070617249
:104920007420666F756E642E0A0000002DE9F04356
:1049300085B005460E4690469946294890F82500D0
:1049400020B14FF0FF3005B0BDE8F08316B94FF04D
:10495000FF30F8E7002423E0281B102801DD102099
:1049600000E0281B87B232193946204600F05EFD70
:1049700010B14FF0FF30E6E701AA3946204600F0BB
:1049800001F910B14FF0FF30DDE730193A4601A9C7
:10499000FBF716FE10B16FF00100D4E7E01984B206
:1049A000AC42D9DB4FEA28208DF8000008F0FF0068
:1049B0008DF801000A4A1268917E094A52681078FF
:1049C0006B460222FCF7E1FC10B14FF0FF30BAE772
:1049D0000121034880F82510A0F826900020B2E7B6
:1049E0006400002038B50446282C02DD4FF0FF306B
:1049F00038BDDCB9002000F0EBFB00208DF8000092
:104A000007208DF801002E4A1268917C2C4A5268CA
:104A100010786B460222FCF7B8FC10B14FF0FF3063
:104A2000E6E70021264801750020E1E7012000F0BB
:104A3000CFFB20208DF80000012C06D100208DF83E
:104A40000100052000F0FAFB17E0052C06DC012030
:104A50008DF80100052000F0F1FB0EE0142C06DCBF
:104A600002208DF801000A2000F0E8FB05E0032099
:104A70008DF80100142000F0E1FB9DF801000721F2
:104A800001EB8010C0B28DF801000D4A1268917CD4
:104A90000B4A526810786B460222FCF776FC10B184
:104AA0004FF0FF30A4E7082105488172002101730F
:104AB000012101750020FFF7CFFB002098E70000DF
:104AC00064000020F8B504460F4616462C4890F8BE
:104AD000240010B94FF0FF30F8BD2948807A10B992
:104AE0004FF0FF30F8E7264A1268917A244A52685C
:104AF00010786B460222FCF7A2FB10B14FF0FF309A
:104B0000EAE79DF801009DF8001040EA0125A54262
:104B100003DA00203070401EDEE719484068408804
:104B2000B5EB600F17DD164A1268517C144A5268C3
:104B300010786B460122FCF782FB10B14FF0FF307A
:104B4000CAE79DF8000000F0100020B100F05AF80C
:104B50006FF00100C0E7E2B2094B1B68D97A084B3D
:104B60005B6818783B46FCF76AFB10B14FF0FF30EA
:104B7000B2E795FBF4F0401E30700020ACE7000077
:104B800064000020F8B504460D46164616B94FF0ED
:104B9000FF30F8BD1A48807A10B94FF0FF30F8E7BF
:104BA00020128DF80000E0B28DF801009DF80100A0
:104BB0002844134949684989884202DD4FF0FF3093
:104BC000E7E70F4A1268117E0D4A526810786B466B
:104BD0000222FCF7DAFB10B14FF0FF30D9E7EAB25E
:104BE000074B1B68597D064B5B6818783346FCF70A
:104BF00026FB10B14FF0FF30CBE70020C9E70000E3
:104C00006400002008B57048807A10B94FF0FF307A
:104C100008BD002000906C4A1268D17B6A4A526835
:104C200010786B460122FCF7B0FB10B14FF0FF305B
:104C3000EEE7654A12685179634A526810786B460C
:104C40000122FCF7A2FB10B14FF0FF30E0E75E4A13
:104C5000126811795C4A526810786B460122FCF7A1
:104C600094FB10B14FF0FF30D2E7574890F8240082
:104C7000002853D00C200090534A12681179524AF0
:104C8000526810786B460122FCF77FFB10B14FF0A1
:104C9000FF30BDE73220FEF70BF8C02000904A48F5
:104CA000807A00F0010020B19DF8000040F0200063
:104CB0000090454A12681179434A526810786B4651
:104CC0000122FCF762FB10B14FF0FF30A0E73E4835
:104CD000407C10B10220009001E0002000903A4A90
:104CE0001268D17B384A526810786B460122FCF773
:104CF0004CFB10B14FF0FF308AE700200090324AA1
:104D000012685179304A526810786B460122FCF7DC
:104D10003CFB002855D04FF0FF3079E7042000908D
:104D2000294A12681179284A526810786B46012284
:104D3000FCF72BFB10B14FF0FF3069E72248807C75
:104D400020B92148807A00F0010010B9402000907D
:104D500001E0602000901C4A126811791A4A5268DA
:104D600010786B460122FCF710FB10B14FF0FF30BA
:104D70004EE73220FDF79CFF1348407C10B1012024
:104D8000009001E0002000900F4A1268D17B0E4A8B
:104D9000526810786B460122FCF7F7FA10B14FF019
:104DA000FF3035E7084A12685179074A526810788F
:104DB000054B10330122FCF7E8FA10B14FF0FF3039
:104DC00026E7002024E70000640000202DE9F04FD2
:104DD0008DB083460F4602200C90424890F8240084
:104DE00020B1002000F068F9012600E0002603A8A9
:104DF000FFF722FC05A8FFF7C7FB01A8FFF766FC39
:104E000002A8FFF78BFC374890F80AA004A8FFF728
:104E10000BFC002407E0002239465846FEF7D6FD79
:104E200000B902E0641C022CF5DB00BF022C01D1AA
:104E3000002528E0002407E0012206A909A8FEF7C2
:104E4000C5FD00B902E0641C022CF5DB00BF022C9A
:104E500001D1002517E006A93846FDF779FB00F0DF
:104E6000FF0809A95846FEF7E9FF00F0FF090025F1
:104E7000B9F1000F01D145F00105B8F1000F01D1E2
:104E800045F0020500BFFF2016490872FF211548B2
:104E90004172C1724FF6FF71C181FF2181720174AD
:104EA00001210173BDF80C0000F04EF99DF81400CB
:104EB00000F01AF8BDF8040000F0C0F9BDF80800D1
:104EC00000F0FEF9504600F049FA9DF81000FFF797
:104ED000C3F916B1012000F0EFF828460DB0BDE887
:104EE000F08F00006400002038B504461E48807A28
:104EF00010B94FF0FF3038BD022C06D0042C07D07B
:104F0000082C08D0102C0CD108E0002000900BE0F9
:104F10000820009008E01020009005E01820009084
:104F200002E04FF0FF30E6E700BF0F48407A9DF8FF
:104F30000010B0EBE10F01D10020DCE70A4A126853
:104F4000D179094A526810786B460122FCF71DFAA4
:104F500010B14FF0FF30CEE79DF80000C1100248BD
:104F600041720020C7E700006400002038B5044605
:104F70005048807CA04201D1002038BD002C46D092
:104F80004C4A126811794B4A526810786B460122DC
:104F9000FCF755F910B14FF0FF30EEE79DF8000037
:104FA00020F020000090434A12681179414A52686B
:104FB00010786B460122FCF7E8F910B14FF0FF3092
:104FC000DBE70320FDF774FE02200090394890F8DB
:104FD000220020B19DF8000040F08000009035488C
:104FE00090F8230020B19DF8000040F030000090C0
:104FF000304A1268117D2F4A526810786B460122A0
:10500000FCF7C3F9002851D04FF0FF30B5E7294A2B
:1050100012681179274A526810786B460122FCF712
:105020000EF910B14FF0FF30A7E72248807A00F068
:10503000010028B19DF8000040F02000009004E03D
:105040009DF8000020F0200000901A4A12681179A3
:10505000184A526810786B460122FCF796F910B195
:105060004FF0FF3089E70320FDF722FE114890F84A
:10507000220010B18020009001E0002000900D4837
:1050800090F8230020B19DF8000040F0300000901F
:10509000084A1268117D074A526810786B4601224F
:1050A000FCF773F910B14FF0FF3066E701488474E4
:1050B000002062E76400002038B50446214890F8DB
:1050C0002400A04201D1002038BD24B31D4890F82F
:1050D000250010B94FF0FF30F6E7002000F06CFA21
:1050E0000020FFF743FF1749C88C00F0E9F80020C3
:1050F00000901449496808786B4601222321FCF787
:1051000044F901210F4880F82410012000F054FADE
:10511000FFF778FD13E0002000F04EFA0948007C0C
:1051200000900849496808786B4601222321FCF762
:105130002CF90021034880F82410FFF763FD0020BC
:10514000C2E700006400002038B504461F48807A9A
:1051500010B94FF0FF3038BDFA2C09D0B4F5FA7F02
:1051600009D0B4F57A7F09D0B4F5FA6F0CD108E014
:10517000002000900BE00820009008E01020009034
:1051800005E01820009002E04FF0FF30E3E700BF99
:105190000E48007A9DF80010B0EBE10F01D100201D
:1051A000D9E70A4A12689179084A526810786B4622
:1051B0000122FCF7EAF810B14FF0FF30CBE79DF881
:1051C0000000C010014908720020C4E764000020FC
:1051D00038B50446184890F82300A04201D10020B9
:1051E00038BD14B13020009001E00020009012483A
:1051F000807C20B19DF8000040F0020000900E4835
:1052000090F8220020B19DF8000040F0800000904E
:10521000094A1268117D084A526810786B460122CB
:10522000FCF7B3F810B14FF0FF30D9E7024880F82F
:1052300023400020D4E700006400002038B5044675
:105240001E48807A10B94FF0FF3038BDBC2C02DB0D
:105250000120009015E0622C02DB0220009010E09B
:105260002A2C02DB032000900BE0142C02DB04202C
:10527000009006E00A2C02DB0520009001E00620E9
:1052800000900E48C07A9DF80010884201D100209D
:10529000DBE70A4A12689178084A526810786B4630
:1052A0000122FCF772F810B14FF0FF30CDE79DF806
:1052B00000100248C1720020C7E70000640000200F
:1052C00038B504462448807A10B94FF0FF3038BD15
:1052D000214890F8240010B14FF0FF30F7E71E4846
:1052E000007D50B134B1282C04DCE0B2FFF77AFB2A
:1052F0000020ECE70020FFF775FB042C01DA042402
:1053000004E0B4F57A7F01DD4FF47A744FF47A70DB
:1053100090FBF4F0401EC0B200900F4A1268517822
:105320000D4A526810786B460122FCF72EF810B136
:105330004FF0FF30CBE79DF80000401C4FF47A712E
:1053400091FBF0F081B20448C1810146C98948103F
:10535000FFF774FF0020BAE76400002038B5044668
:1053600004F0700010B10120009005E014B100209D
:10537000009001E0402000902B4A1268917C2A4A5C
:10538000526810786B460122FBF7FFFF20B1002125
:1053900025488172481E38BD9DF8000020F040016C
:1053A000214801730020009004F0400020B99DF8CE
:1053B000000040F00400009004F0200020B99DF8A7
:1053C000000040F00200009004F0100020B99DF8A9
:1053D000000040F00100009004F0080020B99DF8A2
:1053E000000040F0380000900F4A1268D17C0E4A4D
:1053F000526810786B460122FBF7C7FF20B10021ED
:1054000009488172481EC6E724B1082C02D000204A
:10541000FFF7DEFE04488472002101753220FDF79B
:1054200047FC0020B7E7000064000020F8B5044600
:105430000D46164616B94FF0FF30F8BD1A48807A6F
:1054400010B94FF0FF30F8E720128DF80000E0B2FD
:105450008DF801009DF801002844134949684989E5
:10546000884202DD4FF0FF30E7E70F4A1268117EF5
:105470000D4A526810786B460222FBF786FF10B186
:105480004FF0FF30D9E7EAB2074B1B68597D064B56
:105490005B6818783346FBF778FF10B14FF0FF30A8
:1054A000CBE70020C9E700006400002070B5044687
:1054B00004B970BD03488068251A2846FEF73CFEF3
:1054C00000BFF6E7F801002070B505462846FEF754
:1054D0006DFE0446601C08B9002070BD014880685C
:1054E0002044FAE7F801002030B5034601E003F854
:1054F000011B1400A2F10102F9D130BD0146086878
:10550000704770B588B002A905A8FFF75FFC044694
:10551000032C3ED101A8FFF7B1F8059802F052F92B
:105520000646019902F0AEF9054602F00FF9059022
:10553000069802F047F90646019902F0A3F90546DC
:1055400002F004F90690079802F03CF9064601992A
:1055500002F098F9054602F0F9F8079005A8FDF762
:105560002BFF6846FFF736F8BDF800100298484355
:105570000290BDF80010039848430390BDF8001056
:1055800004984843049002A8FDF746FE002008B0A6
:1055900070BD0120FBE7000010B50648006838B96F
:1055A0000A20FDF785FB0348006808B9002010BDFC
:1055B0000120FCE71481214238B50446214890F8C7
:1055C0002400C0B114B10220009001E0002000903E
:1055D0001C4A1268D17B1B4A526810786B46012224
:1055E000FBF7D3FE10B14FF0FF3038BD9DF800102F
:1055F0001448417423E01348807A10B94FF0FF300B
:10560000F3E724B10F48407C08B10020EDE714B166
:105610000120009001E0002000900A4A1268D17B2E
:10562000084A526810786B460122FBF7AEFE10B1B3
:105630004FF0FF30D9E79DF8001002484174002078
:10564000D3E700006400002000B5254B21F00042A4
:1056500087B09A4203DC0022134600922BE0214BD4
:105660009A4208D140B94FF00100FBF75DF8FCF712
:1056700040FF07B000BD03DBFCF736FF07B000BDFD
:1056800002AAFCF723FC10F003014FF001000DD03B
:10569000012914D002291AD00DF1080C9CE80F0042
:1056A000FCF7D8FD07B081F0004100BD0DF1080CFA
:1056B00000909CE80F00FCF7A1FE07B000BD0DF1C3
:1056C000080C9CE80F00FCF7C5FD07B000BD0DF10C
:1056D000080C00909CE80F00FCF790FEE2E7000049
:1056E000FB21E93F0000F07F2DE9F04106460F461F
:1056F00001F0CCFC04000D4618BF0120284320F027
:105700000040C0F17F6000F1E040C00F0ED0301CBF
:1057100018BF0120384320F00040C0F17F6000F145
:10572000E040C00F04BF0120FAF7FEFF20462946E3
:10573000BDE8F08170B5FBF7A7FC124A1249134887
:10574000FBF752FC124A13491348FBF775FC134A46
:1057500013491448FEF7B8FD98B91349104800687A
:1057600002F090F8044601F0F1FF104908600C487F
:10577000006801F05BFE044622460B460CA0FAF7D7
:1057800079FD70BD38000020360000203400002074
:105790004C0000204A000020480000205C0000204F
:1057A000580000205400002000002041500000203C
:1057B000726F6C6C2069732025640D0A0000000074
:1057C00010B586B00446012144F20400FBF784FEC4
:1057D0004FF40070ADF8140003208DF81600182067
:1057E0008DF8170005A91C48FBF787F94FF4806076
:1057F000ADF8140004208DF8170005A91648FBF732
:105800007CF925208DF8000003208DF801008DF82B
:10581000020001208DF803006846FBF7E9FD0194C2
:105820000020ADF80800ADF80A00ADF80C00ADF8A6
:1058300010000C20ADF80E0001A90848FCF7BEFAD4
:10584000012240F225510548FCF792FA0121034854
:10585000FCF700FA06B010BD000801400038014016
:1058600030B595B0054613AB12AA09A9284600F039
:105870003BFA044614B1204615B030BD0020149008
:1058800026E0224909689DF8502001EBC20113ABC4
:1058900011AA486801A900F027FA04460CB1204675
:1058A000EAE709A901A800F0B7FC60B99DF8440037
:1058B0009DF84810884201DD0220DDE79DF8500088
:1058C000124988750AE09DF85000401CC0B214903F
:1058D0000E48007D9DF850108842D2DC00BF0B4876
:1058E000007D9DF85010884201D10420C4E714A91E
:1058F000284600F0D9FA04460CB12046BCE79DF8D2
:105900005000024948750020B6E70000040100205D
:105910002DE9F0419AB000269C48847D007DA0428C
:1059200002DC1AB0BDE8F0819849096801EBC401B6
:1059300006AB07AA486808A900F0D6F908A994A000
:10594000FAF798FC002544E09048008B0121A9401B
:105950000840D8B1222190A0FAF78CFC284600F02C
:1059600029FB8A492431471839468CA0FAF782FC72
:10597000222189A0FAF77EFC284600F01BFB834910
:105980002431084410A941F8250018E0284600F009
:1059900011FB7E492431085810A941F825007B48A5
:1059A000C07D30B910A850F825107DA0FAF762FC30
:1059B00005E010A850F825107AA0FAF75BFC9DF8D6
:1059C0001C00401EA84202D078A0FAF753FC681CC5
:1059D000C5B29DF81C008542B6DB75A0FAF74AFCFB
:1059E00000F038FB6948407D0B280DD2DFE800F05D
:1059F000060D151E27323F4E5F7287006349096806
:105A000051F834008047064690E0604A126852F828
:105A1000341010988847064688E05C4B1B6853F8A2
:105A20003420DDE91001904706467FE0574F3F687C
:105A300057F8343010A807C89847064676E0DFF8D4
:105A40004CC1DCF800C05CF8347010A80FC8B8472F
:105A500006466BE01498DFF834C10090DCF800C013
:105A60005CF8347010A80FC8B84706465EE0DDE960
:105A70001401DFF818C1CDE90001DCF800C05CF8C2
:105A8000347010A80FC8B84706464FE0DDE914127D
:105A90001698DFF8F8C0CDE900120290DCF800C0DB
:105AA0005CF8347010A80FC8B84706463EE0DDE940
:105AB0001423DDE91610DFF8D4C0CDE90023CDE9C9
:105AC0000210DCF800C05CF8347010A80FC8B847AA
:105AD00006462BE0DDE9163218991598CDE9023219
